:100000000C94F9040C9416050C9416050C94160522
:100010000C9416050C9416050C9416050C941605F4
:100020000C9416050C9416050C94852E0C94572FE1
:100030000C94FC240C9416050C9416050C941605CF
:100040000C9416050C9416050C9416050C941605C4
:100050000C9416050C9464250C9416050C94160546
:100060000C9416050C9416050C9416050C941605A4
:100070000C9416050C9416050C9416050C94160594
:100080000C9416050C9416050C9416050C94160584
:100090000C9416050C9416050C9416050C94160574
:1000A0000C9416050C9416050C9416056C056F053A
:1000B0007205750578057B057E056408680870087B
:1000C0007A086E08730878087608A909AB09B6099A
:1000D000AD09AF09B109B309B509B809BA09BC0935
:1000E000C709BE09C009C209C409C609C909F1196D
:1000F000F119231A231A5A1A781AD71B351CBA1A5F
:10010000351C5D1B5D1BCE1B351C351C2F1C6A1B53
:100110006A1B6A1B6A1B6A1B6A1B6A1B6A1B6A1BB7
:100120006A1B6A1B6A1B6A1B6A1B6A1B6A1B7B1B96
:10013000881B8F1B961BA01BC61CC61CD81CD81C5A
:10014000CF1CD81CD81CD81CC61CC61CD41CD81C40
:10015000D81CD41CE828DE28F6283E29422942294A
:100160003E29422942291729422921292B2942299E
:100170004229422942293E29422942293E2942292F
:100180000429422942293B293B293B293B293B2978
:100190003B293B293B293B2940294229E828DB28E8
:1001A00042294229422942294229422942294229F7
:1001B000422942294029422942293E2942293929F6
:1001C000392939293929392939293929392939291F
:1001D0004029C42FEB2FE330EB2FE33037305A3078
:1001E000E330B130C03007634236B79BD8A71A3925
:1001F000685618AEBAAB558C1D3CB7CC5763BD6D75
:10020000EDFD753EF6177231BF000000803F05A876
:100210004CCDB2D44EB93836A9020C50B99186886B
:10022000083CA6AAAA2ABE000000803F6572676F3C
:10023000646F785F657A2F64656661756C742040C1
:1002400020302E362E3330392D31392D6766396303
:100250003562382D6469727479000000F0A13500B0
:100260002B002900E100E30000001E001400040040
:100270001D004A0000431F001A0016001B004E001C
:10028000E20020000800070006004B002C002100BF
:100290001500090019004D000100220017000A0096
:1002A0000500000001000153340000002800000098
:1002B000010002532F0200004C0000000100230047
:1002C0001C000B00110000004600240018000D0067
:1002D00010005000010025000C000E0036005100F7
:1002E0002A00260012000F0037005200E00027000D
:1002F0001300330038004F0000452D002E00290068
:10030000E500010000000100010001000100E20021
:100310000000010001000100010001000044010093
:100320000100010001000100E300010001000100E3
:1003300001000100010001000100010001000100B5
:1003400001000100010001000100000001000100A6
:100350000100000001000000010001000100000098
:100360000100000001000100010001000100000087
:100370000100010001000100010001000100010075
:100380000100010001000100010001000100010065
:1003900001000100006101000100010001000100F5
:1003A0000100010001000100010001000000010046
:1003B000010001000100E000000001000100010057
:1003C00001001C00010001000100010001001800F3
:1003D000010001000100010001000C00010001000A
:1003E00001000100010012000100010001000100F4
:1003F00001000000010001000B00000001000000EE
:1004000001000100010000000100000001000100E6
:1004100001000100010000000100010001000100D5
:1004200001000100010001000100010001000100C4
:1004300001000100010001000100010001000100B4
:1004400001000100010001000100010001000100A4
:100450000100010000000100010001000100010095
:1004600000003A00010001000100010001003B0012
:10047000010001000100010001003C0031003602D2
:100480000661010001003D003102370219610100DF
:1004900001003E0001000100356800000100005C21
:1004A0000100000001000000010001000100000047
:1004B0000100000001003F000100010001000000F8
:1004C000010040002F0226022F0001000100410020
:1004D000300227023000010001004200010001004B
:1004E00001000100010043000100010001000100C2
:1004F000010044004500010001000100000001006E
:10050000010001000100010000003A0001000100AB
:100510000100010001003B00010001000100010099
:1005200001003C00310036027C00010001003D006A
:10053000310237027D00010001003E000100010090
:10054000356800000100005C0100000001000000AF
:1005500001000100010000000100000001003F0057
:100560000100010001000000010040002F022602EE
:100570002F0001000100410030022702300001007D
:1005800001004200010001000100010001004300E0
:1005900001000100010001000100440045000100CC
:1005A00001000100000001000100010003510100F1
:1005B000000001000100E080E28001000100010074
:1005C000E880EB800100010001000100E980EA8081
:1005D000E7800100010001000100010001000100AD
:1005E0000100010001000100010000000100010004
:1005F00001000000010000000100010001000000F6
:1006000001000000010001000100010001000000E4
:1006100001000100F980FB80FC8001000100010065
:10062000EE80EF800100010001000100F480010074
:1006300001000100010001000100010001000100B2
:1006400001000100010001000100010000000000A4
:100650000000000000002A2B28000000000000001D
:1006600000000000000000000029000000002C1E17
:100670003420212224342627252E362D3738271ED4
:100680001F202122232425263333362E37381F04FA
:1006900005060708090A0B0C0D0E0F101112131492
:1006A00015161718191A1B1C1D2F3130232D350450
:1006B00005060708090A0B0C0D0E0F101112131472
:1006C00015161718191A1B1C1D2F3130354C000038
:1006D000000000000000000000000000000000001A
:1006E0000000000000000000000000000000000109
:1006F00001010101010001010101000000000000F1
:1007000000000000000000000100010001010101E3
:1007100001010101010101010101010101010101C9
:1007200001010101010101010100000001010000BE
:1007300000000000000000000000000000000000B9
:1007400000000000000000000001010101000004A1
:100750007F3F1F643214643214783C1E1E140A0555
:100760006801F000B40078005A00000000000001A9
:100770000101010101010101020202020202020261
:100780000203030303030303030404040404040532
:1007900005050505060606060607070707080808F3
:1007A000080909090A0A0A0A0B0B0B0C0C0C0D0D9F
:1007B0000D0E0E0F0F0F1010111111121213131432
:1007C00014151516161717181819191A1A1B1C1CA8
:1007D0001D1D1E1F1F202021222223242525262700
:1007E0002728292A2B2B2C2D2E2F2F303132333432
:1007F0003536363738393A3B3C3D3E3F404142433F
:1008000044464748494A4B4C4D4F50515253555618
:1008100057585A5B5C5E5F606263646667696A6CC6
:100820006D6E707173747678797B7C7E8081838441
:1008300086888A8B8D8F91929496989A9B9D9FA182
:10084000A3A5A7A9ABADAFB1B3B5B7B9BBBDBFC188
:10085000C4C6C8CACCCFD1D3D6D8DADCDFE1E4E64F
:10086000E8EBEDF0F2F5F7FAFCFF040330000000CE
:1008700016034500720067006F0044006F007800A7
:10088000200045005A000000160345007200670072
:100890006F0044006F007800200045005A000000FF
:1008A0000403090409023B00020100A0FA09040044
:1008B000000103010100092111010001224000078C
:1008C00005810308000A0904010001030000000972
:1008D000211101000122C0000705820320000A1235
:1008E00001100100000008EDFE07130100010203E2
:1008F0000105010902A10185020901A100050919EB
:1009000001290515002501950575018102950175DF
:100910000381010501093009311581257F95027593
:1009200008810609381581257F950175088106051E
:100930000C0A38021581257F950175088106C0C013
:1009400005010980A10185031601002603001A8113
:10095000002A8300751095018100C0050C0901A1D2
:10096000018504160100269C021A01002A9C0275CA
:100970001095018100C005010906A1018505050743
:1009800019E029E715002501950875018102050880
:1009900019012905950575019102950175039101CC
:1009A0000507190029EF1500250195F07501810251
:1009B000C005010906A101050719E029E715002571
:1009C00001950875018102950175088101050819D5
:1009D00001290595057501910295017503910105A0
:1009E00007190029FF150026FF00950675088100EC
:1009F000C00011241FBECFEFDAE0DEBFCDBF11E093
:100A0000A0E0B1E0EAECF9E602C005900D92A43D49
:100A1000B107D9F723E0A4EDB1E001C01D92AB3BD3
:100A2000B207E1F70E94AD2B0C94E3340C94000064
:100A300080B38C7080BB81B3836F81BB089584B118
:100A4000807F84B985B1807F85B98AB1837F8AB977
:100A50008BB1837F8BB93E9846980895CF93E82F4A
:100A6000873080F58091000190910101892B09F078
:100A700047C0CE2F64E670E080E40E949C0690930D
:100A8000010180930001892BD1F464E670E082E1DA
:100A90000E94F3069093010180930001892B79F461
:100AA00081E090E001C0880FCA95EAF764E670E043
:100AB00080950E94F3069093010180930001CF91ED
:100AC0000C94480790E0FC013797E730F105C0F43B
:100AD000EA5AFF4F0C948834209A289811C0219A22
:100AE00029980EC0229A2A980BC0239A2B9808C0E6
:100AF000529A5A9805C0539A5B9802C03E9A4698FB
:100B0000CF91089508950C9482050C948205CF939B
:100B1000DF930E94BA0790E0909301018093000157
:100B20000E941F050E941805E7E3F2E0A9E2B2E087
:100B300085ED91E011921D92EC0126E01992215071
:100B4000E9F7069622E0E534F207A1F7DF91CF91AD
:100B50000C94E2080E94BA0790E090930101809300
:100B600000010E941F050E941805E7E3F2E01192C0
:100B700082E0E534F807D9F70895CF93DF93E62FA5
:100B8000F0E0E75DFD4F40814827808386E0689F65
:100B9000F0011124EB52FE4F20E030E080E061E0F4
:100BA00070E050E0AAE0B22F9081992319F09150A3
:100BB000908307C0EB01022E01C0CC0F0A94EAF724
:100BC0008C2BEA0102C0D595C795BA95E2F7C0FD16
:100BD000A0832F5F3F4F31962630310521F7DF91FB
:100BE000CF910895CF93DF93D82F8730F0F5809180
:100BF000000190910101892B09F040C064E670E08A
:100C000080E40E949C069093010180930001892B4F
:100C100011F0C0E027C064E670E083E10E94F306B3
:100C20009093010180930001892B99F764E670E0AD
:100C300081E40E949C069093010180930001892B1E
:100C400041F784E690E00E94230797FF05C0909348
:100C5000010180930001DDCFC82FC09510920101E2
:100C6000109200010E9448070AC08FB1CFB1C07F27
:100C7000C695C6958370C82BC09501C0C0E06D2F86
:100C80008C2F0E94BD05ED2FF0E0E95CFD4F282F71
:100C90002095908192238C23892BDF91CF91089509
:100CA0000F931F93CF93DF938091000190910101E7
:100CB000892B91F08091D4018F5F8093D4018111B1
:100CC0000BC00E94BA0790E090930101809300014D
:100CD000892B11F40E944C0707E312E0C0E08C2F2F
:100CE0000E942E05D7E0DC0F8D2F0E942E058C2F41
:100CF0000E94F205F80181938F018D2F0E94F20569
:100D0000F80186830E941F05CF5FC73041F70E941C
:100D1000EC0881E0DF91CF911F910F910895E82FAA
:100D2000F0E0E95CFD4F8081089508951092B900CC
:100D30008CE08093B8000895EF92FF920F931F9379
:100D4000CF93DF93182FEB011092BC0084EA8093BD
:100D5000BC000E942E257C018091BC0087FD0EC046
:100D6000CF3F8FEFD807C1F30E942E258E199F0920
:100D70008C179D0788F38EEF9FEF2EC08091B900EE
:100D8000887F883041F08091B900887F803119F0E8
:100D90008FEF9FEF21C01093BB0084E88093BC00CD
:100DA0000E942E258C018091BC0087FD0CC0CF3F96
:100DB0008FEFD807C1F30E942E25801B910B8C1753
:100DC0009D0788F3D8CF8091B900887F883111F0D2
:100DD0008034F1F680E090E0DF91CF911F910F9188
:100DE000FF90EF9008950F931F93CF93DF93EB0144
:100DF0008093BB0084E88093BC000E942E258C0168
:100E00008091BC0087FD0EC0CF3F8FEFD807C1F3A4
:100E10000E942E25801B910B8C179D0788F38EEF67
:100E20009FEF0CC02091B900287F81E090E028322C
:100E300011F480E090E0919581959109DF91CF9137
:100E40001F910F9108950F931F93CF93DF93EC01A0
:100E500084E88093BC000E942E258C018091BC0008
:100E600087FD0EC0CF3F8FEFD807C1F30E942E251C
:100E7000801B910B8C179D0788F38EEF9FEF03C0AB
:100E80008091BB0090E0DF91CF911F910F91089569
:100E900084E98093BC00089556985E9825982D9813
:100EA00026982E9827982F988FEF90E0909389009E
:100EB0008093880090938B0080938A0090938D009C
:100EC00080938C00259A2D9A2FEF80E792E0215095
:100ED00080409040E1F700C00000269A2E9A2FEF44
:100EE00080E792E0215080409040E1F700C0000090
:100EF000279A2F9A2FEF80E792E021508040904070
:100F0000E1F700C0000025982D982FEF80E792E0D0
:100F1000215080409040E1F700C0000026982E98B4
:100F20002FEF80E792E0215080409040E1F700C031
:100F3000000027982F9856985E9825982D98269807
:100F40002E9827982F98089589EA8093800089E049
:100F50008093810024982C983F988AB18F7C8AB91D
:100F60006E98479A8BB180638BB9769A0E944C0732
:100F70000C94830580E290E090930101809300013E
:100F80008091450281110EC00E94960681E08093F7
:100F900045022FEF83ED90E3215080409040E1F730
:100FA00000C0000064E670E080E40E949C0690931C
:100FB000010180930001892B09F04EC064E670E0C6
:100FC00080E00E94F3069093010180930001892B39
:100FD00009F042C064E670E080E00E94F30690935E
:100FE000010180930001892BB9F564E670E08FE37D
:100FF0000E94F3069093010180930001892B61F513
:101000000E94480764E670E080E40E949C0690938A
:10101000010180930001892BF9F464E670E08CE013
:101020000E94F3069093010180930001892BA1F4A3
:1010300064E670E080E00E94F306909301018093E3
:101040000001892B49F464E670E08FE30E94F30607
:1010500090930101809300010E9448078091000154
:101060000895611108C0FC018281882321F08CE27F
:1010700092E00E94DF0880E090E00895813F9C4567
:1010800041F4FB018281882329F00E94172480E02B
:10109000089581E00895CF92DF92EF92FF926B0165
:1010A0007C010E944D2356985E9825982D9826988D
:1010B0002E9827982F9890E088309105E8F4FC014D
:1010C000E35AFF4F0C94883484E00E94640E14C0ED
:1010D00080E00E94640E259A2D9A0EC0259A2D9AC2
:1010E000269A2E9A09C0259A2D9A04C0259A2D9ADF
:1010F000269A2E9A279A2F9AC701B601FF90EF9051
:10110000DF90CF90089581E008950C943E08CF932E
:1011100090E0FC01E25BF94FC491FC01E253F94F0E
:101120008491882359F081EE0E9414188C2F0E941C
:1011300014188C2F0E943E1981EE04C08C2F0E943F
:1011400014188C2FCF910C943E190F931F93CF93AB
:10115000DF93EC01062FFE018491882359F19E0153
:101160002F5F3F4F813041F4E901F9011491812F44
:101170000E941418812F0DC0823031F4E901F90169
:1011800084910E9414180AC0833031F4E901F901F6
:1011900084910E943E1902C00E9487082196802FE8
:1011A0008823C9F2EFE9FFE03197F1F700C00000B2
:1011B0008150F6CFDF91CF911F910F91089560E09C
:1011C0000C94A5080E949D23811102C00E9417243F
:1011D0000E944E0E0C94A4070C948505282F2F70A6
:1011E00041F0822F90E02A3010F44D960895069732
:1011F000089587E290E0089508950C94FC080C94FB
:10120000FD0808950E94B41C0E9401092FEF84E399
:101210009CE0215080409040E1F700C000000C9419
:101220008A25FF920F931F93CF93DF938C01FC01CC
:10123000C081D18180919002811113C08281882365
:1012400049F0CE010E941822F82E682FCE010E948C
:10125000BF2104C0CE010E94EB21F82EBE018F2DCC
:1012600004C0CE010E941822BE010E94B40BEC0102
:10127000B8010E948508882309F46EC2B801CE0126
:101280000E94CD0E882309F467C2CC3CFCE5DF0741
:1012900041F4F8018281882309F45EC20E94F00FB4
:1012A0005BC2CD3C8CE5D80708F01EC1C43C9CE570
:1012B000D90761F4F8018281882309F44DC20E94A4
:1012C00099228272E1F40E94131246C2C53CECE5F9
:1012D000DE0708F0C7C0C531FCE5DF0798F0C23C67
:1012E000FCE5DF0709F48CC008F492C0F8018281A4
:1012F000882309F431C20E949922827221F70E9448
:1013000005122AC2C2308CE5D80708F452C0F80191
:101310008281882309F459C00E949D23811102C053
:101320000E9417240E94B02390E09093AD03809315
:10133000AC03FE01E350FC45E231F10530F4EB591A
:10134000FF4F8091AC030C9488348091AC03816092
:1013500027C0826025C0846023C0806121C0806274
:101360001FC080641DC080681BC08460886018C076
:101370008E7F16C08D7F14C08B7F12C08F7E10C0F1
:101380008F7D0EC08F7B0CC08F770AC08B7F877FCD
:1013900007C087FB222720F991E0922790FB87F96D
:1013A0008093AC038091AC030E94B4230E94B41CD0
:1013B000D3C1C1159CE5D90781F0C130DC45A9F046
:1013C00081E080934B0280934C02C801DF91CF9162
:1013D0001F910F91FF900C948308F801828188235C
:1013E00009F4BAC10E940209B7C1F80182818823B9
:1013F00009F4B2C180912F03816080932F03ACC1A7
:10140000F8018281882309F4A7C10E947712A4C140
:10141000C631DC45A9F60E949922982FF8018281F5
:1014200020910F0130911001882379F09A7A81E0A0
:1014300009F480E080934602911102C069E201C084
:1014400065E3C9010E947F240AC080914602811190
:1014500002C069E201C065E3C9010E948A240E94BA
:10146000EA227AC1F8018281C83CFCE5DF0731F449
:10147000882309F471C10E946C116EC1C93C9CE5BE
:10148000D907C8F4C63CECE5DE0731F4882309F43B
:1014900063C10E943E1160C1C73CDC4530F4882323
:1014A00009F45AC10E941B1157C1882309F454C181
:1014B0000E94551151C1CA3C9CE5D90731F48823DB
:1014C00009F44AC10E94AC1147C1CB3CDC4530F461
:1014D000882309F441C10E948C113EC1882309F47C
:1014E0003BC10E94DB0F38C1C43DFCE5DF0791F42E
:1014F000F8018281882309F42FC10E94D20F89311B
:1015000028F00E94D20F823208F4F9CE89E10E94BD
:10151000161222C1C53D8CE5D80708F068C0F80155
:101520008281C03DFCE5DF0771F4882309F414C112
:101530000E94D20F893028F00E94D20F8E3008F41A
:10154000DECE89E0E4CFC13D9CE5D90740F5CE3C35
:10155000ECE5DE0771F4882309F4FEC00E94D20F87
:10156000823028F00E94D20F853008F4C8CE82E085
:10157000CECFCF3CDC4528F4882309F4EDC081E0D0
:10158000C6CF882309F4E8C00E94D20F863028F025
:101590000E94D20F883008F4B2CE86E0B8CFC23DA8
:1015A0009CE5D90771F4882309F4D6C00E94D20FB4
:1015B000853128F00E94D20F873108F4A0CE85E152
:1015C000A6CFC33DDC4570F4882309F4C5C00E9452
:1015D000D20F8F3028F00E94D20F843108F48FCEC2
:1015E0008FE095CF882309F4B7C088E190CFC93D3B
:1015F000FCE5DF0759F5F8018281882361F010923C
:101600004C020E942E2590934A028093490280E268
:101610000E94AE19A1C080914C02882321F080E283
:101620000E94B51999C08091490290914A020E9486
:101630003A25883C910598F780E20E94B51988E226
:101640000E94141888E20E943E1986C0CA3D8CE5AB
:10165000D80708F060C0C73D9CE5D90761F5F801DF
:101660008281882351F010924B020E942E25909384
:1016700048028093470282E0CBCF0E94992285FFE7
:1016800005C081E080934B0280934C0280914B0215
:1016900081110FC080914702909148020E943A2523
:1016A000883C910530F486E20E94141886E20E947C
:1016B0003E1982E0B5CFC83DECE5DE0710F1F80138
:1016C000828181119CCF0E94992281FF05C081E017
:1016D00080934B0280934C0280914C0281119FCFEA
:1016E0008091490290914A020E943A25883C9105D6
:1016F00008F095CF87E20E94141887E20E943E19F5
:101700008ECFC53DDC4509F05BCEF8018281882390
:1017100019F183E2FCCECD3D8CE5D80741F4F80108
:1017200082818823C9F082E00E944C2C15C0CE3DF6
:101730009CE5D90739F4F8018281882369F00E9479
:1017400017240AC0CC3DDC4509F03ACEF80182816D
:10175000882311F080E0E8CF80E0DF91CF911F91E6
:101760000F91FF900895089524E5829FC0011124F0
:10177000FC0126E0729FE00DF11D1124E60FF11D22
:10178000EE0FFF1FE25AFD4F859194910895880F47
:10179000991FFC01E65AFD4F859194910895CF93CE
:1017A000DF930E94B40B0E94980DEC0181159045C7
:1017B00008F041C0C11580E4D80708F02DC1C83E2B
:1017C000D10510F5C03ED10508F0AEC1C83AD1052B
:1017D00078F4C53AD10508F0A7C0C130D10509F4A5
:1017E000A3C108F454C1C430D10508F09DC14FC154
:1017F000CF3BD10508F4A3C0C03CD10508F447C1D4
:10180000CE01805C9109FAC0C11590E2D90758F465
:10181000C11521E0D20708F087C1C03FD10508F407
:1018200036C1D06581C1C11580E3D80708F0EAC090
:10183000CE019F70E3C0C11595E5D90708F043C0FC
:10184000C11524E5D20708F0FEC0C11582E5D8070E
:1018500008F5C11591E5D90708F0E1C0CE0174E0A3
:10186000969587957A95E1F783709C2F937021E088
:1018700030E002C0220F331F9A95E2F73C68382B04
:10188000CF70C695C69580E2C89FE0011124C22B97
:10189000D32B4AC19E01237033278C2F86958695C2
:1018A000C115D34508F0C0C0C1E0D0E002C0CC0FE4
:1018B000DD1F2A95E2F720E2829FC0011124C82B88
:1018C000D92BDC6831C1C1152AE5D207A0F4C115B6
:1018D00089E5D80708F0C6C0C11596E5D90708F410
:1018E000B7C0C11528E5D20708F4D1C0DC2FCC273A
:1018F000C06FD06A19C1C1158BE5D80708F4C7C0FD
:10190000C1159CE5D90708F4BFC0CE0190568115DA
:10191000904208F0BCC08D2F8F710E94140EDD27FD
:10192000D0628F71D82B00C1C53AD10509F4B2C07D
:10193000C63AD10509F0B1C0C2E8D0E4F5C0C83A52
:10194000D10509F4ADC0C93AD10509F4ACC0CA3A11
:10195000D10509F4ABC0CB3AD10509F4AAC0CC3A01
:10196000D10509F4A9C0CB3BD10509F4A8C0CC3BF3
:10197000D10509F4A7C0CD3AD10509F4A6C0C03BF2
:10198000D10509F4A5C0CE3AD10509F4A4C0CF3AD7
:10199000D10509F4A3C0C13BD10509F4A2C0C23BE3
:1019A000D10509F4A1C0C33BD10509F4A0C0C43BD3
:1019B000D10509F49FC0C53BD10509F49EC0C63BC3
:1019C000D10509F49DC0C73BD10509F49CC0C83BB3
:1019D000D10509F49BC0C93BD10509F49AC0CD3BA0
:1019E000D10509F499C0CE3BD10509F498C0CA3B92
:1019F000D10509F497C0C0E0D4E496C00E94C70B9B
:101A0000EC0192C0CE019927D3FF03C0EC01D86C42
:101A10008BC0EC01D06C88C0DF70D06A85C0DC2F31
:101A2000CC27C16FD06A80C0C1E0D0E002C0CC0F2B
:101A3000DD1F2A95E2F720E2829FC0011124C82B06
:101A4000D92BDA6871C0DC2FCC27C46FD06A6CC088
:101A50008C2F0E94140E8F71C82FD0E0DC2FCC2762
:101A6000D06262C08C2F8F700E94140E94E0D695C5
:101A7000C7959A95E1F7CF70D0E0DC2FCC27D06ADC
:101A80008F70806EC82B50C0DD27D0664DC0C0E07F
:101A9000D0E04AC0C1E8D0E447C0C3E8D0E444C0C5
:101AA000C2EED4E441C0C9EED4E43EC0CAEED4E4F0
:101AB0003BC0C5EBD4E438C0C6EBD4E435C0C3EBBF
:101AC000D4E432C0C4EBD4E42FC0C7EBD4E42CC0C0
:101AD000CCECD4E429C0CDECD4E426C0C3E8D5E4F2
:101AE00023C0CAE8D5E420C0C2E9D5E41DC0C4E9DA
:101AF000D5E41AC0C1E2D6E417C0C3E2D6E414C0EC
:101B0000C4E2D6E411C0C5E2D6E40EC0C6E2D6E413
:101B10000BC0C7E2D6E408C0CFE6D4E405C0C0E7F6
:101B2000D4E402C0CAE2D6E4CE01DF91CF91089599
:101B30008238910549F1B0F48133910509F459C017
:101B400048F48932910509F44FC08A32910509F4AD
:101B500055C008958533910509F441C08933910535
:101B600099F00895833E910531F138F4803E910556
:101B700091F0823E9105A9F00895863E910501F10C
:101B8000873E910539F108952091AC0320FD3BC0BB
:101B900021FD39C008958091AC0380FF34C089E3F2
:101BA00041C08091AC0382FF30C08091AC0384FDC2
:101BB0002EC083EE37C08091AC0382FD26C0F5CFE6
:101BC0008091AC0383FF25C08091AC0384FD1FC0CE
:101BD00087EE28C08091AC0383FD1BC0F5CF8091B8
:101BE000AC0385FD18C019C08091AC0385FD15C0FC
:101BF00012C08091AC0386FD12C013C08091AC036B
:101C000086FD0FC00CC080EE0DC082EE0BC080E0E0
:101C100009C086EE07C089E205C085E303C08AE2F9
:101C200001C081E390E008959091AC0392FF0DC054
:101C3000282F2871283019F4877F846006C0282F48
:101C40002471243011F48B7F886093FF0DC0282FFE
:101C50002871283119F4877E846106C0282F2471E9
:101C6000243111F48B7E886194FD877E0895CF9393
:101C7000DF93813020E8920768F0FB012281222364
:101C800049F0EC010E94680ECE019F770E94B00ED1
:101C90000E949D0E81E0DF91CF9108958CE090E04D
:101CA0000E949B3490E0A0E0B0E0809361039093A9
:101CB0006203A0936303B09364030895609161038A
:101CC0008CE090E00C94AF34809361030C945E0E32
:101CD0000E94992280934D020E94AC228091610360
:101CE000813071F048F08230D9F08430F9F486EE1A
:101CF0000E94A61988E118C082EE0E94141816C02E
:101D000080EE0E94141881EE0E94141888E10E944F
:101D1000A61981EE0E943E1980EE0E943E1906C06F
:101D200082EE0E94141887E50E94A6198FE39CE9B1
:101D30000197F1F700C000000895809161038130A0
:101D400021F038F0823029F007C08CE20E94A619F9
:101D500003C082EE0E943E1980914D020C94A9228C
:101D60000F931F93CF93DF938C01CCE0D0E0C80199
:101D70000C2E02C0969587950A94E2F78F700E9408
:101D8000EE080E94A6192497CC3F8FEFD80779F769
:101D9000DF91CF911F910F9108950F931F93CF93D0
:101DA000DF93EC018B01FB018281882319F1C33E93
:101DB000FCE5DF07C1F050F4C13EECE5DE0781F041
:101DC000C23EFCE5DF07B1F481E010C0C43E8CE503
:101DD000D80759F0C53EECE5DE0761F484E006C0A3
:101DE0001092610305C082E001C083E0809361032B
:101DF0000E945E0EB801CE01DF91CF911F910F912D
:101E00000C94370EEF92FF920F931F93CF93DF93B3
:101E1000E901662309F44BC0242F30E0EFEFF0E036
:101E2000E61BF109B901E69F9001E79F300DF69F8F
:101E3000300D1124232F8B01031B11095CE3E52EC8
:101E4000F12CB7010E946034FB01BC01069FC00168
:101E5000079F900D169F900D1124B7010E946034CA
:101E6000E230F105B1F040F4309779F0319711F597
:101E7000832F242F461B21C0E430F105A1F068F028
:101E80003597C1F4842F861B18C0832F262F230F6C
:101E900014C0862F830FE42F03C0E42FE61B842F8A
:101EA000432F2E2F0AC0842F462F430F06C0842FA6
:101EB000242F03C080E020E040E0E42FF0E0E6596A
:101EC000F84F4491E22FF0E0E659F84F9491E82F53
:101ED000F0E0E659F84FE49149839883EA83DF9173
:101EE000CF911F910F91FF90EF900895809165031E
:101EF000282F26952F7330E02115310519F48178AC
:101F0000826005C02532310524F081788864809391
:101F1000650330916503432F441F4427441F2091DC
:101F20006603522F550F852F842B27FB992790F995
:101F3000893641E094077CF068E671E00E947434D1
:101F400080FB37F93093650386952078822B90FBD0
:101F500087F980936603089588E090E00C94A33499
:101F6000CF92DF92EF92FF926B017C010E94760F7D
:101F7000B701A60188E090E0FF90EF90DF90CF904E
:101F80000C94C134E5E6F3E083E0808310926603AD
:101F90008FEF828383831482608171818281938138
:101FA0000C94B00F8091650380FF03C086958F73FA
:101FB000089580E008958091690390E0019684304F
:101FC000910514F083E090E08093690360916503CC
:101FD0007091660380916703909168030C94B00F31
:101FE0008091690390E0019797FF02C080E090E044
:101FF0008430910514F083E090E080936903609150
:1020000065037091660380916703909168030C9457
:10201000B00F8091650380FF06C06FE070E08AE634
:1020200093E00C941116EAE6F3E01182108212821A
:10203000349683E0E63AF807C1F7EFCF9091650355
:1020400090FF0CC0EAE6F3E081836083428334961C
:1020500093E0E63AF907C1F70C9409100895CF937D
:10206000DF9300D000D0CDB7DEB72091650320FF0D
:102070000AC09E012F5F3F4F0E94020F4B81698172
:102080008A810E941E100F900F900F900F90DF9189
:10209000CF9108955F926F927F928F929F92AF92AD
:1020A000BF92CF92DF92EF92FF920F931F93CF9345
:1020B000DF9300D000D0CDB7DEB78C01E62EF42E32
:1020C000522E8091650380FF89C0982F9E779230B1
:1020D00061F49E012F5F3F4FC8010E94020F4B81A8
:1020E00069818A810E941E1059C0E82FE695EF731E
:1020F0009EE39E0F9F73943018F4F09068034EC0D7
:102100009AE39E0F9F73993068F4881F8827881F71
:1021100090916603292F220F022F082B97FB11277E
:1021200010F93CC087E28E0F8F738A30B8F5F0E06B
:102130007997E0FD02C021E001C02FEFEE7FE05A69
:10214000F84F859194916FE070E00E94603426030F
:102150004001279F900C1124580188E9A81A8EEF9E
:10216000B80A8AE6C82E83E0D82E98E6692E77242E
:102170007394C501B3010E94603496014F2D6E2DFA
:102180000E94020FA80CB91C84E0C80ED11C86EA7C
:10219000C81683E0D80669F70E940910809165038C
:1021A00000FB87F980936503902F969580916603D5
:1021B0008078892B10FB87F980936603E092670390
:1021C000F0926803552051F06091650370916603A9
:1021D00080916703909168030E94B00F0F900F9059
:1021E0000F900F90DF91CF911F910F91FF90EF9083
:1021F000DF90CF90BF90AF909F908F907F906F9027
:102200005F900895282FE5E6F3E03081331F3327F0
:10221000331F40916603542F550F852F832B47FBA7
:10222000992790F90C9668E671E00E947434438116
:1022300062810C944A1081E00C940211282F309195
:102240006503331F3327331F40916603542F550F07
:10225000852F832B47FB992790F98C3091051CF42F
:10226000845A9E4F05C00C9768E671E00E94743452
:1022700040916803609167030C944A1081E00C94CC
:102280001E11E5E6F3E03081331F3327331F9091B1
:102290006603592F550F97FB992790F9282F4381F3
:1022A0006FEF852F832B0C944A1081E00C94411121
:1022B000E5E6F3E03081331F3327331F9091660347
:1022C000592F550F97FB992790F9282F438160E0EC
:1022D000852F832B0C944A1081E00C945811409167
:1022E0006803242F30E0243F310514F4445F01C01B
:1022F0004FEF30916503331F3327331F90916603EF
:10230000592F550F97FB992790F9282F6091670354
:10231000852F832B0C944A1081E00C946F1140910F
:102320006803242F30E02C30310514F04C5001C0EC
:1023300040E030916503331F3327331F90916603CC
:10234000592F550F97FB992790F9282F6091670314
:10235000852F832B0C944A1081E00C948F1120E080
:102360000C944A10CF939091650390FF40C09178F0
:10237000811102C0926007C0853210F0986403C0DA
:102380008F73880F982B90936503662351F06091AB
:1023900065037091660380916703909168030E94C2
:1023A000B00FC09165036C2F66956F7370E04BE0C2
:1023B00050E084E091E00E948E34892B19F0109255
:1023C0006B0203C081E080936B02CC1FCC27CC1F33
:1023D00090916603892F880F97FB992790F9409178
:1023E0006803609167038C2BCF910C94AF11CF9150
:1023F0000895682F9091650396959F7381E0890FEA
:10240000853208F081E00C94B21181E00C94F9114E
:10241000682F9091650396959F738FEF890F09F44C
:1024200084E20C94B21181E00C94081261E00C94E7
:10243000B211E5E6F3E080818160808386958F7339
:102440000C94161260E00C94B21180916C02811110
:1024500035C080912F03816080932F030E949D23BC
:10246000811104C00E9417240E94C20F0E94AC0F69
:10247000609365037093660380936703909368038A
:102480006E7761F40E94C20F0E94AC0F60936503E7
:102490007093660380936703909368030E94760F9E
:1024A00081E080936B028091650380FF04C0869574
:1024B0008F730E94221281E080936C020895E5E6FA
:1024C000F3E080818E7F808360817181828193813E
:1024D0000E94B00F10926B022FEF80E792E0215024
:1024E00080409040E1F700C000000C9409108091FA
:1024F000650380FD0C945F120C941912CF93E82FA2
:10250000F0E0E45AF84FC4918091690290916A0218
:102510000E943A25EC2FF0E08E179F0708F443C085
:102520000E942E2590936A0280936902609168024E
:1025300070E080E090E00E94613220E030E04FE700
:1025400053E40E9484312BED3FE049E450E40E94C3
:102550008A330E94F7330E94FE312BE43AE34EE2C5
:102560005FE30E94173120EF3BEF48ED52E40E94F9
:102570008A330E943032462F80916503881F882756
:10258000881F90916603292F220F97FB992790F9B6
:1025900060916703822B0E942F108091680290E067
:1025A000019680936802CF910895CF93E82FF0E0D1
:1025B000E75AF84FC49180916602909167020E9499
:1025C0003A25EC2FF0E08E179F07E8F00E942E25A9
:1025D000909367028093660240916803609167035D
:1025E00080916402909165020E942F108091640294
:1025F00090916502019668E671E00E9460349093C4
:10260000650280936402CF910895CF92DF92FF928A
:102610000F931F93CF93DF93F82EE82FE695F0E00A
:10262000EA5AF84FC49180916202909163020E942D
:102630003A25EC2FF0E08E179F07B8F10E942E2567
:1026400090936302809362020AE613E0C0E0D0E058
:1026500088E6C82EDD24D3948091600290916102B7
:102660008C0F9D1FB6010E94603498014091680351
:10267000609167030E94020F68960C5F1F4FC83677
:1026800081E0D80749F70E9409108091600290917B
:102690006102F0FE05C00196BE010E94603401C0D7
:1026A00001979093610280936002DF91CF911F9117
:1026B0000F91FF90DF90CF900895CF92DF92EF922D
:1026C000FF920F931F93CF93DF9380FF02C01FEF02
:1026D00001C011E08695E82FF0E0ED5AF84FC49163
:1026E00080915E0290915F020E943A25EC2FF0E00B
:1026F0008E179F0708F45BC00E942E2590935F02FF
:1027000080935E022AE6E22E23E0F22EC0E0D0E0C3
:10271000F70111821082128294E0C92ED12C00E0C0
:1027200080915D02800F87FD815F082E000C990B60
:10273000C817D907E9F4809168038C9DA0018D9D8D
:10274000500D1124559547955595479580916503F2
:10275000881F8827881F90916603592F550F97FB74
:10276000992790F9970160916703852B0E94020FCA
:10277000010FF1E0CF1AD10899F6219684E0E80E16
:10278000F11CCF30D10521F60E94091080915D0225
:10279000113031F4811102C08EE007C0815005C0B4
:1027A00090E00196BE010E94743480935D02DF9137
:1027B000CF911F910F91FF90EF90DF90CF900895F0
:1027C0000F931F93CF93DF93E82FF0E0E05BF84F78
:1027D000C49180915B0290915C020E943A25EC2F9B
:1027E000F0E08E179F0708F456C00E942E259093A4
:1027F0005C0280935B02CAE6D3E0FE011182108284
:102800001282349683E0E63AF807C1F700E010E060
:1028100080915A02082E000C990B08171907ECF04A
:1028200080910301082E000C990B80179107ACF0E2
:1028300080916503881F8827881F90916603592F10
:10284000550F97FB992790F99E014091680360917D
:102850006703852B0E94020F03C0198218821A8217
:102860000F5F1F4F24960F30110591F60E9409103B
:102870008091020190915A02980F90935A022091F0
:102880000301280F20930301121614F49E301CF04C
:10289000819580930201DF91CF911F910F9108954F
:1028A000EF92FF920F931F93CF93DF938091580283
:1028B000909159020E943A25883E9340D0F10E949F
:1028C0002E259093590280935802C0915602D091C0
:1028D00057022196C170DD27D0935702C09356024C
:1028E0008AE6E82E83E0F82E10E008E7812F86952F
:1028F000FE01E80FF11DCF018170992797014091EA
:10290000680360916703FC010E9FC0010F9F900D4B
:1029100011240E94020F1F5FF4E0EF0EF11C1F3024
:1029200029F7DF91CF911F910F91FF90EF900C94B9
:102930000910DF91CF911F910F91FF90EF900895B3
:10294000CF93DF9300D000D0CDB7DEB78091540293
:10295000909155020E943A25EEE4F7E025913491DA
:1029600082179307C0F18091530281110CC09E0120
:102970002F5F3F4F4FEF6FEF80E090E00E94020F1C
:102980008A81809353020E942E2590935502809352
:10299000540280915202813051F028F0823061F46B
:1029A000409153020AC08091530240E007C06091F9
:1029B000530240E080E003C040E080E060E00E941D
:1029C0001E108091520290E0019663E070E00E9438
:1029D0007434809352020F900F900F900F90DF91FC
:1029E000CF9108950F931F93CF93DF93809150025F
:1029F000909151020E943A25843F914008F448C0CA
:102A00000E942E259093510280935002CAE6D3E093
:102A100000E010E020914E0230914F02809165035A
:102A200090916603073011051CF4232B79F002C046
:102A3000232B61F4881F8827881F592F550F97FB78
:102A4000992790F99E01409168030AC0881F882742
:102A5000881F592F550F97FB992790F99E0140E049
:102A600060916703852B0E94020F0F5F1F4F249612
:102A70000F30110579F60E94091080914E02909155
:102A80004F0201968170992790934F0280934E02D6
:102A9000DF91CF911F910F91089580916B02882350
:102AA000D9F190916503892F86958F732EE3280FB6
:102AB0002F73243018F482500C947E122AE3280FCE
:102AC0002F73233018F486500C94D51227E3280F67
:102AD0002F73263018F489500C94051321E3280F26
:102AE0002F73263018F48F500C945D132BE2280FAF
:102AF0002F73233018F485510C94E013892F8E77AF
:102B0000803311F40C945014863411F40C94A014F6
:102B1000883411F40C94F2140895882319F0519814
:102B2000599A02C0519A59985098589A95E09A9596
:102B3000F1F70000509A589895E09A95F1F7000047
:102B4000882311F0519A599885E08A95F1F7000091
:102B500008958BB18C7F8BB95098589A5198599A97
:102B600085E08A95F1F7000008958AB18C7F8AB9D3
:102B700085E08A95F1F70000519A599885E08A9589
:102B8000F1F70000509A589885E08A95F1F7000017
:102B900008955098589A85E08A95F1F70000519869
:102BA000599A85E08A95F1F700000895CF93DF9355
:102BB000D82FC8E08D2F80780E948D15DD0FC15071
:102BC000C9F780E00E948D1585E08A95F1F7000035
:102BD00085E08A95F1F7000080E0DF91CF910895BC
:102BE0002BB1342F309523233BB1432B3FB7F894BF
:102BF000FC01680F791FE617F70789F0819198E0CB
:102C00004BB9000000C087FF2BB9880F000000C03F
:102C100000C000C02BB900C09A9591F7ECCF3FBF20
:102C20000895AF92BF92CF92DF92EF92FF920F93EF
:102C30001F93CF93DF938C01EB01CFB6D090BC00F4
:102C4000F8948091BC008B7F8093BC000E94A915F2
:102C50000E94B51584E80E94D615CC0FDD1FCC0F5D
:102C6000DD1F78015801AC0EBD1EEA14FB0431F0E3
:102C7000F70181917F010E94D615F7CF0E94C915F7
:102C8000CFBED092BC00579A40E8BE01C801DF9188
:102C9000CF911F910F91FF90EF90DF90CF90BF9059
:102CA000AF900C94F0159093720280937102089586
:102CB000E0917102F0917202309721F00190F08161
:102CC000E02D099480E00895E0917102F091720284
:102CD000309799F020912001222359F02091AC03E4
:102CE00027FF07C0DC012C9111962C93119725E04A
:102CF0002C930280F381E02D09940895E0917102F4
:102D0000F0917202309739F022E0DC012C930480BC
:102D1000F581E02D0994089520916F0230917002A1
:102D20002817390771F09093700280936F02E09139
:102D30007102F0917202309721F00680F781E02D48
:102D40000994089520916D0230916E022817390779
:102D500071F090936E0280936D02E0917102F09198
:102D60007202309721F00084F185E02D09940895D6
:102D700085B7806885BF85B7806885BF0895089549
:102D80000C94BF160C94C0160C94BF160C94BF166E
:102D90000E94B8160E94C4160C94C21681E00895D1
:102DA0000E9425250E9487050E94BC250E942512AD
:102DB0000C94C616BF92CF92DF92EF92FF920F93C0
:102DC0001F93CF93DF93CDB7DEB72A970FB6F89452
:102DD000DEBF0FBECDBF0E9450060E94CE168111ED
:102DE00011C08FEF89838A831B820E942E25816008
:102DF000782F9D838C8349815A816B818D810E94BC
:102E0000BF1754C084E7C82E82E0D82E00E010E03F
:102E1000B02E802F0E948F06E82EF60121916F01BF
:102E2000F82EF22631F40F5F1F4F0E30110581F797
:102E3000D8CF80912F0381FD0E94950680E090E01D
:102E40002F2D30E0482FB901082E02C075956795E7
:102E50000A94E2F760FF25C08E83BF8281E090E094
:102E60006C0102C0CC0CDD1C4A95E2F72E2D30E03F
:102E70002C213D21232B09F480E088870E942E25F8
:102E80008160782F9A8789874E815F8168858A85DE
:102E90000E94BF17F801EC58FD4F80818C2580837C
:102EA00005C001968630910569F6BDCF0E944F2777
:102EB0000E945816909173028917A9F00E94581623
:102EC000809373022A960FB6F894DEBF0FBECDBF73
:102ED000DF91CF911F910F91FF90EF90DF90CF90F6
:102EE000BF900C94FF082A960FB6F894DEBF0FBE71
:102EF000CDBFDF91CF911F910F91FF90EF90DF90A9
:102F0000CF90BF900895DC0111962C9111978C9170
:102F1000682F70E041E050E001C0440F8A95EAF765
:102F200012968C91129730E0882329F080919202BA
:102F30008823E9F006C0F901EE57FD4F90819423F4
:102F4000B1F086E0829FF001839FF00D1124E60F1F
:102F5000F71FEE0FFF1FEF5DFE4F808191818D9374
:102F60009C93F901EE57FD4F8081482B06C0F90173
:102F7000EE57FD4F40958081482340830895CF93BD
:102F8000DF93CDB7DEB72B970FB6F894DEBF0FBE39
:102F9000CDBF942F4F83252F588769877A878B87DA
:102FA0004A855B85452B31F02F3F31F481E09F3F0F
:102FB00019F403C081E001C080E080FD04C0CE01AF
:102FC00007960E948317DE01119686E0FD0111929B
:102FD0008A95E9F785E0FE01379601900D928A9572
:102FE000E1F749815A816B817C818D819E810E94AC
:102FF000841F2B960FB6F894DEBF0FBECDBFDF91B6
:10300000CF910895FC01808191810E945A2292956E
:103010009F70963041F48091920291E089278093CD
:103020009202909391020895CF93882309F424C1CA
:10303000C82F8238C1F40E94581681FD1DC169E372
:1030400080910F01909110010E947F240E94EA223A
:103050002FEF81EE94E0215080409040E1F700C0D6
:10306000000069E319C0833801F50E94581680FDFD
:1030700003C163E580910F01909110010E947F24AC
:103080000E94EA222FEF81EE94E021508040904090
:10309000E1F700C0000063E580910F0190911001FD
:1030A0000E948A24CF910C94EA228438C1F40E94B1
:1030B000581682FDE1C067E480910F0190911001E4
:1030C0000E947F240E94EA222FEF81EE94E021509B
:1030D00080409040E1F700C0000067E4DDCF8CEF56
:1030E0008C0F813A68F48C2F0E9453298111C4C03F
:1030F0006C2F80910F01909110010E947F24D2CFFC
:1031000080E28C0F883048F4C77081E001C0880FDE
:10311000CA95EAF70E949C22C5CF8BE58C0F8330BD
:1031200078F4C53A29F0C63A31F083E890E005C05A
:1031300081E890E002C082E890E0CF910C948C1678
:1031400088E58C0F873108F08FC0C83A09F445C074
:10315000C93A09F445C0CA3A09F445C0CB3A09F462
:1031600045C0CC3A09F445C0CB3B09F445C0CC3B43
:1031700009F445C0CD3A09F445C0C03B09F445C047
:10318000CE3A09F445C0CF3A09F445C0C13B09F431
:1031900045C0C23B09F445C0C33B09F445C0C43B2C
:1031A00009F445C0C53B09F445C0C63B09F445C018
:1031B000C73B09F445C0C83B09F445C0C93B09F405
:1031C00045C0CD3B09F445C0CE3B09F445C0CA3BE0
:1031D00009F445C080E090E044C082EE90E041C038
:1031E00089EE90E03EC08AEE90E03BC085EB90E037
:1031F00038C086EB90E035C083EB90E032C084EBC2
:1032000090E02FC087EB90E02CC08CEC90E029C0C0
:103210008DEC90E026C083E891E023C08AE891E03D
:1032200020C082E991E01DC084E991E01AC081E2EA
:1032300092E017C083E292E014C084E292E011C0F1
:1032400085E292E00EC086E292E00BC087E292E057
:1032500008C08FE690E005C080E790E002C08AE2F7
:1032600092E0CF910C94A216C03F30F08C2F0E94B8
:103270005726CF910C944427CF910895882309F4C1
:1032800064C0823879F40E94581681FF5EC069E3F9
:1032900080910F01909110010E947F240E94EA22E8
:1032A00069E310C08338B1F40E94581680FF4DC006
:1032B00063E580910F01909110010E947F240E948C
:1032C000EA2263E580910F01909110010E948A2407
:1032D0000C94EA22843879F40E94581682FF35C093
:1032E00067E480910F01909110010E947F240E9459
:1032F000EA2267E4E7CF9CEF980F913A10F4682F29
:10330000E1CF90E2980F983050F4877091E001C0BF
:10331000990F8A95EAF7892F0E94A222D9CF9BE5BF
:10332000980F933020F480E090E00C948C1698E590
:10333000980F973120F480E090E00C94A216803F23
:1033400020F00E94BF260C9444270895CF93C82FE5
:103350000E9414188C2FCF910C943E19882321F0D1
:103360000E949C220C94EA220895882321F00E9456
:10337000A2220C94EA2208958F929F92AF92BF925C
:10338000DF92EF92FF920F931F93CF93DF937C0115
:10339000D62FC72FFC01058102950F7012811111E4
:1033A0000E94BC220E949222882379F0112369F0A6
:1033B00080E28D0F883048F082E00E9434230E9422
:1033C000922291E0D82ED92601C0D12CBC2EB294E5
:1033D0008FE0B8228B2D90E0FC01E958FF4F0C9450
:1033E00088348C2F807FCF70882311F0C295C07FE6
:1033F000112399F0CC2309F4BCC180E28D0F8830F1
:1034000010F0D11104C08C2F0E949C2203C08C2F7D
:103410000E94AF220E94EA22ACC18D2F0E943E1969
:10342000CC2309F422C280E28D0F883010F0D11134
:1034300004C08C2F0E94A22203C08C2F0E94B522B0
:103440000E94EA2212C28C2F807FCF70803211F04E
:10345000C295C07FDD2319F0D130C9F021C01123FE
:1034600071F0002341F0013031F40E94CF228C2B07
:103470000E94D722FAC10E94CF228C2B33C1002395
:1034800019F0013009F4F1C10E94E02211C01123AA
:1034900021F0023008F0E9C107C00111E6C108C0FF
:1034A000112321F0011165C18C2F1CC1011172C1C2
:1034B0008C2F1EC18C2F86958695837019F08130D4
:1034C00061F0D3C1112321F08D2F9C2F937002C086
:1034D00080E090E00E948C16D5C1112321F08D2F41
:1034E0009C2F937002C080E090E00E94A216CAC197
:1034F0001123F9F0D53F51F0D63F71F0D43FA9F434
:103500008091A6039091A70381600BC08091A603D0
:103510009091A703826005C08091A6039091A703B4
:1035200084609093A7038093A6038D2F0E94572653
:103530001EC0D53F51F0D63F71F0D43FA9F4809121
:10354000A6039091A7038E7F0BC08091A603909154
:10355000A7038D7F05C08091A6039091A7038B7F61
:103560009093A7038093A6038D2F0E94BF260E94ED
:10357000442788C18C2F837009F04CC011117EC183
:103580002D2F229526952770220F220F6D2F6F70F9
:10359000862F90E0A0E0B0E04C015D01022E04C057
:1035A000880C991CAA1CBB1C0A94D2F7D4FF12C029
:1035B0008FE090E0A0E0B0E004C0880F991FAA1F40
:1035C000BB1F2A95D2F7BC01CD01609570958095FF
:1035D000909503C060E070E0CB01C695C695C370BE
:1035E000C23051F080F4682979298A299B29C13099
:1035F00071F00E94D52042C1682979298A299B2926
:103600000E94E7203BC10E94D520C501B4010E9461
:10361000C32034C1112319F08C2F817001C086950D
:10362000882309F42BC12D2F229526952770220F70
:10363000220F6D2F6F70862F90E0A0E0B0E04C015C
:103640005D01022E04C0880C991CAA1CBB1C0A94A4
:10365000D2F7D4FF12C08FE090E0A0E0B0E004C049
:10366000880F991FAA1FBB1F2A95D2F7BC01CD0155
:10367000609570958095909503C060E070E0CB01F7
:10368000C695C695C370C23051F080F46829792977
:103690008A299B29C13071F00E949A21EFC06829C4
:1036A00079298A299B290E94AC21E8C00E949A218D
:1036B000C501B4010E948821E1C08D2F90E0FC017A
:1036C000E05EF109E531F10508F04FC0E957FF4F21
:1036D0000C948834DF708C2F8F71112331F00E948D
:1036E00021218D2F0E94AE19C0C00E9442218D2F32
:1036F0000E94B519BAC0112339F00111B6C08C2F40
:103700008F710E946721B1C0023008F0AEC0F7CFC0
:10371000112339F08C2F8F710E942121A6C0112313
:10372000C9F38C2F8F710E9442219FC0112329F071
:103730008C2F8F710E940C2198C00E94072195C088
:10374000112349F0CF718C2F0E94212163E08C2F2F
:103750000E941F238AC081E00E943423023008F4B3
:1037600084C082E00E94342380C0112331F0002302
:1037700089F28D2F0E94141878C0002391F2D9335A
:1037800049F4FFEF27EE83E0F15020408040E1F75D
:1037900000C000008D2F0E943E1967C04C2F4F7053
:1037A0006D2FC7010E9431080E9432206BC0D23FAA
:1037B000B1F028F4D03F49F0D13FF9F028C0D43F10
:1037C000B9F058F0D53F71F022C0112309F447C079
:1037D0009091920281E0892708C081E01827109318
:1037E00092023DC011113BC081E08093920237C02C
:1037F000111135C01092920232C0112329F080912C
:103800009102882329F329C0002311F328C0809155
:1038100091020023C1F0882341F09091920281E04F
:10382000892780939202109291028D2F112319F013
:103830000E94141814C00E943E1986E0F7011192EC
:103840008A95E9F70CC0882351F0111108C09091B6
:10385000920281E0892780939202109291024C2F6C
:103860004F706D2FC7010E94B30BF8E0BF1631F007
:10387000BF1640F086EF8B0D823020F40E94581660
:103880000E94FF08DD20E1F00E948E2280FD18C01A
:10389000F70112820E9488220E942121C7010E9402
:1038A0006C1C0E948822DF91CF911F910F91FF9095
:1038B000EF90DF90BF90AF909F908F900C9442213B
:1038C000DF91CF911F910F91FF90EF90DF90BF900C
:1038D000AF909F908F9008950F931F93CF93DF9396
:1038E000EC01988189812B813C81232B31F08F3F22
:1038F00031F481E09F3F19F403C081E001C080E012
:1039000080FD13C0CE010E941109882371F06881E7
:1039100079818A810E9465228C010E94BE210E94C9
:10392000AF20B801CE010E94BC19DF91CF911F9149
:103930000F9108950E94BC220E94CC220E94EA228C
:103940000E94E6270E94442780E090E00E948C16A7
:1039500080E090E00C94A21680910F0190911001EC
:103960000E9495240C949A1C0E94AC220C94AC1CCE
:10397000E92FE295EF704E2F50E0FA013297EE30CA
:10398000F105B0F4E456FF4F0C948834803F91F079
:1039900018F4803E68F40EC0843F51F40BC0803EA2
:1039A00048F0813F29F406C093FB882780F90895E9
:1039B00080E0089581E008950E945A220E94B81C78
:1039C0000895CF93DF9300D000D01F92CDB7DEB71C
:1039D0000F900F900F900F900F90DF91CF9108955F
:1039E000CF93DF9300D000D000D0CDB7DEB72696BE
:1039F0000FB6F894DEBF0FBECDBFDF91CF91089513
:103A00001F93CF93DF93C091930216E080919402AD
:103A1000C81799F0D0E01C9FF0011D9FF00D1124F4
:103A2000EB56FD4F40815181628173818481958184
:103A30000E94F01C2196C770E9CFDF91CF911F91B2
:103A400008954091C5025091C6026091C7027091DD
:103A5000C8028091C9029091CA020C94F01CCF93C5
:103A60008091CA0282958F7009F05FC08091C70271
:103A7000882309F45AC080919302B0919402709106
:103A8000C502A091C6024091C8025091C90291E0BE
:103A90007F3F09F090E0692FC6E08B1709F445C01D
:103AA0004115510521F0AF3F21F020E003C021E096
:103AB00001C0262F90E020FD35C0C89FF001C99FAE
:103AC000F00D1124EB56FD4F21812A132BC02081CC
:103AD000271328C02281211125C023813481241776
:103AE000350710F421503109241B350B283C3105D2
:103AF000C8F42091CA022F7020612093CA0226E0E8
:103B0000289FF001299FF00D1124E656FD4F80817A
:103B10008F708061808385EC92E00E946C1CCF9155
:103B20000C94001D01968770B8CFCF910895AF9285
:103B3000BF92CF92DF92EF92FF920F931F93CF939A
:103B4000DF93CDB7DEB761970FB6F894DEBF0FBE37
:103B5000CDBF8C0185E0F801DE011D9601900D922C
:103B60008A95E1F7D8014C9111965C9111971296C4
:103B7000EC903091C5026091C6028091C80290918C
:103B8000C902009731F06F3F31F421E03F3F19F453
:103B900003C021E001C020E0B22FB170BB2E20FD98
:103BA00060C1F801C380D480A090C702AA2009F4A4
:103BB000EEC02091CA02C816D90628F0D601A81B6B
:103BC000B90BCD0104C0809590958C0D9D1DFF24EF
:103BD000F394883C910580F0F12C207F09F09CC083
:103BE0007C2DD98AC88A6E2D89890E94E11C85ECBA
:103BF00092E00E946C1C2DC1822F807F09F054C07E
:103C0000561314C0431312C0FE2CE1100FC02F70C6
:103C100020612093CA020E94211D85EC92E00E943F
:103C20006C1C8091CA02F80185835CC1CD2831F0FB
:103C30005F3F31F481E04F3F19F403C081E001C0E0
:103C400080E080FD03C081E08E2502C080E090E02E
:103C5000F82FF170FF2E80FF1CC0809193022091FD
:103C6000940236E0821709F41AC190E0389FF001FF
:103C7000399FF00D1124EB56FD4F6181561306C09C
:103C80006081461303C06281E61203C0019687700B
:103C9000E9CFFE2CEE2009F425C18091CA02816093
:103CA0008093CA02F12C1EC1561309C0431307C0EA
:103CB000E11005C08091CA02F8018583A4C04D8738
:103CC0005E878D859E850E94DC1C882379F1EE201D
:103CD00069F12091CA02822F82958F7090E002973D
:103CE00074F08091C5029091C60298878F831986DF
:103CF000DB86CA862C87CE0107960E946C1C86E064
:103D0000F801A5ECB2E001900D928A95E1F70E94CE
:103D10002F1D0E94211D0DC0561771F04D875E8723
:103D20008D859E850E94DC1C81111AC0C8010E94ED
:103D30006C1CFF24F394D6C04313F0CFE110EECFF8
:103D40008091CA02F8018583C8010E946C1C86E03C
:103D5000E5ECF2E0DF011D928A95E9F7FA2CC2C08A
:103D6000EE2021F32091CA02822F82958F7090E07D
:103D700002972CF28091C5029091C6029A838983A2
:103D80001B82DD82CC822E83CE010196B6CFC8166F
:103D9000D90628F0F601E81BF90BCF0104C0809585
:103DA00090958C0D9D1D883C910548F0F12C7C2D43
:103DB000D98AC88A6E2D89890E94E11C4AC0FE2CCE
:103DC000EE2009F4B3CF561333C0431331C0209112
:103DD000CA0220FD24C0822F82958F70482F50E0A8
:103DE00041155105E1F0D80115962C9315974F30E8
:103DF000510549F08F5F982F9295907F822F8F7099
:103E0000892B15968C93C8010E946C1C86E0F801E2
:103E1000A5ECB2E001900D928A95E1F73DC086E0F5
:103E2000F801A5ECB2E001900D928A95E1F75AC035
:103E30004D875E878D859E850E94DC1C81115FCF3A
:103E40008091CA0281608093CA02C8010E946C1CE2
:103E500049C0E5ECF2E086E0DF011D928A95E9F7C2
:103E60001BC0EE2009F462CF4D875E878D859E854D
:103E70000E94DC1CF82E882309F458CF86E0F80154
:103E8000A5ECB2E001900D928A95E1F785EC92E005
:103E90000E9402180E942F1D0E94211D23C04D87E1
:103EA0005E878D859E850E945A22292F22952F702C
:103EB000223028F49F7039F0811105C00BC02430E6
:103EC00028F49F7049F4805E883020F0C8010E9479
:103ED0006C1CBF2CFB2C06C0D80115969C91907FC2
:103EE00091F7F8CF8F2D61960FB6F894DEBF0FBE15
:103EF000CDBFDF91CF911F910F91FF90EF90DF9099
:103F0000CF90BF90AF9008951F93CF93DF93CDB71D
:103F1000DEB72C970FB6F894DEBF0FBECDBF4F8330
:103F2000588769877A878B879C87CE0107960E947E
:103F3000971D8823D1F09F8188852A853B85232B77
:103F400031F08F3F31F481E09F3F19F403C081E0ED
:103F500001C080E080FD47C04F81588569857A8522
:103F60008B859C850E94F01C3EC086E0FE01379642
:103F7000DE01119601900D928A95E1F7FF81E885A7
:103F80006A857B856115710531F0EF3F31F481E081
:103F9000FF3F19F403C081E001C080E080FD23C031
:103FA0002091940230E0C9010196877099274091D1
:103FB000930250E084179507F1F1F983EA837D833A
:103FC0006C8396E0929FD001939FB00D1124AB5665
:103FD000BD4FFE01319601900D929A95E1F78093C5
:103FE00094020E94001D16E0809193029091940229
:103FF000891771F1189FC00111248B569D4F0E94A3
:10400000971D882329F1E09193021E9FF00111244E
:10401000EB56FD4F4081518162817381848195818E
:104020000E94F01C8091930290E00196877099277E
:1040300080939302D9CF0E94B41C109294021092E4
:104040009302E5ECF2E086E0DF011D928A95E9F744
:104050002C960FB6F894DEBF0FBECDBFDF91CF9187
:104060001F910895EF92FF920F931F93CF93DF93C9
:104070008C01892B09F46CC0F12CEE24E394E80147
:104080002196F8018491843740F4843008F051C0BF
:10409000813081F0823019F15BC0853709F444C06A
:1040A000A8F19CE7980F903708F052C08F770E94D4
:1040B0003E1941C00E5F1F4FFE01849190E2980FA0
:1040C000983050F48770FE2D01C0FF0F8A95EAF7F3
:1040D0008F2F0E94BF2214C00E9414182DC00E5FA3
:1040E0001F4FFE01849190E2980F983060F4877022
:1040F000FE2D01C0FF0F8A95EAF78F2F0E94C5227F
:104100000E94EA2219C00E943E1916C00E5F1F4F7E
:10411000FE01C491CC2381F08FE99FE00197F1F774
:1041200000C00000C150F6CF0E5F1F4FFE01F4909B
:1041300003C00E9414188E018F2D882309F49FCF8D
:10414000EFE9FFE03197F1F700C000008150F5CFB3
:10415000DF91CF911F910F91FF90EF9008950895F7
:1041600008950C94B0200C94B1200E94B320609369
:1041700006037093070380930803909309030C943C
:104180009A1C0C94B5200F931F9300910603109175
:1041900007032091080330910903602B712B822BB8
:1041A000932B1F910F910C94B5200F931F930091A7
:1041B000060310910703209108033091090360233F
:1041C0007123822393231F910F910C94B5200F9399
:1041D0001F9300910603109107032091080330916B
:1041E000090360277127822793271F910F910C9451
:1041F000B5200C944B080E94F92060930203709341
:10420000030380930403909305030C949A1C60E0CD
:1042100070E0CB010C94FB200F931F9341E050E022
:1042200060E070E08A019B0104C0000F111F221F93
:10423000331F8A95D2F7C901B8011F910F910C94D1
:10424000FB200F931F9341E050E060E070E004C05A
:10425000440F551F661F771F8A95D2F7809102037E
:1042600090910303A0910403B09105038A019B017F
:10427000082B192B2A2B3B2BC901B8011F910F9139
:104280000C94FB200F931F9341E050E060E070E03E
:1042900004C0440F551F661F771F8A95D2F74095BB
:1042A0005095609570958091020390910303A091C1
:1042B0000403B09105038A019B01082319232A23D3
:1042C0003B23C901B8011F910F910C94FB200F9360
:1042D0001F9341E050E060E070E004C0440F551FC0
:1042E000661F771F8A95D2F780910203909103038E
:1042F000A0910403B09105038A019B0108271927A7
:104300002A273B27C901B8011F910F910C94FB206C
:104310000F931F9300910203109103032091040354
:1043200030910503602B712B822B932B1F910F91E2
:104330000C94FB200F931F93009102031091030331
:10434000209104033091050360237123822393237A
:104350001F910F910C94FB200F931F930091020368
:104360001091030320910403309105036027712706
:10437000822793271F910F910C94FB200895292FDA
:10438000220F920F990F890FE82FE695E695E69593
:10439000877051E001C0550F8A95EAF785E0E89FE4
:1043A000F0011124E553FD4F20E030E070E0408142
:1043B000CB01022E02C0969587950A94E2F7817090
:1043C000819584278523842781932F5F3F4F253054
:1043D000310569F70895292F220F920F990F890F40
:1043E000682F669566956695982F977085E0689F0B
:1043F000B001112440E050E080E0FB01E40FF51F24
:10440000E553FD4F208130E0092E02C036952795F7
:104410000A94E2F721703327042E01C0220F0A9478
:10442000EAF7822B4F5F5F4F4530510531F7089512
:10443000BF92CF92DF92EF92FF920F931F93CF9391
:10444000DF938C01C0900203D0900303E09004033B
:10445000F09005038091060390910703A091080353
:10446000B0910903C82AD92AEA2AFB2ACFE1D0E071
:10447000D701C6010C2E04C0B695A79597958795D0
:104480000A94D2F780FD04C0219790F7B12C07C0A1
:10449000BC2EB8018C2F0E94CF0B0197A9F38B2D56
:1044A000DF91CF911F910F91FF90EF90DF90CF9010
:1044B000BF900895CF93DF93EC010E941822BE01B4
:1044C0000E94CF0BDF91CF9108951F93CF93DF937D
:1044D000EB0190919002992321F0CB010E945A2286
:1044E00013C0882349F0CB010E941822182F682F8F
:1044F000CE010E94BF2104C0CB010E94EB21182FE6
:10450000BE01812F0E94CF0BDF91CF911F910895A3
:1045100080910A03859585958595089580910A0374
:104520008770089590910A03977081E009F480E004
:10453000089580912E03089590912E03892B8093E6
:104540002E030895809590912E03892380932E0346
:10455000089580932E03089510922E03089590914C
:104560002D03892B80932D030895809590912D0321
:10457000892380932D03089510922D03089590911F
:104580002C03892B80932C030895809590912C0304
:10459000892380932C03089510922C030895809111
:1045A0000B03089508950C94D2220C94D322909179
:1045B0000B03981721F080930B030C94D5220895D8
:1045C00080910B03882329F010920B0380E00C9458
:1045D000D5220895E0910F01F091100180912E03F2
:1045E0008083E0910F01F0911001908180912D0363
:1045F000892B8083E0910F01F091100190818091CF
:104600002C03892B808380910B03882381F0E09118
:104610000F01F09110019081892B808380910F010F
:10462000909110010E94192481110E94E022809132
:104630000F01909110010C9464160C94D22298E012
:10464000899F90011124262B20930A030E94212187
:1046500080910A038595859585950C941D2310926C
:104660000A0380E00C941D2320910A038095822385
:1046700080930A03982F977079F430E0482F082E22
:10468000000C550B2417350739F0859585958595D0
:104690000E9442210C942F230895CF92DF92EF9233
:1046A000FF926C01EE24FF24C114D104E104F10453
:1046B00021F0C701B60120E101C020E0C72ED82EAD
:1046C000E92EFF24C114D104E104F10419F0285F9C
:1046D000C701B6016B017C0154E0F694E794D794CE
:1046E000C7945A95D1F7C114D104E104F10419F02B
:1046F0002C5FC701B6016B017C0142E0F694E794A0
:10470000D794C7944A95D1F7C114D104E104F104B8
:1047100019F02E5FC701B601DC01CB01B695A79554
:1047200097958795892B8A2B8B2B09F02F5F822FEA
:10473000FF90EF90DF90CF90089580E090E00E948E
:10474000A93421E08D3E9E4F09F020E0822F08958C
:1047500082E090E00C949B3483E090E00C949B34D6
:1047600084E090E00C949B34682F84E090E00C94FB
:10477000AF34AB01BC018FE090E00C94C134AB01CD
:10478000BC0183E190E00C94C13460E070E0CB01A7
:104790000C94BF2360E070E0CB010E94B9230C941D
:1047A000C5236DEE7EEF80E090E00E94CD3460E0A6
:1047B00082E090E00E94AF3460E083E090E00E94ED
:1047C000AF34109206031092070310920803109260
:1047D000090360E084E090E00E94AF3460E085E08F
:1047E00090E00E94AF3460E086E090E00E94AF3439
:1047F0006FEF87E090E00E94AF3440E050E0BA01F4
:1048000088E090E00E94C13460E08DE090E00E947A
:10481000AF3440E050E0BA0188E190E00E94C1343A
:1048200060E087E190E00E94AF340C94CA230C94BE
:10483000D123FC01329680912001882331F08091B0
:10484000AC0387FF02C09EE101C096E080E091507A
:1048500028F021912223D9F38F5FF9CF08959C018D
:10486000FC0132969FEF80E04191461789F09F3F0F
:1048700019F4411101C0982F8F5F8630A9F79F3F2F
:1048800039F0F901E90FF11D97FDFA95628308955A
:1048900008959C012A5F3F4FFC014281461301C0ED
:1048A0001282019682179307B9F70895262F26954D
:1048B000269526952E3168F4FC01E20FF11D6770F4
:1048C00021E030E001C0220F6A95EAF78281282BAF
:1048D00022830895262F2695269526952E3170F44D
:1048E000FC01E20FF11D677021E030E001C0220FF2
:1048F0006A95EAF7209582812823228308952091E2
:104900002001222329F02091AC0327FD0C9456248A
:104910000C942F2420912001222329F02091AC0314
:1049200027FD0C946A240C94492420912001FC0159
:104930003296222331F08091AC0387FF02C08EE1D2
:1049400001C086E0DF011D928A95E9F70895089578
:104950000C94A724CF930E94AA050E9450060E949F
:10496000A824C0E08C2F0E948F06811104C0CF5F65
:10497000CE30C1F701C081E0CF9108950C94A724F7
:104980000C94BE240E94C0248091B203843049F16B
:104990001092300320E488E190E00FB6F894A895D7
:1049A000809360000FBE2093600080E00E94FF08AB
:1049B0000E94C02483B7817F846083BF83B78160F6
:1049C00083BF7894889583B78E7F83BF0FB6F894A2
:1049D000A8958091600088618093600010926000CB
:1049E0000FBE08950C94A7240E94B41C0E94581670
:1049F0000E94FF080C94F2241F920F920FB60F92A0
:104A000011248F939F93AF93BF93809130038111B3
:104A100013C08091A8039091A903A091AA03B0911B
:104A2000AB034196A11DB11D8093A8039093A903E8
:104A3000A093AA03B093AB03BF91AF919F918F91C5
:104A40000F900FBE0F901F90189582E084BD93E0E9
:104A500095BD9AEF97BD80936E0008952FB7F89497
:104A60008091A8039091A903A091AA03B091AB03F0
:104A70002FBF0895CF92DF92EF92FF920F931F9373
:104A80002FB7F8944091A8035091A9036091AA030D
:104A90007091AB032FBF6A017B01EE24FF248C01D0
:104AA00020E030E0C016D106E206F30610F44150D3
:104AB00051099A01281B390BC9011F910F91FF90D1
:104AC000EF90DF90CF90089578941F920F920FB6D9
:104AD0000F9211248F939F93AF93BF938091A8035C
:104AE0009091A903A091AA03B091AB030196A11DD7
:104AF000B11D8093A8039093A903A093AA03B09338
:104B0000AB03BF91AF919F918F910F900FBE0F900C
:104B10001F901895F89481E08093E00080E28093E4
:104B2000D800E9ECF0E010828FE19EE40197F1F704
:104B300000C000001DBA109268001CBC10BE1FBA55
:104B400010927A0010926E0010926F001092710015
:104B5000109272001082ECEBF0E0108214B817B8DB
:104B60001AB81DB810BA108215B818B81BB81EB8FC
:104B700011BA0C94003F08950E949D23811102C038
:104B80000E9417240E94A82380932F030E94B02321
:104B900090E09093AD038093AC030E94AC23682F08
:104BA00070E080E090E00C94C1208091340380FF9D
:104BB0000BC06091140185E0689FB00111247595C8
:104BC0006795759567952BC081FF09C060911401A9
:104BD00085E0689FB00111247595679520C082FF1C
:104BE00007C06091140185E0689FB001112417C0CF
:104BF000909135039923D1F060911301961788F7AE
:104C00002091140185E0289F90011124929FA0011A
:104C1000939F500D112470E0CA010E9474346038D3
:104C2000710540F46115710519F406C065E070E086
:104C3000862F08958FE7089581E0089580913403C9
:104C400080FF08C06091120170E0759567957595B9
:104C5000679521C081FF06C06091120170E07595D3
:104C6000679519C082FF04C06091120170E010C006
:104C700090913503992399F0609111019617A0F74F
:104C800080911201899FC001112470E00E94743448
:104C90006038710540F46115710519F406C061E0D2
:104CA00070E0862F08958FE7089581E00895803F92
:104CB00021F40E94D525819504C0813F29F40E94EA
:104CC000D525809339030895823F21F40E94D5258C
:104CD000819504C0833F29F40E94D5258093380331
:104CE0000895893F19F40E941E2605C08A3F31F4B9
:104CF0000E941E26819580933A0308958B3F21F4EC
:104D00000E941E26819504C08C3F29F40E941E2615
:104D100080933B030895843F21F4809137038160A1
:104D200017C0853F21F480913703826011C0863F10
:104D300021F48091370384600BC0873F21F4809178
:104D40003703886005C0883F31F480913703806164
:104D50008093370308958D3F21F48091340381605F
:104D60000BC08E3F21F480913403826005C08F3FD9
:104D700029F4809134038460809334030895803F44
:104D800039F48091390387FF6CC01092390369C0F0
:104D9000813F29F4809139031816BCF362C09091C9
:104DA0003803823F29F497FF5CC01092380359C042
:104DB000833F19F41916CCF354C0893F41F4809114
:104DC0003A0318160CF04DC010923A034AC08A3FBD
:104DD00029F480913A0387FF44C0F6CF8B3F39F422
:104DE00080913B0387FF3DC010923B033AC08C3F4C
:104DF00029F480913B031816BCF333C0843F21F49F
:104E0000809137038E7F17C0853F21F4809137034F
:104E10008D7F11C0863F21F4809137038B7F0BC0BB
:104E2000873F21F480913703877F05C0883F31F4A5
:104E3000809137038F7E8093370313C08D3F21F419
:104E4000809134038E7F0BC08E3F21F48091340318
:104E50008D7F05C08F3F29F4809134038B7F809331
:104E600034038091380381110EC080913903811180
:104E70000AC080913A03811106C080913B038111E1
:104E800002C010923503089586E393E00E947E16D7
:104E90000E942E25909332038093310308951F932F
:104EA000CF93DF9380913103909132030E943A2592
:104EB000AC0190913503992321F02091150130E048
:104EC00006C0209133038AE0289F900111244217E5
:104ED000530708F477C080913803C0913903D0910B
:104EE0003A0310913B03811107C0C11167C0D11172
:104EF00065C0111163C066C09F3F19F09F5F90931A
:104F00003503181624F40E94D52580933803809128
:104F1000380387FF05C00E94D5258195809338030B
:104F20001C1624F40E94D5258093390380913903FF
:104F300087FF05C00E94D525819580933903309164
:104F400038033323C1F0209139032223A1F045EB2C
:104F50003403C0011124892F911101C081E0809395
:104F6000380335EB2303C0011124892F911101C0AF
:104F700081E0809339031D1624F40E941E2680933D
:104F80003A0380913A0387FF05C00E941E2681954F
:104F900080933A03111624F40E941E2680933B034B
:104FA00080913B0387FF05C00E941E268195809358
:104FB0003B03DF91CF911F910C9444279F3F09F051
:104FC0009DCFAECFDF91CF911F910895E6E3F3E03F
:104FD00086E0DF011D928A95E9F710923503109261
:104FE00034030895833081F128F4813059F0823000
:104FF000D1F00895853009F449C0B8F1863009F43C
:1050000056C0089580913303262F30E0280F311DBC
:105010002F3F310524F4680F6093330308958FEF19
:1050200080933303089580911501262F30E0280FD7
:10503000311D2F3F310524F4680F60931501089549
:105040008FEF80931501089580911401262F30E091
:10505000280F311D2F3F310524F4680F6093140190
:1050600008958FEF80931401089580911301262FE6
:1050700030E0280F311D2F3F310524F4680F609375
:10508000130108958FEF8093130108958091120109
:10509000262F30E0280F311D2F3F310524F4680FF3
:1050A0006093120108958FEF80931201089580910B
:1050B0001101262F30E0280F311D2F3F310524F438
:1050C000680F6093110108958FEF80931101089587
:1050D000833011F128F4813049F0823091F0089545
:1050E000853081F120F18630C1F10895809133033C
:1050F000681720F4861B80933303089510923303BE
:10510000089580911501681720F4861B809315017E
:10511000089510921501089580911401681720F4E4
:10512000861B8093140108951092140108958091B4
:105130001301681720F4861B8093130108951092C1
:105140001301089580911201681720F4861B809343
:1051500012010895109212010895809111016817AB
:1051600020F4861B80931101089510921101089577
:105170000F931F9341E050E060E070E08A019B01D3
:1051800004C0000F111F221F331F8A95D2F7C901D7
:10519000B8010E94C1201F910F910C94B41C482F9C
:1051A00050E0FA013597EF33F10508F06BC0E65592
:1051B000FF4F0C9488340E94172460C080912F0305
:1051C000817F8E7F80932F0381E080933D0308953C
:1051D0000E94B41C2FEF83ED90E32150804090405B
:1051E000E1F700C000000E948A2548C080912F038B
:1051F000982F9095917090FB80F980932F039111D7
:105200003DC0897F877F10C080912F0381FB2227BB
:1052100020F991E0922790FB81F980932F03992345
:1052200069F180912F03816080932F0327C08091C3
:105230002F0382FB222720F991E0922790FB82F92D
:10524000ECCF80912F0383FB222720F991E0922756
:1052500090FB83F9E2CF0E94B41C8091AC0387FBE2
:10526000222720F991E0922790FB87F98093AC03E5
:1052700005C0895301C08D510E94B82881E008956E
:1052800080E0FACF80E0089580E008950C944429EE
:105290008E518A3030F4E82FF0E0E753FE4F8081E2
:1052A000089580E00895CF93C82F80913D03813009
:1052B00071F018F08230E1F184C00E9499228131AE
:1052C00051F00E949922823209F07DC004C00E94F0
:1052D0009922813149F48C2F0E944629811109C0FD
:1052E0008C2F0E94CF2822C00E949922823221F462
:1052F000F2CF81E090E01AC08C2F0E9444298111E6
:1053000014C0C43179F048F4CB3079F0C03109F0E1
:105310005EC082E080933D0308C0C93219F0C833F3
:1053200021F055C010923D0352C081E0817051C000
:10533000C93279F108F5C43161F1A0F4C73009F040
:1053400044C01092330384E180931501C09314018B
:105350008CE38093130188E08093120188E28093AC
:10536000110133C082EE8C0F863078F58C2F0E94AD
:10537000482980933C0329C0CE34E9F020F4CB3493
:1053800021F56AE013C0C13579F0C235F1F461E06E
:105390000DC080913C03882319F010923C0315C086
:1053A00081E080933D0315C061E006C080913C031D
:1053B0000E94F2270AC06AE080913C030E9468289C
:1053C00004C010923D0380E004C081E002C080E090
:1053D000ADCFCF91089580915E0308950F931F93F1
:1053E000CF93DF9300D01F92CDB7DEB78C010E9420
:1053F0005C2C823011F0843021F584E089831B839A
:105400000A8382E08093E9008FEF9091E800815059
:1054100095FD06C095ED9A95F1F700008111F5CF45
:105420008091E80085FF0DC040E050E063E070E04F
:10543000CE0101960E94792C8091E8008E778093AE
:10544000E8000F900F900F90DF91CF911F910F9177
:105450000895CF93DF9300D01F92CDB7DEB7209190
:10546000B203243031F523E02983805891099B83CE
:105470008A8382E08093E9008FEF9091E800815069
:1054800095FD06C095ED9A95F1F700008111F5CFD5
:105490008091E80085FF0DC040E050E063E070E0DF
:1054A000CE0101960E94792C8091E8008E7780933E
:1054B000E8000F900F900F90DF91CF910895CF9358
:1054C000DF93EC010E945C2C823011F08430F9F4FF
:1054D00082E08093E9008FEF9091E800815095FD84
:1054E00006C095ED9A95F1F700008111F5CF8091F6
:1054F000E80085FF0CC040E050E066E070E0CE01BF
:105500000E94792C8091E8008E778093E800DF91EB
:10551000CF910895CF93DF93EC010E945C2C8230F1
:1055200011F08430D9F580912001882339F08091E1
:10553000AC0387FF03C060E282E002C068E081E064
:105540008093E9008FEF9091E800815095FD06C0AF
:1055500095ED9A95F1F700008111F5CF8091E80063
:1055600085FF1CC080912001811105C040E050E002
:1055700068E070E003C070E040E050E0CE010E94BF
:10558000792C8091E8008E778093E80080E2FE011C
:10559000AEE3B3E001900D928A95E1F7DF91CF91F0
:1055A00008958091B103811109C00E940A2E0E94C2
:1055B000672E8091E20084608093E200089510924B
:1055C000B1030895089508950C94F42442E061EC29
:1055D00081E00E94832D42E261EC82E00C94832DF5
:1055E0008091B403833009F460C030F4813071F0ED
:1055F000823009F499C008958A3009F485C08B304F
:1056000009F46BC0893009F0A7C020C08091B303B2
:10561000813A09F0A1C08091E800877F8093E8007B
:105620008091B7039091B803892B21F460E28EE357
:1056300093E003C060E080E090E070E00E94C42C42
:105640008091E8008B778093E80008958091B30300
:10565000813209F081C08091B7039091B80302971D
:1056600008F07AC08091E800877F8093E8008091FD
:10567000E80082FD05C08091B2038111F8CF6CC0B3
:105680002091F3008091F20090E0922B029729F490
:105690008091F1008B7F813021F48091F100809323
:1056A0005E038091E8008B7753C08091B303813A09
:1056B00009F052C08091B7039091B803892B09F08B
:1056C0004BC08091E800877F8093E8008091E800DC
:1056D00080FFFCCF8091200136C08091B3038132DE
:1056E000D9F58091B7039091B803892BA9F58091E2
:1056F000E800877F8093E8000E94B82D8091B50371
:10570000809320010C94B41C8091B303813221F565
:105710008091E800877F8093E8000E94B82D8091F7
:10572000B60380935F0308958091B303813AA1F497
:105730008091E800877F8093E8008091E80080FFF7
:10574000FCCF80915F038093F1008091E8008E7719
:105750008093E8000C94B82D089584B7877F84BFA8
:105760000FB6F894A89580916000886180936000DE
:10577000109260000FBE80E880936100109261007B
:105780000E94C8160E940A2E0E94672E8091E20095
:1057900084608093E20078940E94FC300E94D016CE
:1057A00086E191E00E9453168091B203853069F43E
:1057B0000E94C2248091B0038823B1F30E94AA24DE
:1057C000882391F30E94632CEFCF0E94DA160E9487
:1057D0004D15EACF0C94EC2B292F332723303105BC
:1057E000C9F060F42130310581F02230310509F033
:1057F0004AC08BE390E024EA38E049C02132310509
:1058000011F12232310579F13EC082E190E02FEDB5
:1058100038E03DC099278130910561F040F0823039
:10582000910559F0039779F5EAE6F8E008C0E0EA57
:10583000F8E005C0E8E8F8E002C0E0E7F8E08491AD
:1058400090E09F0124C06115710541F06130710540
:10585000D1F489E090E02FEC38E019C089E090E0C5
:1058600026EB38E014C06115710541F06130710517
:1058700051F480EC90E021EF38E009C080E490E042
:1058800021EB39E004C080E090E020E030E0FA0154
:105890003183208308950895CF93C82F0E944B2C05
:1058A000C0936003CF9108958091B203843011F0CA
:1058B00081E0089582E0089580916003811102C023
:1058C0000C94542C089580E189BD82E189BD09B40E
:1058D00000FEFDCF8091D8008F7D8093D80080910D
:1058E000E00082608093E0008091E00081FDFCCFC9
:1058F0000895CF92DF92EF92FF920F931F93CF9371
:10590000DF93EC018B017A010E94D72D811133C006
:10591000E114F10439F0F70180819181081B190B22
:10592000C80FD91FC12CD12C0115110519F1809177
:10593000E80085FD16C08091E8008E778093E8002E
:10594000E114F10449F0F70180819181C80ED91E5C
:10595000D182C08285E00FC00E94D72D882321F319
:105960000AC089918093F10001501109FFEFCF1A0D
:10597000DF0ADACF80E0DF91CF911F910F91FF9086
:10598000EF90DF90CF9008952091B9033091BA0342
:105990002617370748F06115710539F42091E800A2
:1059A0002E772093E80001C0B901FC0120E06115C9
:1059B000710579F18091B2038823F1F18530F1F11D
:1059C0008091E80083FD3CC08091E80082FD2EC0FC
:1059D0008091E80080FFEBCF2091F3008091F200EE
:1059E00090E0922B6115710551F08830910538F4E3
:1059F00021912093F100615071090196F3CF21E0CC
:105A0000089709F020E08091E8008E778093E80005
:105A1000CECF2111CFCF0AC08091B203882361F08D
:105A2000853061F08091E80083FD0AC08091E80034
:105A300082FFF2CF80E0089582E0089583E0089528
:105A400081E008952091B9033091BA0326173707F2
:105A500048F06115710539F42091E8002E77209304
:105A6000E80001C0B901FC0120E06115710591F168
:105A70008091B203882309F440C0853009F43FC007
:105A80008091E80083FD3DC08091E80082FD2FC039
:105A90008091E80080FFE9CF2091F3008091F2002F
:105AA00090E0922B6115710559F08830910540F412
:105AB00024912093F1003196615071090196F2CF43
:105AC00021E0089709F020E08091E8008E7780932C
:105AD000E800CBCF2111CCCF0AC08091B20388233C
