:100000000C9427040C9444040C9444040C9444046D
:100010000C9444040C9444040C9444040C94440440
:100020000C9444040C9444040C946E2D0C94402EB7
:100030000C94C8230C9444040C9444040C9444047D
:100040000C9444040C9444040C9444040C94440410
:100050000C9444040C9430240C9444040C944404F4
:100060000C9444040C9444040C9444040C944404F0
:100070000C9444040C9444040C9444040C944404E0
:100080000C9444040C9444040C9444040C944404D0
:100090000C9444040C9444040C9444040C944404C0
:1000A0000C9444040C9444040C9444049C049F0455
:1000B000A204A504A804AB04AE04D407D907E3073F
:1000C000D707DC07E107DF07120914091F09160922
:1000D00018091A091C091E092109230925093009D3
:1000E000270929092B092D092F093209F118F118BF
:1000F000231923195A197819D71A351BBA19351B20
:100100005D1A5D1ACE1A351B351B2F1B6A1A6A1A27
:100110006A1A6A1A6A1A6A1A6A1A6A1A6A1A6A1ABF
:100120006A1A6A1A6A1A6A1A6A1A6A1A7B1A881A80
:100130008F1A961AA01AC81BC81BDA1BDA1BD11B10
:10014000DA1BDA1BDA1BC81BC81BD61BDA1BDA1B2F
:10015000D61BAD2ED42ECC2FD42ECC2F202F432F18
:10016000CC2F9A2FA92F07634236B79BD8A71A39ED
:10017000685618AEBAAB558C1D3CB7CC5763BD6DF5
:10018000EDFD753EF6177231BF000000803F05A8F7
:100190004CCDB2D44EB93836A9020C50B9918688EC
:1001A000083CA6AAAA2ABE000000803F6572676FBD
:1001B000646F785F657A2F64656661756C74204042
:1001C00020302E362E3232302D322D6731333461CD
:1001D00036392D6469727479006572676F646F785F
:1001E0005F657A2F64656661756C74204020302EDF
:1001F000362E3232302D322D673133346136392D7F
:100200006469727479000000F0A135002B000100D0
:10021000E100E00000001E00140004001D00E300E7
:100220004E411F001A0016001B0001000064200050
:1002300008000700060001002C002100150009003D
:10024000190000674B00220017000A00050000009B
:100250004A00490034000000290000004D00E3007E
:100260002F0200004C000000010023001C000B00C6
:10027000110000004600240018000D00100050007E
:10028000010025000C000E00360051002A00260057
:1002900012000F003700520028002700130033001F
:1002A00038004F0000422D002E005300590001512C
:1002B00000000100010001000100010000003A00FF
:1002C000010001000100010001003B0001000100EC
:1002D0000100010001003C00310036020100010074
:1002E00001003D00310237020100010001003E0023
:1002F00001000100010000000100010001000000F8
:1003000001000000010001000100000001000000E8
:1003100001003F0001000100010000000100400059
:100320002F0226022F0001000100410030022702A7
:100330003000010001004200010001000100010045
:100340000100430001000100010001000100440020
:100350004500010001000100000001000100010052
:1003600003510100000001000100E080E280010073
:1003700001000100E880EB800100010001000100A4
:10038000E980EA80E780010001000100010001002E
:100390000100010001000100010001000100000056
:1003A0000100010001000000010000000100010047
:1003B0000100000001000000010001000100010037
:1003C0000100000001000100F980FB80FC800100B9
:1003D00001000100EE80EF8001000100010001003A
:1003E000F480010001000100010001000100010092
:1003F00001000100010001000100010001000100F5
:100400000000010001000100035101000000010093
:100410000100C080C280010001000100C880CB80C3
:100420000100010001000100C980CA80C7800100ED
:1004300001000100010001000100010001000100B4
:1004400001000100010000000100010001000000A6
:100450000100000001000100010000000100000097
:100460000100010001000100010000000100010085
:10047000D980DB80DC80010001000100CE80CF80CC
:100480000100010001000100D48001000100010011
:100490000100010001000100010001000100010054
:1004A0000100010001000100000000000000000048
:1004B00000002A2B280000000000000000000000BF
:1004C000000000000029000000002C1E3420212222
:1004D00024342627252E362D3738271E1F2021228B
:1004E000232425263333362E37381F040506070804
:1004F000090A0B0C0D0E0F101112131415161718F4
:10050000191A1B1C1D2F3130232D35040506070831
:10051000090A0B0C0D0E0F101112131415161718D3
:10052000191A1B1C1D2F3130354C00000000000033
:1005300000000000000000000000000000000000BB
:1005400000000000000000000000000101010101A6
:100550000100010101010000000000000000000096
:100560000000000001000100010101010101010181
:10057000010101010101010101010101010101016B
:100580000101010101000000010100000000000064
:10059000000000000000000000000000000000005B
:1005A0000000000000010101010000047F3F1F6402
:1005B0003214643214783C1E1E140A056801F000DF
:1005C000B40078005A0000000000000101010101A0
:1005D00001010101020202020202020202030303FC
:1005E00003030303030404040404040505050505CB
:1005F0000606060606070707070808080809090986
:100600000A0A0A0A0B0B0B0C0C0C0D0D0D0E0E0F2B
:100610000F0F1010111111121213131414151516B7
:10062000161717181819191A1A1B1C1C1D1D1E1F26
:100630001F20202122222324252526272728292A76
:100640002B2B2C2D2E2F2F3031323334353636379D
:1006500038393A3B3C3D3E3F40414243444647489F
:10066000494A4B4C4D4F50515253555657585A5B6F
:100670005C5E5F606263646667696A6C6D6E707110
:1006800073747678797B7C7E8081838486888A8B7C
:100690008D8F91929496989A9B9D9FA1A3A5A7A9AF
:1006A000ABADAFB1B3B5B7B9BBBDBFC1C4C6C8CAA6
:1006B000CCCFD1D3D6D8DADCDFE1E4E6E8EBEDF05D
:1006C000F2F5F7FAFCFF04033000000016034500C2
:1006D000720067006F0044006F0078002000450042
:1006E0005A00000016034500720067006F004400C6
:1006F0006F007800200045005A0000000403090440
:1007000009023B00020100A0FA09040000010301F4
:1007100001000921110100012240000705810308A1
:10072000000A090401000103000000092111010071
:100730000122C0000705820320000A1201100100F7
:10074000000008EDFE071301000102030105010985
:1007500002A10185020901A1000509190129051558
:10076000002501950575018102950175038101053B
:1007700001093009311581257F9502750881060927
:10078000381581257F950175088106050C0A380208
:100790001581257F950175088106C0C00501098076
:1007A000A10185031601002603001A81002A830097
:1007B000751095018100C0050C0901A10185041681
:1007C0000100269C021A01002A9C027510950181E5
:1007D00000C005010906A1018505050719E029E703
:1007E00015002501950875018102050819012905E3
:1007F0009505750191029501750391010507190091
:1008000029EF1500250195F075018102C005010948
:1008100006A101050719E029E715002501950875CE
:1008200001810295017508810105081901290595C5
:1008300005750191029501750391010507190029BC
:10084000FF150026FF00950675088100C0001124E1
:100850001FBECFEFDAE0DEBFCDBF11E0A0E0B1E018
:10086000ECE9F7E602C005900D92A43DB107D9F777
:1008700023E0A4EDB1E001C01D92AA3BB207E1F76D
:100880000E94962A0C94CC330C94000080B38C7098
:1008900080BB81B3836F81BB089584B1807F84B9AD
:1008A00085B1807F85B98AB1837F8AB98BB1837F17
:1008B0008BB93E9846980895CF93E82F873090F5EE
:1008C0008091000190910101892B09F049C0CE2F40
:1008D00064E670E080E40E94CD059093010180936E
:1008E0000001892BD1F464E670E082E10E942406C5
:1008F0009093010180930001892B79F481E090E0CD
:1009000001C0880FCA95EAF764E670E080950E94FE
:100910002406909301018093000184E690E0CF913A
:100920000C94790690E0FC013797E730F105C0F4AC
:10093000EA5AFF4F0C947133209A289811C0219ADB
:1009400029980EC0229A2A980BC0239A2B9808C087
:10095000529A5A9805C0539A5B9802C03E9A46989C
:10096000CF91089508950C94B204CF93DF930E9421
:100970000B0790E090930101809300010E944D04C9
:100980000E944604E7E3F2E0A9E2B2E085ED91E0DF
:1009900011921D92EC0126E019922150E9F706967A
:1009A00022E0E534F207A1F7DF91CF910C944B08D8
:1009B0000E940B0790E090930101809300010E9438
:1009C0004D040E944604E7E3F2E0119282E0E53430
:1009D000F807D9F70895CF93DF93E62FF0E0E75DAE
:1009E000FD4F40814827808386E0689FF0011124F5
:1009F000EB52FE4F20E030E080E061E070E050E03C
:100A0000AAE0B22F9081992319F09150908307C0EA
:100A1000EB01022E01C0CC0F0A94EAF78C2BEA01FD
:100A200002C0D595C795BA95E2F7C0FDA0832F5FA8
:100A30003F4F31962630310521F7DF91CF91089550
:100A4000CF93DF93D82F873008F040C0809100010A
:100A500090910101892B09F042C064E670E080E4C6
:100A60000E94CD059093010180930001892B11F024
:100A7000C0E027C064E670E083E10E942406909302
:100A8000010180930001892B99F764E670E081E40D
:100A90000E94CD059093010180930001892B41F7BD
:100AA00084E690E00E94540697FF05C090930101F0
:100AB00080930001DDCFC82FC095109201011092E4
:100AC000000184E690E00E9479060AC08FB1CFB1A0
:100AD000C07FC695C6958370C82BC09501C0C0E085
:100AE0006D2F8C2F0E94EB04ED2FF0E0E95CFD4FA1
:100AF000282F2095908192238C23892BDF91CF91F1
:100B000008950F931F93CF93DF93809100019091ED
:100B10000101892B91F08091D4018F5F8093D401E2
:100B200081110BC00E940B0790E09093010180930C
:100B30000001892B11F40E949D0607E312E0C0E03A
:100B40008C2F0E945C04D7E0DC0F8D2F0E945C0488
:100B50008C2F0E942005F80181938F018D2F0E9418
:100B60002005F80186830E944D04CF5FC73041F70E
:100B70000E94550881E0DF91CF911F910F91089558
:100B8000E82FF0E0E95CFD4F808108950895109210
:100B9000B9008CE08093B8000895EF92FF920F9314
:100BA0001F93CF93DF93182FEB011092BC0084EAC0
:100BB0008093BC000E94FA237C018091BC0087FDD9
:100BC0000EC0CF3F8FEFD807C1F30E94FA238E19D2
:100BD0009F098C179D0788F38EEF9FEF2EC08091A1
:100BE000B900887F883041F08091B900887F8031DA
:100BF00019F08FEF9FEF21C01093BB0084E8809322
:100C0000BC000E94FA238C018091BC0087FD0CC0BF
:100C1000CF3F8FEFD807C1F30E94FA23801B910BBF
:100C20008C179D0788F3D8CF8091B900887F8831D1
:100C300011F08034F1F680E090E0DF91CF911F91C8
:100C40000F91FF90EF9008950F931F93CF93DF9331
:100C5000EB018093BB0084E88093BC000E94FA23E0
:100C60008C018091BC0087FD0EC0CF3F8FEFD8076D
:100C7000C1F30E94FA23801B910B8C179D0788F308
:100C80008EEF9FEF0CC02091B900287F81E090E0AB
:100C9000283211F480E090E0919581959109DF91DF
:100CA000CF911F910F9108950F931F93CF93DF93CF
:100CB000EC0184E88093BC000E94FA238C018091AF
:100CC000BC0087FD0EC0CF3F8FEFD807C1F30E9455
:100CD000FA23801B910B8C179D0788F38EEF9FEFF3
:100CE00003C08091BB0090E0DF91CF911F910F91E5
:100CF00008950F931F93CF93DF93EC0184E98093C2
:100D0000BC000E94FA238C018091BC0084FF0EC0BD
:100D1000CF3F8FEFD807C1F30E94FA23801B910BBE
:100D20008C179D0788F38EEF9FEF02C080E090E064
:100D3000DF91CF911F910F91089556985E98259855
:100D40002D9826982E9827982F988FEF90E09093C3
:100D500089008093880090938B0080938A00909301
:100D60008D0080938C00259A2D9A2FEF80E792E0DA
:100D7000215080409040E1F700C00000269A2E9A52
:100D80002FEF80E792E0215080409040E1F700C0D3
:100D90000000279A2F9A2FEF80E792E021508040A1
:100DA0009040E1F700C0000025982D982FEF80E7D4
:100DB00092E0215080409040E1F700C0000026986A
:100DC0002E982FEF80E792E0215080409040E1F78D
:100DD00000C0000027982F9856985E9825982D9867
:100DE00026982E9827982F98089589EA8093800056
:100DF00089E08093810024982C983F988AB18F7C59
:100E00008AB96E98479A8BB180638BB9769A0E94A3
:100E10009D060C94930780E290E0909301018093EB
:100E200000018091450281110EC00E94C70581E03A
:100E3000809345022FEF83ED90E321508040904056
:100E4000E1F700C0000064E670E080E40E94CD0598
:100E50009093010180930001892B09F050C064E652
:100E600070E080E00E9424069093010180930001CD
:100E7000892B09F044C064E670E080E00E942406FB
:100E80009093010180930001892BC9F564E670E01D
:100E90008FE30E9424069093010180930001892B27
:100EA00071F584E690E00E94790664E670E080E4E3
:100EB0000E94CD059093010180930001892BF9F4E4
:100EC00064E670E08CE00E94240690930101809318
:100ED0000001892BA1F464E670E080E00E94240602
:100EE0009093010180930001892B49F464E670E03E
:100EF0008FE30E942406909301018093000184E611
:100F000090E00E947906809100010895611108C067
:100F1000FC018281882321F089ED91E00E9448083C
:100F200080E090E0089584E00C94BC0DFB01873EC6
:100F30002CE5920769F0883E2CE5920789F0863E01
:100F40009C45B1F482818823A1F00E94E3220EC067
:100F50008281882371F08CEA91E00E94480806C0E3
:100F60008281882331F081E00E942C1180E0089575
:100F700081E00895CF92DF92EF92FF926B017C01A6
:100F80000E94252256985E9825982D9826982E988E
:100F900027982F9890E0FC013197E730F105A8F4ED
:100FA000E35AFF4F0C947133259A2D9A0EC0259A5F
:100FB0002D9A269A2E9A09C0259A2D9A04C0259A10
:100FC0002D9A269A2E9A279A2F9AC701B601FF903A
:100FD000EF90DF90CF90089581E008950C949607EC
:100FE000CF9390E0FC01E655FB4FC491FC01E65D18
:100FF000FA4F8491882359F081EE0E9414178C2FA8
:101000000E9414178C2F0E943E1881EE04C08C2F72
:101010000E9414178C2FCF910C943E180F931F939E
:10102000CF93DF93EC01062FFE018491882359F1C1
:101030009E012F5F3F4F813041F4E901F901149186
:10104000812F0E941417812F0DC0823031F4E901E5
:10105000F90184910E9414170AC0833031F4E90128
:10106000F90184910E943E1802C00E94F007219667
:10107000802F8823C9F2EFE9FFE03197F1F700C034
:1010800000008150F6CFDF91CF911F910F9108950D
:1010900060E00C940E080E947522811102C00E942B
:1010A000E3220E94A60D0C94F5060C94B304282F9D
:1010B0002F7041F0822F90E02A3010F44D96089561
:1010C0000697089587E290E0089508950C946508C6
:1010D0000C94660808950E94B41B0E946A082FEFC2
:1010E00084E39CE0215080409040E1F700C0000084
:1010F0000C945624FF920F931F93CF93DF938C0190
:10110000FC01C081D18180918F02811113C0828145
:10111000882349F0CE010E941521F82E682FCE01B8
:101120000E94BC2004C0CE010E94E820F82EBE011F
:101130008F2D04C0CE010E941521BE010E94150B07
:10114000EC01B8010E94EE07882309F466C2B801D9
:10115000CE010E94250E882309F45FC2CC3CFCE539
:10116000DF0741F4F8018281882309F456C20E9406
:10117000060F53C2CD3C8CE5D80708F01EC1C43C15
:101180009CE5D90761F4F8018281882309F445C2FE
:101190000E94E6218272E1F40E9429113EC2C53C00
:1011A000ECE5DE0708F0C7C0C531FCE5DF0798F0C5
:1011B000C23CFCE5DF0709F48CC008F492C0F801DA
:1011C0008281882309F429C20E94E621827221F7D4
:1011D0000E941B1122C2C2308CE5D80708F452C00D
:1011E000F8018281882309F459C00E947522811177
:1011F00002C00E94E3220E94882290E09093AC03F8
:101200008093AB03FE01E350FC45E231F10530F47D
:10121000EC59FF4F8091AB030C9471338091AB0379
:10122000816027C0826025C0846023C0806121C0A6
:1012300080621FC080641DC080681BC0846088609D
:1012400018C08E7F16C08D7F14C08B7F12C08F7E1A
:1012500010C08F7D0EC08F7B0CC08F770AC08B7F34
:10126000877F07C087FB222720F991E0922790FB18
:1012700087F98093AB038091AB030E948C220E947C
:10128000B41BCBC1C1159CE5D90781F0C130DC4549
:10129000A9F081E080934B0280934C02C801DF915A
:1012A000CF911F910F91FF900C94EC07F801828170
:1012B000882309F4B2C10E946B08AFC1F801828192
:1012C000882309F4AAC180912E03816080932E03A4
:1012D000A4C1F8018281882309F49FC10E9484116E
:1012E0009CC1C631DC45A9F60E94E621982FF80181
:1012F000828120910F0130911001882379F09A7A30
:1013000081E009F480E080934602911102C069E215
:1013100001C065E3C9010E944B230AC080914602C7
:10132000811102C069E201C065E3C9010E94562330
:101330000E94B32172C1F8018281C83CFCE5DF073D
:1013400031F4882309F469C10E94821066C1C93C46
:101350009CE5D907C8F4C63CECE5DE0731F48823E8
:1013600009F45BC10E94541058C1C73CDC4530F4FD
:10137000882309F452C10E9431104FC1882309F417
:101380004CC10E946B1049C1CA3C9CE5D90731F49D
:10139000882309F442C10E94C2103FC1CB3CDC4506
:1013A00030F4882309F439C10E94A21036C1882381
:1013B00009F433C10E94F10E30C1C43DFCE5DF07E2
:1013C00091F4F8018281882309F427C10E94E80E74
:1013D000893128F00E94E80E823208F4F9CE89E1C2
:1013E0000E942C111AC1C53D8CE5D80708F068C0D1
:1013F000F8018281C03DFCE5DF0771F4882309F420
:101400000CC10E94E80E893028F00E94E80E8E3050
:1014100008F4DECE89E0E4CFC13D9CE5D90740F574
:10142000CE3CECE5DE0771F4882309F4F6C00E9497
:10143000E80E823028F00E94E80E853008F4C8CE0D
:1014400082E0CECFCF3CDC4528F4882309F4E5C008
:1014500081E0C6CF882309F4E0C00E94E80E863000
:1014600028F00E94E80E883008F4B2CE86E0B8CFAB
:10147000C23D9CE5D90771F4882309F4CEC00E94CF
:10148000E80E853128F00E94E80E873108F4A0CEDE
:1014900085E1A6CFC33DDC4570F4882309F4BDC0C7
:1014A0000E94E80E8F3028F00E94E80E843108F484
:1014B0008FCE8FE095CF882309F4AFC088E190CF1D
:1014C000C83DFCE5DF0759F5F8018281882361F00A
:1014D00010924C020E94FA2390934A028093490290
:1014E00080E20E94AE1899C080914C02882321F0BE
:1014F00080E20E94B51891C08091490290914A0201
:101500000E940624883C910598F780E20E94B51855
:1015100088E20E94141788E20E943E187EC0C93DEE
:101520008CE5D80708F058C0F8018281C63DFCE57B
:10153000DF0751F5882351F010924B020E94FA23E5
:10154000909348028093470282E0CBCF0E94E6212D
:1015500085FF05C081E080934B0280934C0280910F
:101560004B0281110FC080914702909148020E9466
:101570000624883C910530F486E20E94141786E226
:101580000E943E1882E0B5CFC73DDC4528F4882391
:1015900009F443C083E224CF81119ACF0E94E6214F
:1015A00081FF05C081E080934B0280934C028091C3
:1015B0004C0281119DCF8091490290914A020E9474
:1015C0000624883C910508F093CF87E20E94141707
:1015D00087E20E943E188CCFCC3DECE5DE0741F45B
:1015E000F80182818823C9F082E00E94352B15C062
:1015F000CD3DFCE5DF0739F4F8018281882369F0ED
:101600000E94E3220AC0CB3DDC4509F042CEF8013E
:101610008281882311F080E0E8CF80E0DF91CF91D4
:101620001F910F91FF900895089524E5829FC001B6
:101630001124FC0126E0729FE00DF11D1124E60F3C
:10164000F11DEE0FFF1FE65FFD4F85919491089508
:10165000880F991FFC01EA5FFD4F859194910895D1
:10166000CF93DF930E94150B0E94F00CEC018115C3
:10167000904508F041C0C11580E4D80708F02DC19D
:10168000C83ED10510F5C03ED10508F0A5C1C83A45
:10169000D10578F4C53AD10508F0A7C0C130D1050D
:1016A00009F49AC108F44BC1C430D10508F094C1C3
:1016B00046C1CF3BD10508F4A3C0C03CD10508F416
:1016C0003EC1CE01805C9109FAC0C11590E2D907F4
:1016D00058F4C11521E0D20708F07EC1C03FD10502
:1016E00008F42DC1D06578C1C11580E3D80708F092
:1016F000EAC0CE019F70E3C0C11595E5D90708F097
:1017000044C0C11524E5D20708F0FEC0C11582E52A
:10171000D80710F5C11591E5D90708F0E1C0CE0151
:1017200074E0969587957A95E1F7282F23703C2FE2
:10173000337081E090E002C0880F991F3A95E2F77C
:101740009C68922BCF70C695C69520E2C29FE0019F
:101750001124C82BD92B40C19E01237033278C2F15
:1017600086958695C115D34508F0BFC0C1E0D0E08D
:1017700002C0CC0FDD1F2A95E2F720E2829FC00154
:101780001124C82BD92BDC6827C1C1152AE5D20743
:10179000A0F4C11589E5D80708F0C1C0C11596E5C8
:1017A000D90708F4B6C0C11528E5D20708F4C7C0A8
:1017B000DC2FCC27C06FD06A0FC1C1158BE5D807CD
:1017C00008F4BDC0C1159CE5D90708F4B5C0CE0129
:1017D00090568115904208F0B2C08D2F8F710E94F3
:1017E0006C0DDD27D0628F71A5C0C53AD10509F413
:1017F000A9C0C63AD10509F0A8C0C2E8D0E4ECC03F
:10180000C83AD10509F4A4C0C93AD10509F4A3C066
:10181000CA3AD10509F4A2C0CB3AD10509F4A1C056
:10182000CC3AD10509F4A0C0CB3BD10509F49FC047
:10183000CC3BD10509F49EC0CD3AD10509F49DC039
:10184000C03BD10509F49CC0CE3AD10509F49BC038
:10185000CF3AD10509F49AC0C13BD10509F499C02A
:10186000C23BD10509F498C0C33BD10509F497C028
:10187000C43BD10509F496C0C53BD10509F495C018
:10188000C63BD10509F494C0C73BD10509F493C008
:10189000C83BD10509F492C0C93BD10509F491C0F8
:1018A000CD3BD10509F490C0CE3BD10509F48FC0E2
:1018B000CA3BD10509F48EC0C0E0D4E48DC00E94BB
:1018C000280BEC0189C0CE019927D3FF03C0EC019E
:1018D000D86C82C0EC01D06C7FC0DF70D06A7CC055
:1018E000DC2FCC27C16FD06A77C0C1E0D0E002C046
:1018F000CC0FDD1F2A95E2F720E2829FC001112460
:10190000C82BD92BDA6868C0DC2FCC27C46FD06A0B
:1019100063C0CF71DD27DC2FCC27D0625DC0CE0144
:1019200024E0969587952A95E1F78F70CF70C06E69
:10193000D0E0D06AD82B50C0DD27D0664DC0C0E0C3
:10194000D0E04AC0C1E8D0E447C0C3E8D0E444C016
:10195000C2EED4E441C0C9EED4E43EC0CAEED4E441
:101960003BC0C5EBD4E438C0C6EBD4E435C0C3EB10
:10197000D4E432C0C4EBD4E42FC0C7EBD4E42CC011
:10198000CCECD4E429C0CDECD4E426C0C3E8D5E443
:1019900023C0CAE8D5E420C0C2E9D5E41DC0C4E92B
:1019A000D5E41AC0C1E2D6E417C0C3E2D6E414C03D
:1019B000C4E2D6E411C0C5E2D6E40EC0C6E2D6E465
:1019C0000BC0C7E2D6E408C0CFE6D4E405C0C0E748
:1019D000D4E402C0CAE2D6E4CE01DF91CF910895EB
:1019E0008238910549F1B0F48133910509F459C069
:1019F00048F48932910509F44FC08A32910509F4FF
:101A000055C008958533910509F441C08933910586
:101A100099F00895833E910531F138F4803E9105A7
:101A200091F0823E9105A9F00895863E910501F15D
:101A3000873E910539F108952091AB0320FD3BC00D
:101A400021FD39C008958091AB0380FF34C089E344
:101A500041C08091AB0382FF30C08091AB0384FD15
:101A60002EC083EE37C08091AB0382FD26C0F5CF38
:101A70008091AB0383FF25C08091AB0384FD1FC021
:101A800087EE28C08091AB0383FD1BC0F5CF80910A
:101A9000AB0385FD18C019C08091AB0385FD15C04F
:101AA00012C08091AB0386FD12C013C08091AB03BE
:101AB00086FD0FC00CC080EE0DC082EE0BC080E032
:101AC00009C086EE07C089E205C085E303C08AE24B
:101AD00001C081E390E008959091AB0392FF0DC0A7
:101AE000282F2871283019F4877F846006C0282F9A
:101AF0002471243011F48B7F886093FF0DC0282F50
:101B00002871283119F4877E846106C0282F24713A
:101B1000243111F48B7E886194FD877E0895CF93E4
:101B2000DF93813020E8920768F0FB0122812223B5
:101B300049F0EC010E94C00DCE019F770E94080E73
:101B40000E94F50D81E0DF91CF9108958CE090E047
:101B50000E94843390E0A0E0B0E080936003909313
:101B60006103A0936203B0936303089560916003DF
:101B70008CE090E00C949833809360030C94B60D45
:101B80000E94E62180934D020E94F921809160031A
:101B9000813071F048F08230D9F08430F9F486EE6B
:101BA0000E94A61888E118C082EE0E94141716C081
:101BB00080EE0E94141781EE0E94141788E10E94A3
:101BC000A61881EE0E943E1880EE0E943E1806C0C4
:101BD00082EE0E94141787E50E94A6188FE39CE905
:101BE0000197F1F700C000000895809160038130F3
:101BF00021F038F0823029F007C08CE20E94A6184C
:101C000003C082EE0E943E1880914D020C94F62192
:101C10000F931F93CF93DF938C01CCE0D0E0C801EA
:101C20000C2E02C0969587950A94E2F78F700E9459
:101C300057080E94A6182497CC3F8FEFD80779F752
:101C4000DF91CF911F910F9108950F931F93CF9321
:101C5000DF93EC018B01FB018281882319F1C23EE5
:101C6000FCE5DF07C1F050F4C03EECE5DE0781F093
:101C7000C13EFCE5DF07B1F481E010C0C33E8CE556
:101C8000D80759F0C43EECE5DE0761F484E006C0F5
:101C90001092600305C082E001C083E0809360037E
:101CA0000E94B60DB801CE01DF91CF911F910F9127
:101CB0000C948F0DEF92FF920F931F93CF93DF93AE
:101CC000E901662309F44BC0242F30E0EFEFF0E088
:101CD000E61BF109B901E69F9001E79F300DF69FE1
:101CE000300D1124232F8B01031B11095CE3E52E1A
:101CF000F12CB7010E944933FB01BC01069FC001D2
:101D0000079F900D169F900D1124B7010E94493333
:101D1000E230F105B1F040F4309779F0319711F5E8
:101D2000832F242F461B21C0E430F105A1F068F079
:101D30003597C1F4842F861B18C0832F262F230FBD
:101D400014C0862F830FE42F03C0E42FE61B842FDB
:101D5000432F2E2F0AC0842F462F430F06C0842FF7
:101D6000242F03C080E020E040E0E42FF0E0EA53BD
:101D7000FA4F4491E22FF0E0EA53FA4F9491E82FA2
:101D8000F0E0EA53FA4FE49149839883EA83DF91C4
:101D9000CF911F910F91FF90EF90089588E090E010
:101DA0000C948C33AB01BC0188E090E00C94AA3316
:101DB000E4E6F3E083E08083109265038FEF828393
:101DC0008383148260817181828193810C94D20E0D
:101DD0008091640380FF03C086958F73089580E02F
:101DE00008958091680390E001968430910514F085
:101DF00083E090E0809368036091640370916503D1
:101E000080916603909167030C94D20E80916803D1
:101E100090E0019797FF02C080E090E08430910548
:101E200014F083E090E08093680360916403709104
:101E3000650380916603909167030C94D20E8091A4
:101E4000640380FF06C06FE070E089E693E00C94C5
:101E50001D15E9E6F3E0118210821282349683E0C8
:101E6000E53AF807C1F7EFCF9091640390FF0CC0FB
:101E7000E9E6F3E0818360834283349693E0E53AB8
:101E8000F907C1F70C941F0F0895CF93DF9300D08B
:101E900000D0CDB7DEB72091640320FF0AC09E01B9
:101EA0002F5F3F4F0E945A0E4B8169818A810E94A9
:101EB000340F0F900F900F900F90DF91CF910895F6
:101EC0005F926F927F928F929F92AF92BF92CF92CA
:101ED000DF92EF92FF920F931F93CF93DF9300D087
:101EE00000D0CDB7DEB78C01E62EF42E522E8091B5
:101EF000640380FF89C0982F9E77923061F49E0121
:101F00002F5F3F4FC8010E945A0E4B8169818A8121
:101F10000E94340F59C0E82FE695EF739EE39E0FA1
:101F20009F73943018F4F09067034EC09AE39E0FAD
:101F30009F73993068F4881F8827881F90916503E4
:101F4000292F220F022F082B97FB112710F93CC0D5
:101F500087E28E0F8F738A30B8F5F0E07997E0FD55
:101F600002C021E001C02FEFEE7FE454FA4F8591CB
:101F700094916FE070E00E94493326034001279F4F
:101F8000900C1124580188E9A81A8EEFB80A89E646
:101F9000C82E83E0D82E98E6692E77247394C50165
:101FA000B3010E94493396014F2D6E2D0E945A0EA7
:101FB000A80CB91C84E0C80ED11C85EAC81683E0C1
:101FC000D80669F70E941F0F8091640300FB87F910
:101FD00080936403902F9695809165038078892B78
:101FE00010FB87F980936503E0926603F092670324
:101FF000552051F0609164037091650380916603F0
:10200000909167030E94D20E0F900F900F900F9047
:10201000DF91CF911F910F91FF90EF90DF90CF90C4
:10202000BF90AF909F908F907F906F905F9008953A
:10203000282FE4E6F3E03081331F3327331F40912C
:102040006503542F550F852F832B47FB992790F954
:102050000C9668E671E00E945D33438162810C94C6
:10206000600F81E00C941810282F30916403331F07
:102070003327331F40916503542F550F852F832B32
:1020800047FB992790F98C3091051CF4845A9E4F98
:1020900005C00C9768E671E00E945D3340916703CC
:1020A000609166030C94600F81E00C943410E4E6B8
:1020B000F3E03081331F3327331F90916503592F8D
:1020C000550F97FB992790F9282F43816FEF852FA4
:1020D000832B0C94600F81E00C945710E4E6F3E03E
:1020E0003081331F3327331F90916503592F550FCC
:1020F00097FB992790F9282F438160E0852F832B48
:102100000C94600F81E00C946E1040916703242FB3
:1021100030E0243F310514F4445F01C04FEF3091AB
:102120006403331F3327331F90916503592F550FD5
:1021300097FB992790F9282F60916603852F832BB1
:102140000C94600F81E00C94851040916703242F5C
:1021500030E02C30310514F04C5001C040E030919B
:102160006403331F3327331F90916503592F550F95
:1021700097FB992790F9282F60916603852F832B71
:102180000C94600F81E00C94A51020E00C94600F7B
:10219000CF939091640390FF40C09178811102C069
:1021A000926007C0853210F0986403C08F73880F67
:1021B000982B90936403662351F0609164037091AF
:1021C000650380916603909167030E94D20EC091CF
:1021D00064036C2F66956F7370E04BE050E084E011
:1021E00091E00E947733892B19F010926B0203C0A3
:1021F00081E080936B02CC1FCC27CC1F90916503AC
:10220000892F880F97FB992790F940916703609178
:1022100066038C2BCF910C94C510CF910895682F35
:102220009091640396959F7381E0890F853208F041
:1022300081E00C94C81081E00C940F11682F9091EC
:10224000640396959F738FEF890F09F484E20C94D1
:10225000C81081E00C941E1161E00C94C810E4E6F3
:10226000F3E080818160808386958F730C942C11BC
:1022700060E00C94C81080912E03816080932E033F
:102280000E947522811104C00E94E3220E94D80E90
:102290000E94CE0E6093640370936503809366037F
:1022A000909367036E7761F40E94D80E0E94CE0E61
:1022B0006093640370936503809366039093670350
:1022C00081E080936B028091640380FF04C0869557
:1022D0008F730C9438110895E4E6F3E080818E7FCB
:1022E000808360817181828193810E94D20E1092DD
:1022F0006B022FEF80E792E0215080409040E1F7A1
:1023000000C000000C941F0F8091640380FD0C94AA
:102310006C110C942F11CF93C82F8091690290916A
:102320006A020E940624EC2FF0E0E854FA4FE49190
:10233000F0E08E179F0708F443C00E94FA239093A1
:102340006A02809369026091680270E080E090E028
:102350000E944A3120E030E04FE753E40E946D30A4
:102360002BED3FE049E450E40E9473320E94E032DA
:102370000E94E7302BE43AE34EE25FE30E94003034
:1023800020EF3BEF48ED52E40E9473320E94193176
:10239000462F80916403881F8827881F90916503CA
:1023A000292F220F97FB992790F960916603822BC2
:1023B0000E94450F8091680290E001968093680228
:1023C000CF910895CF93C82F8091660290916702B4
:1023D0000E940624EC2FF0E0EB54FA4FE491F0E079
:1023E0008E179F07E8F00E94FA239093670280936C
:1023F0006602409167036091660380916402909148
:1024000065020E94450F80916402909165020196D9
:1024100068E671E00E9449339093650280936402FC
:10242000CF910895CF92DF92FF920F931F93CF9396
:10243000DF93F82E80916202909163020E9406243D
:10244000EF2DE695F0E0EE54FA4FE491F0E08E17B0
:102450009F07B8F10E94FA2390936302809362026F
:1024600009E613E0C0E0D0E088E6C82EDD24D3946E
:1024700080916002909161028C0F9D1FB6010E94B5
:102480004933980140916703609166030E945A0E98
:1024900068960C5F1F4FC83681E0D80749F70E9445
:1024A0001F0F8091600290916102F0FE05C00196BD
:1024B000BE010E94493301C001979093610280934D
:1024C0006002DF91CF911F910F91FF90DF90CF902D
:1024D0000895CF92DF92EF92FF920F931F93CF93C5
:1024E000DF93C82F80FF02C01FEF01C011E0809171
:1024F0005E0290915F020E940624C695EC2FF0E0E8
:10250000E155FA4FE491F0E08E179F0708F45BC0A5
:102510000E94FA2390935F0280935E0229E6E22EE6
:1025200023E0F22EC0E0D0E0F70111821082128287
:1025300094E0C92ED12C00E080915D02800F87FDD0
:10254000815F082E000C990BC817D907E9F4809118
:1025500067038C9DA0018D9D500D112455954795C5
:102560005595479580916403881F8827881F90910F
:102570006503592F550F97FB992790F997016091A3
:102580006603852B0E945A0E010FF1E0CF1AD10885
:1025900099F6219684E0E80EF11CCF30D10521F6A2
:1025A0000E941F0F80915D02113031F4811102C031
:1025B0008EE007C0815005C090E00196BE010E94E8
:1025C0005D3380935D02DF91CF911F910F91FF905A
:1025D000EF90DF90CF9008950F931F93CF93DF93E9
:1025E000C82F80915B0290915C020E940624EC2F20
:1025F000F0E0E455FA4FE491F0E08E179F0708F4FD
:1026000056C00E94FA2390935C0280935B02C9E655
:10261000D3E0FE01118210821282349683E0E53A03
:10262000F807C1F700E010E080915A02082E000C74
:10263000990B08171907ECF080910301082E000C84
:10264000990B80179107ACF080916403881F88274D
:10265000881F90916503592F550F97FB992790F983
:102660009E014091670360916603852B0E945A0E7C
:1026700003C0198218821A820F5F1F4F24960F30F1
:10268000110591F60E941F0F8091020190915A024C
:10269000980F90935A0220910301280F2093030171
:1026A000121614F49E301CF0819580930201DF9184
:1026B000CF911F910F910895EF92FF920F931F9367
:1026C000CF93DF9380915802909159020E94062483
:1026D000883E9340D0F10E94FA2390935902809350
:1026E0005802C0915602D09157022196C170DD2741
:1026F000D0935702C093560289E6E82E83E0F82E65
:1027000010E008E7812F8695FE01E80FF11DCF014B
:102710008170992797014091670360916603FC01DE
:102720000E9FC0010F9F900D11240E945A0E1F5F33
:10273000F4E0EF0EF11C1F3029F7DF91CF911F91CC
:102740000F91FF90EF900C941F0FDF91CF911F918D
:102750000F91FF90EF900895CF93DF9300D000D0BA
:10276000CDB7DEB780915402909155020E940624A5
:10277000EAEAF5E02591349182179307C0F1809140
:10278000530281110CC09E012F5F3F4F4FEF6FEF3F
:1027900080E090E00E945A0E8A81809353020E944A
:1027A000FA23909355028093540280915202813013
:1027B00051F028F0823061F4409153020AC08091B8
:1027C000530240E007C06091530240E080E003C044
:1027D00040E080E060E00E94340F8091520290E07F
:1027E000019663E070E00E945D33809352020F9087
:1027F0000F900F900F90DF91CF9108950F931F933B
:10280000CF93DF9380915002909151020E94062451
:10281000843F914008F448C00E94FA2390935102EB
:1028200080935002C9E6D3E000E010E020914E0210
:1028300030914F0280916403909165030730110538
:102840001CF4232B79F002C0232B61F4881F882706
:10285000881F592F550F97FB992790F99E0140919A
:1028600067030AC0881F8827881F592F550F97FBB9
:10287000992790F99E0140E060916603852B0E94A4
:102880005A0E0F5F1F4F24960F30110579F60E94E4
:102890001F0F80914E0290914F02019681709927EF
:1028A00090934F0280934E02DF91CF911F910F9131
:1028B000089580916B028823D9F190916403892F48
:1028C00086958F732EE3280F2F73243018F48250CF
:1028D0000C948B112AE3280F2F73233018F48650A1
:1028E0000C94E21127E3280F2F73263018F4895037
:1028F0000C94121221E3280F2F73263018F48F50F6
:102900000C9469122BE2280F2F73233018F4855191
:102910000C94EC12892F8E77803311F40C945C1395
:10292000863411F40C94AC13883411F40C94FE1317
:102930000895882319F05198599A02C0519A5998CC
:102940005098589A95E09A95F1F70000509A589847
:1029500095E09A95F1F70000882311F0519A599863
:1029600085E08A95F1F7000008958BB18C7F8BB9D3
:102970005098589A5198599A85E08A95F1F7000035
:1029800008958AB18C7F8AB985E08A95F1F70000B5
:10299000519A599885E08A95F1F70000509A589815
:1029A00085E08A95F1F7000008955098589A85E0DF
:1029B0008A95F1F700005198599A85E08A95F1F7C8
:1029C00000000895CF93DF93D82FC8E08D2F807833
:1029D0000E949914DD0FC150C9F780E00E9499143C
:1029E00085E08A95F1F7000085E08A95F1F700000F
:1029F00080E0DF91CF9108952BB1342F30952323C0
:102A00003BB1432B3FB7F894FC01680F791FE617E1
:102A1000F70789F0819198E04BB9000000C087FF6B
:102A20002BB9880F000000C000C000C02BB900C047
:102A30009A9591F7ECCF3FBF0895AF92BF92CF9296
:102A4000DF92EF92FF920F931F93CF93DF938C014E
:102A5000EB01CFB6D090BC00F8948091BC008B7F86
:102A60008093BC000E94B5140E94C11484E80E94A7
:102A7000E214CC0FDD1FCC0FDD1F78015801AC0E26
:102A8000BD1EEA14FB0431F0F70181917F010E9421
:102A9000E214F7CF0E94D514CFBED092BC00579A53
:102AA00040E8BE01C801DF91CF911F910F91FF90C7
:102AB000EF90DF90CF90BF90AF900C94FC14909368
:102AC0007102809370020895E0917002F09171029A
:102AD000309721F00190F081E02D099480E0089575
:102AE000E0917002F0917102309799F020912001ED
:102AF000222359F02091AB0327FF07C0DC012C9162
:102B000011962C93119725E02C930280F381E02DF0
:102B100009940895E0917002F0917102309739F0B4
:102B200022E0DC012C930480F581E02D09940895C6
:102B300020916E0230916F022817390771F090933F
:102B40006F0280936E02E0917002F09171023097F3
:102B500021F00680F781E02D0994089520916C0200
:102B600030916D022817390771F090936D028093B0
:102B70006C02E0917002F0917102309721F00084B4
:102B8000F185E02D0994089585B7806885BF85B7E4
:102B9000806885BF089508950E94C4150C94CB15D4
:102BA00081E008950E94F1230E94B5040E948824C8
:102BB0000C943B11BF92CF92DF92EF92FF920F9352
:102BC0001F93CF93DF93CDB7DEB72A970FB6F89454
:102BD000DEBF0FBECDBF0E9481050E94D0158111BE
:102BE00011C08FEF89838A831B820E94FA23816040
:102BF000782F9D838C8349815A816B818D810E94BE
:102C0000BF1654C083E7C82E82E0D82E00E010E043
:102C1000B02E802F0E94C005E82EF60121916F0191
:102C2000F82EF22631F40F5F1F4F0E30110581F799
:102C3000D8CF80912E0381FD0E94C60580E090E0F0
:102C40002F2D30E0482FB901082E02C075956795E9
:102C50000A94E2F760FF25C08E83BF8281E090E096
:102C60006C0102C0CC0CDD1C4A95E2F72E2D30E041
:102C70002C213D21232B09F480E088870E94FA2330
:102C80008160782F9A8789874E815F8168858A85E0
:102C90000E94BF16F801ED58FD4F80818C2580837E
:102CA00005C001968630910569F6BDCF0E941B26AE
:102CB0000E946415909172028917A9F00E94641510
:102CC000809372022A960FB6F894DEBF0FBECDBF76
:102CD000DF91CF911F910F91FF90EF90DF90CF90F8
:102CE000BF900C9468082A960FB6F894DEBF0FBE0A
:102CF000CDBFDF91CF911F910F91FF90EF90DF90AB
:102D0000CF90BF900895DC0111962C9111978C9172
:102D1000682F70E041E050E001C0440F8A95EAF767
:102D200012968C91129730E0882329F080919102BD
:102D30008823E9F006C0F901EF57FD4F90819423F5
:102D4000B1F086E0829FF001839FF00D1124E60F21
:102D5000F71FEE0FFF1FEF5DFE4F808191818D9376
:102D60009C93F901EF57FD4F8081482B06C0F90174
:102D7000EF57FD4F40958081482340830895CF93BE
:102D8000DF93CDB7DEB72B970FB6F894DEBF0FBE3B
:102D9000CDBF942F4F83252F588769877A878B87DC
:102DA0004A855B85452B31F02F3F31F481E09F3F11
:102DB00019F403C081E001C080E080FD04C0CE01B1
:102DC00007960E948316DE01119686E0FD0111929E
:102DD0008A95E9F785E0FE01379601900D928A9574
:102DE000E1F749815A816B817C818D819E810E94AE
:102DF000811E2B960FB6F894DEBF0FBECDBFDF91BC
:102E0000CF910895FC01808191810E945421929577
:102E10009F70963041F48091910291E089278093D0
:102E20009102909390020895CF93882309F424C1CE
:102E3000C82F8238C1F40E94641581FD1DC169E369
:102E400080910F01909110010E944B230E94B321A9
:102E50002FEF81EE94E0215080409040E1F700C0D8
:102E6000000069E319C0833801F50E94641580FDF4
:102E700003C163E580910F01909110010E944B23E3
:102E80000E94B3212FEF81EE94E0215080409040CA
:102E9000E1F700C0000063E580910F0190911001FF
:102EA0000E945623CF910C94B3218438C1F40E9420
:102EB000641582FDE1C067E480910F0190911001DB
:102EC0000E944B230E94B3212FEF81EE94E021500A
:102ED00080409040E1F700C0000067E4DDCF8CEF58
:102EE0008C0F813A68F48C2F0E9448288111C4C04D
:102EF0006C2F80910F01909110010E944B23D2CF33
:102F000080E28C0F883048F4C77081E001C0880FE0
:102F1000CA95EAF70E94E921C5CF8BE58C0F833073
:102F200078F4C53A29F0C63A31F083E890E005C05C
:102F300081E890E002C082E890E0CF910C9498156F
:102F400088E58C0F873108F08FC0C83A09F445C076
:102F5000C93A09F445C0CA3A09F445C0CB3A09F464
:102F600045C0CC3A09F445C0CB3B09F445C0CC3B45
:102F700009F445C0CD3A09F445C0C03B09F445C049
:102F8000CE3A09F445C0CF3A09F445C0C13B09F433
:102F900045C0C23B09F445C0C33B09F445C0C43B2E
:102FA00009F445C0C53B09F445C0C63B09F445C01A
:102FB000C73B09F445C0C83B09F445C0C93B09F407
:102FC00045C0CD3B09F445C0CE3B09F445C0CA3BE2
:102FD00009F445C080E090E044C082EE90E041C03A
:102FE00089EE90E03EC08AEE90E03BC085EB90E039
:102FF00038C086EB90E035C083EB90E032C084EBC4
:1030000090E02FC087EB90E02CC08CEC90E029C0C2
:103010008DEC90E026C083E891E023C08AE891E03F
:1030200020C082E991E01DC084E991E01AC081E2EC
:1030300092E017C083E292E014C084E292E011C0F3
:1030400085E292E00EC086E292E00BC087E292E059
:1030500008C08FE690E005C080E790E002C08AE2F9
:1030600092E0CF910C94AE15C03F30F08C2F0E94AF
:103070002325CF910C941026CF910895882309F42D
:1030800064C0823879F40E94641581FF5EC069E3F0
:1030900080910F01909110010E944B230E94B32157
:1030A00069E310C08338B1F40E94641580FF4DC0FD
:1030B00063E580910F01909110010E944B230E94C3
:1030C000B32163E580910F01909110010E94562376
:1030D0000C94B321843879F40E94641582FF35C0C2
:1030E00067E480910F01909110010E944B230E9490
:1030F000B32167E4E7CF9CEF980F913A10F4682F63
:10310000E1CF90E2980F983050F4877091E001C0C1
:10311000990F8A95EAF7892F0E94EF21D9CF9BE575
:10312000980F933020F480E090E00C94981598E587
:10313000980F973120F480E090E00C94AE15803F1A
:1031400020F00E948B250C9410260895CF93C82F51
:103150000E9414178C2FCF910C943E18882321F0D5
:103160000E94E9210C94B3210895882321F00E9444
:10317000EF210C94B32108958F929F92AF92BF924A
:10318000DF92EF92FF920F931F93CF93DF937C0117
:10319000D62FC72FFC01058102950F7012811111E6
:1031A0000E9409220E94AC21882379F0112369F042
:1031B00080E28D0F883048F082E00E9495210E94C5
:1031C000AC2191E0D82ED92601C0D12CBC2EB294CE
:1031D0008FE0B8228B2D90E0FC01EA58FF4F0C9451
:1031E00071338C2F807FCF70882311F0C295C07F00
:1031F000112399F0CC2309F4BCC180E28D0F8830F3
:1032000010F0D11104C08C2F0E94E92103C08C2F33
:103210000E94FC210E94B321ACC18D2F0E943E1858
:10322000CC2309F422C280E28D0F883010F0D11136
:1032300004C08C2F0E94EF2103C08C2F0E94022219
:103240000E94B32112C28C2F807FCF70803211F088
:10325000C295C07FDD2319F0D130C9F021C0112300
:1032600071F0002341F0013031F40E9422228C2BB6
:103270000E941C22FAC10E9422228C2B33C10023FF
:1032800019F0013009F4F1C10E941F2211C011236D
:1032900021F0023008F0E9C107C00111E6C108C001
:1032A000112321F0011165C18C2F1CC1011172C1C4
:1032B0008C2F1EC18C2F86958695837019F08130D6
:1032C00061F0D3C1112321F08D2F9C2F937002C088
:1032D00080E090E00E949815D5C1112321F08D2F38
:1032E0009C2F937002C080E090E00E94AE15CAC18E
:1032F0001123F9F0D53F51F0D63F71F0D43FA9F436
:103300008091A5039091A60381600BC08091A503D5
:103310009091A603826005C08091A5039091A603B9
:1033200084609093A6038093A5038D2F0E9423258C
:103330001EC0D53F51F0D63F71F0D43FA9F4809123
:10334000A5039091A6038E7F0BC08091A503909159
:10335000A6038D7F05C08091A5039091A6038B7F66
:103360009093A6038093A5038D2F0E948B250E9426
:10337000102688C18C2F837009F04CC011117EC1BA
:103380002D2F229526952770220F220F6D2F6F70FB
:10339000862F90E0A0E0B0E04C015D01022E04C059
:1033A000880C991CAA1CBB1C0A94D2F7D4FF12C02B
:1033B0008FE090E0A0E0B0E004C0880F991FAA1F42
:1033C000BB1F2A95D2F7BC01CD0160957095809501
:1033D000909503C060E070E0CB01C695C695C370C0
:1033E000C23051F080F4682979298A299B29C1309B
:1033F00071F00E94D21F42C1682979298A299B292C
:103400000E94E41F3BC10E94D21FC501B4010E946B
:10341000C01F34C1112319F08C2F817001C0869513
:10342000882309F42BC12D2F229526952770220F72
:10343000220F6D2F6F70862F90E0A0E0B0E04C015E
:103440005D01022E04C0880C991CAA1CBB1C0A94A6
:10345000D2F7D4FF12C08FE090E0A0E0B0E004C04B
:10346000880F991FAA1FBB1F2A95D2F7BC01CD0157
:10347000609570958095909503C060E070E0CB01F9
:10348000C695C695C370C23051F080F46829792979
:103490008A299B29C13071F00E949720EFC06829CA
:1034A00079298A299B290E94A920E8C00E94972097
:1034B000C501B4010E948520E1C08D2F90E0FC0180
:1034C000E05EF109E531F10508F04FC0EA57FF4F22
:1034D0000C947133DF708C2F8F71112331F00E94A7
:1034E0001E208D2F0E94AE18C0C00E943F208D2F3D
:1034F0000E94B518BAC0112339F00111B6C08C2F43
:103500008F710E946420B1C0023008F0AEC0F7CFC6
:10351000112339F08C2F8F710E941E20A6C0112319
:10352000C9F38C2F8F710E943F209FC0112329F077
:103530008C2F8F710E94092098C00E94042095C092
:10354000112349F0CF718C2F0E941E2063E08C2F35
:103550000E948C218AC081E00E949521023008F4EB
:1035600084C082E00E94952180C0112331F00023A5
:1035700089F28D2F0E94141778C0002391F2D9335D
:1035800049F4FFEF27EE83E0F15020408040E1F75F
:1035900000C000008D2F0E943E1867C04C2F4F7056
:1035A0006D2FC7010E9486070E942F1F6BC0D23F5C
:1035B000B1F028F4D03F49F0D13FF9F028C0D43F12
:1035C000B9F058F0D53F71F022C0112309F447C07B
:1035D0009091910281E0892708C081E0182710931B
:1035E00091023DC011113BC081E08093910237C030
:1035F000111135C01092910232C0112329F080912F
:103600009002882329F329C0002311F328C0809158
:1036100090020023C1F0882341F09091910281E053
:10362000892780939102109290028D2F112319F017
:103630000E94141714C00E943E1886E0F7011192F0
:103640008A95E9F70CC0882351F0111108C09091B8
:10365000910281E0892780939102109290024C2F71
:103660004F706D2FC7010E94140BF8E0BF1631F0A8
:10367000BF1640F086EF8B0D823020F40E94641557
:103680000E946808DD20E1F00E94882180FD18C0BA
:10369000F70112820E9482210E941E20C7010E940F
:1036A0006C1B0E948221DF91CF911F910F91FF909F
:1036B000EF90DF90BF90AF909F908F900C943F2041
:1036C000DF91CF911F910F91FF90EF90DF90BF900E
:1036D000AF909F908F9008950F931F93CF93DF9398
:1036E000EC01988189812B813C81232B31F08F3F24
:1036F00031F481E09F3F19F403C081E001C080E014
:1037000080FD13C0CE010E947A08882371F0688181
:1037100079818A810E945F218C010E94BB200E94D6
:10372000AC1FB801CE010E94BC18DF91CF911F9150
:103730000F9108950E9409220E9419220E94B3212C
:103740000E94B2260E94102680E090E00E94981508
:1037500080E090E00C94AE1580910F0190911001E3
:103760000E9461230C949A1B0E94F9210C94AC1BBB
:103770000E945421E92FE295EF704E2F50E0FA019C
:103780003297EE30F105B0F4E556FF4F0C947133EB
:10379000803F91F018F4803E68F40EC0843F51F4ED
:1037A0000BC0803E48F0813F29F406C093FB882778
:1037B00080F9089580E0089581E00895CF93DF9324
:1037C00000D000D01F92CDB7DEB70F900F900F90B2
:1037D0000F900F90DF91CF910895CF93DF9300D09A
:1037E00000D000D0CDB7DEB726960FB6F894DEBF76
:1037F0000FBECDBFDF91CF9108951F93CF93DF937D
:10380000C091920216E080919302C81799F0D0E01F
:103810001C9FF0011D9FF00D1124EC56FD4F4081BF
:10382000518162817381848195810E94ED1B219673
:10383000C770E9CFDF91CF911F9108954091C402E5
:103840005091C5026091C6027091C7028091C80272
:103850009091C9020C94ED1BCF938091C90282957F
:103860008F7009F05FC08091C602882309F45AC0A6
:1038700080919202B09193027091C402A091C5020E
:103880004091C7025091C80291E07F3F09F090E05B
:10389000692FC6E08B1709F445C04115510521F089
:1038A000AF3F21F020E003C021E001C0262F90E0CF
:1038B00020FD35C0C89FF001C99FF00D1124EC56C2
:1038C000FD4F21812A132BC02081271328C022817C
:1038D000211125C0238134812417350710F421508C
:1038E0003109241B350B283C3105C8F42091C9024D
:1038F0002F7020612093C90226E0289FF001299FA4
:10390000F00D1124E756FD4F80818F708061808318
:1039100084EC92E00E946C1BCF910C94FD1B0196ED
:103920008770B8CFCF910895AF92BF92CF92DF92B8
:10393000EF92FF920F931F93CF93DF93CDB7DEB734
:1039400061970FB6F894DEBF0FBECDBF8C0185E046
:10395000F801DE011D9601900D928A95E1F7D801DC
:103960004C9111965C9111971296EC903091C40293
:103970006091C5028091C7029091C802009731F012
:103980006F3F31F421E03F3F19F403C021E001C053
:1039900020E0B22FB170BB2E20FD60C1F801C380C2
:1039A000D480A090C602AA2009F4EEC02091C902DA
:1039B000C816D90628F0D601A81BB90BCD0104C042
:1039C000809590958C0D9D1DFF24F394883C910566
:1039D00080F0F12C207F09F09CC07C2DD98AC88A08
:1039E0006E2D89890E94DE1B84EC92E00E946C1B84
:1039F0002DC1822F807F09F054C0561314C0431389
:103A000012C0FE2CE1100FC02F7020612093C9025C
:103A10000E941E1C84EC92E00E946C1B8091C902E3
:103A2000F80185835CC1CD2831F05F3F31F481E03E
:103A30004F3F19F403C081E001C080E080FD03C066
:103A400081E08E2502C080E090E0F82FF170FF2E1B
:103A500080FF1CC0809192022091930236E0821771
:103A600009F41AC190E0389FF001399FF00D11243C
:103A7000EC56FD4F6181561306C06081461303C0AA
:103A80006281E61203C001968770E9CFFE2CEE201A
:103A900009F425C18091C90281608093C902F12C8B
:103AA0001EC1561309C0431307C0E11005C0809121
:103AB000C902F8018583A4C04D875E878D859E85E8
:103AC0000E94B81B882379F1EE2069F12091C90288
:103AD000822F82958F7090E0029774F08091C402DB
:103AE0009091C50298878F831986DB86CA862C87BA
:103AF000CE0107960E946C1B86E0F801A4ECB2E0B0
:103B000001900D928A95E1F70E942C1C0E941E1CC8
:103B10000DC0561771F04D875E878D859E850E947A
:103B2000B81B81111AC0C8010E946C1BFF24F394BA
:103B3000D6C04313F0CFE110EECF8091C902F80157
:103B40008583C8010E946C1B86E0E4ECF2E0DF0193
:103B50001D928A95E9F7FA2CC2C0EE2021F320913C
:103B6000C902822F82958F7090E002972CF280918B
:103B7000C4029091C5029A8389831B82DD82CC8224
:103B80002E83CE010196B6CFC816D90628F0F601CD
:103B9000E81BF90BCF0104C0809590958C0D9D1DFD
:103BA000883C910548F0F12C7C2DD98AC88A6E2D6D
:103BB00089890E94DE1B4AC0FE2CEE2009F4B3CF97
:103BC000561333C0431331C02091C90220FD24C0D5
:103BD000822F82958F70482F50E041155105E1F0FA
:103BE000D80115962C9315974F30510549F08F5FEA
:103BF000982F9295907F822F8F70892B15968C939A
:103C0000C8010E946C1B86E0F801A4ECB2E00190B0
:103C10000D928A95E1F73DC086E0F801A4ECB2E090
:103C200001900D928A95E1F75AC04D875E878D8588
:103C30009E850E94B81B81115FCF8091C90281606F
:103C40008093C902C8010E946C1B49C0E4ECF2E0F9
:103C500086E0DF011D928A95E9F71BC0EE2009F48A
:103C600062CF4D875E878D859E850E94B81BF82E9A
:103C7000882309F458CF86E0F801A4ECB2E0019063
:103C80000D928A95E1F784EC92E00E9402170E945F
:103C90002C1C0E941E1C23C04D875E878D859E852F
:103CA0000E945421292F22952F70223028F49F70D2
:103CB00039F0811105C00BC0243028F49F7049F4FD
:103CC000805E883020F0C8010E946C1BBF2CFB2C4A
:103CD00006C0D80115969C91907F91F7F8CF8F2D53
:103CE00061960FB6F894DEBF0FBECDBFDF91CF91C6
:103CF0001F910F91FF90EF90DF90CF90BF90AF900A
:103D000008951F93CF93DF93CDB7DEB72C970FB6EF
:103D1000F894DEBF0FBECDBF4F83588769877A877F
:103D20008B879C87CE0107960E94941C8823D1F034
:103D30009F8188852A853B85232B31F08F3F31F485
:103D400081E09F3F19F403C081E001C080E080FD65
:103D500047C04F81588569857A858B859C850E94EF
:103D6000ED1B3EC086E0FE013796DE011196019004
:103D70000D928A95E1F7FF81E8856A857B8561155B
:103D8000710531F0EF3F31F481E0FF3F19F403C0DA
:103D900081E001C080E080FD23C02091930230E0EB
:103DA000C9010196877099274091920250E08417CB
:103DB0009507F1F1F983EA837D836C8396E0929F06
:103DC000D001939FB00D1124AC56BD4FFE0131962A
:103DD00001900D929A95E1F7809393020E94FD1B4A
:103DE00016E08091920290919302891771F1189FC9
:103DF000C00111248C569D4F0E94941C882329F1E8
:103E0000E09192021E9FF0011124EC56FD4F40817B
:103E1000518162817381848195810E94ED1B809123
:103E2000920290E001968770992780939202D9CFF1
:103E30000E94B41B1092930210929202E4ECF2E002
:103E400086E0DF011D928A95E9F72C960FB6F8946B
:103E5000DEBF0FBECDBFDF91CF911F910895EF92CE
:103E6000FF920F931F93CF93DF938C01892B09F45B
:103E70006CC0F12CEE24E394E8012196F8018491C2
:103E8000843740F4843008F051C0813081F08230B2
:103E900019F15BC0853709F444C0A8F19CE7980F7D
:103EA000903708F052C08F770E943E1841C00E5FD5
:103EB0001F4FFE01849190E2980F983050F4877064
:103EC000FE2D01C0FF0F8A95EAF78F2F0E940C226A
:103ED00014C00E9414172DC00E5F1F4FFE01849165
:103EE00090E2980F983060F48770FE2D01C0FF0FAC
:103EF0008A95EAF78F2F0E9412220E94B32119C0DF
:103F00000E943E1816C00E5F1F4FFE01C491CC23C5
:103F100081F08FE99FE00197F1F700C00000C150E8
:103F2000F6CF0E5F1F4FFE01F49003C00E941417DE
:103F30008E018F2D882309F49FCFEFE9FFE03197A1
:103F4000F1F700C000008150F5CFDF91CF911F91B4
:103F50000F91FF90EF900895089508950C94AD1F70
:103F60000C94AE1F0E94B01F60930503709306036C
:103F700080930703909308030C949A1B0C94B21F30
:103F80000F931F93009105031091060320910703DF
:103F900030910803602B712B822B932B1F910F9173
:103FA0000C94B21F0F931F93009105031091060309
:103FB0002091070330910803602371238223932308
:103FC0001F910F910C94B21F0F931F930091050343
:103FD0001091060320910703309108036027712791
:103FE000822793271F910F910C94B21F0C94BA074C
:103FF0000E94F61F609301037093020380930303F2
:10400000909304030C949A1B60E070E0CB010C9435
:10401000F81F0F931F9341E050E060E070E08A01C9
:104020009B0104C0000F111F221F331F8A95D2F776
:10403000C901B8011F910F910C94F81F0F931F93A2
:1040400041E050E060E070E004C0440F551F661F7F
:10405000771F8A95D2F78091010390910203A09176
:104060000303B09104038A019B01082B192B2A2B0F
:104070003B2BC901B8011F910F910C94F81F0F93AE
:104080001F9341E050E060E070E004C0440F551F12
:10409000661F771F8A95D2F7409550956095709569
:1040A0008091010390910203A0910303B091040356
:1040B0008A019B01082319232A233B23C901B80144
:1040C0001F910F910C94F81F0F931F9341E050E044
:1040D00060E070E004C0440F551F661F771F8A958B
:1040E000D2F78091010390910203A0910303B09154
:1040F00004038A019B01082719272A273B27C901A6
:10410000B8011F910F910C94F81F0F931F9300910A
:104110000103109102032091030330910403602BEB
:10412000712B822B932B1F910F910C94F81F0F93DF
:104130001F9300910103109102032091030330911A
:10414000040360237123822393231F910F910C9406
:10415000F81F0F931F930091010310910203209108
:1041600003033091040360277127822793271F914F
:104170000F910C94F81F0895292F220F920F990F79
:10418000890FE82FE695E695E695877051E001C026
:10419000550F8A95EAF785E0E89FF0011124E65370
:1041A000FD4F20E030E070E04081CB01022E02C0E4
:1041B000969587950A94E2F78170819584278523E7
:1041C000842781932F5F3F4F2530310569F708958C
:1041D000292F220F920F990F890F682F66956695E8
:1041E0006695982F977085E0689FB001112440E094
:1041F00050E080E0FB01E40FF51FE653FD4F208106
:1042000030E0092E02C0369527950A94E2F7217016
:104210003327042E01C0220F0A94EAF7822B4F5F46
:104220005F4F4530510531F70895CF92DF92EF92FD
:10423000FF920F931F93CF93DF938C01C0900103E4
:10424000D0900203E0900303F090040380910503F3
:1042500090910603A0910703B0910803C82AD92AB8
:10426000EA2AFB2ACFE1D0E0D701C6010C2E04C018
:10427000B695A795979587950A94D2F780FD04C0C7
:10428000219790F780E007C0B8018C2F0E94300B77
:104290000197B1F38C2FDF91CF911F910F91FF9078
:1042A000EF90DF90CF900895CF93DF93EC010E94C1
:1042B0001521BE010E94300BDF91CF9108951F930D
:1042C000CF93DF93EB0190918F02992321F0CB01E3
:1042D0000E94542113C0882349F0CB010E9415216C
:1042E000182F682FCE010E94BC2004C0CB010E9471
:1042F000E820182FBE01812F0E94300BDF91CF9153
:104300001F91089580910903859585958595089558
:10431000809109038770089598E0899F9001112486
:10432000262B209309030C941E20209109038095CD
:10433000822380930903982F977069F430E0482F07
:10434000082E000C550B2417350729F08595859507
:1043500085950C943F20089590910903977081E012
:1043600009F480E00895E0910F01F091100180912F
:104370002D038083E0910F01F091100190818091D5
:104380002C03892B8083E0910F01F0911001908123
:1043900080912B03892B808380910A03882381F0ED
:1043A000E0910F01F09110019081892B8083809121
:1043B0000F01909110010E94E522811110920A03D1
:1043C00080910F01909110010C94701580912D0334
:1043D000089590912D03892B80932D030895809546
:1043E00090912D03892380932D03089580932D03AD
:1043F000089510922D03089590912C03892B80939A
:104400002C030895809590912C03892380932C038D
:10441000089510922C03089590912B03892B80937B
:104420002B030895809590912B03892380932B0370
:10443000089510922B03089580930A030895109213
:104440000A03089580910A030895CF92DF92EF92B4
:10445000FF926C01EE24FF24C114D104E104F104A5
:1044600021F0C701B60120E101C020E0C72ED82EFF
:10447000E92EFF24C114D104E104F10419F0285FEE
:10448000C701B6016B017C0154E0F694E794D79420
:10449000C7945A95D1F7C114D104E104F10419F07D
:1044A0002C5FC701B6016B017C0142E0F694E794F2
:1044B000D794C7944A95D1F7C114D104E104F1040B
:1044C00019F02E5FC701B601DC01CB01B695A795A7
:1044D00097958795892B8A2B8B2B09F02F5F822F3D
:1044E000FF90EF90DF90CF90089580E090E00E94E1
:1044F000923321E08D3E9E4F09F020E0822F0895F7
:1045000082E090E00C94843383E090E00C94843358
:1045100084E090E00C948433682F84E090E00C9465
:104520009833AB01BC018FE090E00C94AA33AB014F
:10453000BC0183E190E00C94AA3360E070E0CB0111
:104540000C94972260E070E0CB010E9491220C94C1
:104550009D226DEE7EEF80E090E00E94B63360E039
:1045600082E090E00E94983360E083E090E00E9457
:1045700098331092050310920603109207031092CD
:10458000080360E084E090E00E94983360E085E0FA
:1045900090E00E94983360E086E090E00E949833BB
:1045A0006FEF87E090E00E94983340E050E0BA015E
:1045B00088E090E00E94AA3360E08DE090E00E94E5
:1045C00098330C94A2220C94A922FC01329680917B
:1045D0002001882331F08091AB0387FF02C09EE168
:1045E00001C096E080E0915028F021912223D9F378
:1045F0008F5FF9CF08959C01FC0132969FEF80E018
:104600004191461789F09F3F19F4411101C0982F3D
:104610008F5F8630A9F79F3F39F0F901E90FF11D4F
:1046200097FDFA956283089508959C012A5F3F4F94
:10463000FC014281461301C0128201968217930742
:10464000B9F70895262F2695269526952E3168F4DC
:10465000FC01E20FF11D677021E030E001C0220F84
:104660006A95EAF78281282B22830895262F2695C2
:10467000269526952E3170F4FC01E20FF11D67702E
:1046800021E030E001C0220F6A95EAF7209582818F
:1046900028232283089520912001222329F02091AC
:1046A000AB0327FD0C9422230C94FB2220912001C4
:1046B000222329F02091AB0327FD0C9436230C9480
:1046C000152320912001FC013296222331F08091A4
:1046D000AB0387FF02C08EE101C086E0DF011D92BF
:1046E0008A95E9F7089508950C947323CF930E9457
:1046F000D8040E9481050E947423C0E08C2F0E9480
:10470000C005811104C0CF5FCE30C1F701C081E088
:10471000CF9108950C9473230C948A230E948C23C8
:104720008091B103843049F110922F0320E488E195
:1047300090E00FB6F894A895809360000FBE209388
:10474000600080E00E9468080E948C2383B7817F0C
:10475000846083BF83B7816083BF7894889583B773
:104760008E7F83BF0FB6F894A89580916000886112
:1047700080936000109260000FBE08950C94732324
:104780000E94B41B0E9464150E9468080C94BE230A
:104790001F920F920FB60F9211248F939F93AF9396
:1047A000BF9380912F03811113C08091A703909133
:1047B000A803A091A903B091AA034196A11DB11D20
:1047C0008093A7039093A803A093A903B093AA038F
:1047D000BF91AF919F918F910F900FBE0F901F903F
:1047E000189582E084BD93E095BD9AEF97BD8093C4
:1047F0006E0008952FB7F8948091A7039091A803B5
:10480000A091A903B091AA032FBF0895CF92DF9280
:10481000EF92FF920F931F932FB7F8944091A70345
:104820005091A8036091A9037091AA032FBF6A0158
:104830007B01EE24FF248C0120E030E0C016D1067D
:10484000E206F30610F4415051099A01281B390B76
:10485000C9011F910F91FF90EF90DF90CF900895C5
:1048600078941F920F920FB60F9211248F939F93FB
:10487000AF93BF938091A7039091A803A091A90340
:10488000B091AA030196A11DB11D8093A703909337
:10489000A803A093A903B093AA03BF91AF919F91DE
:1048A0008F910F900FBE0F901F901895F89481E094
:1048B0008093E00080E28093D800E9ECF0E0108281
:1048C0008FE19EE40197F1F700C000001DBA10923D
:1048D00068001CBC10BE1FBA10927A0010926E00C5
:1048E00010926F0010927100109272001082ECEB27
:1048F000F0E0108214B817B81AB81DB810BA1082B8
:1049000015B818B81BB81EB811BA0C94003F08951A
:104910000E947522811102C00E94E3220E9480221F
:1049200080932E030E94882290E09093AC038093A2
:10493000AB030E948422682F70E080E090E00C942A
:10494000BE1F8091330380FF0BC06091140185E08E
:10495000689FB001112475956795759567952BC073
:1049600081FF09C06091140185E0689FB0011124A6
:104970007595679520C082FF07C06091140185E09E
:10498000689FB001112417C0909134039923D1F08E
:1049900060911301961788F72091140185E0289FF4
:1049A00090011124929FA001939F500D112470E05B
:1049B000CA010E945D336038710540F461157105CC
:1049C00019F406C065E070E0862F08958FE708951A
:1049D00081E008958091330380FF08C06091120147
:1049E00070E0759567957595679521C081FF06C044
:1049F0006091120170E07595679519C082FF04C03F
:104A00006091120170E010C090913403992399F0E5
:104A1000609111019617A0F780911201899FC00142
:104A2000112470E00E945D336038710540F4611517
:104A3000710519F406C061E070E0862F08958FE7D4
:104A4000089581E00895803F21F40E94A12481957A
:104A500004C0813F29F40E94A12480933803089563
:104A6000823F21F40E94A124819504C0833F29F450
:104A70000E94A124809337030895893F19F40E946E
:104A8000EA2405C08A3F31F40E94EA24819580938C
:104A9000390308958B3F21F40E94EA24819504C0D4
:104AA0008C3F29F40E94EA2480933A030895843FBE
:104AB00021F480913603816017C0853F21F48091F5
:104AC0003603826011C0863F21F4809136038460F2
:104AD0000BC0873F21F480913603886005C0883F72
:104AE00031F48091360380618093360308958D3FC1
:104AF00021F48091330381600BC08E3F21F48091BB
:104B00003303826005C08F3F29F4809133038460B2
:104B1000809333030895803F39F48091380387FFF1
:104B20006CC01092380369C0813F29F4809138032A
:104B30001816BCF362C090913703823F29F497FFA7
:104B40005CC01092370359C0833F19F41916CCF397
:104B500054C0893F41F48091390318160CF04DC0C0
:104B6000109239034AC08A3F29F48091390387FFA4
:104B700044C0F6CF8B3F39F480913A0387FF3DC0A4
:104B800010923A033AC08C3F29F480913A031816E8
:104B9000BCF333C0843F21F4809136038E7F17C06D
:104BA000853F21F4809136038D7F11C0863F21F42B
:104BB000809136038B7F0BC0873F21F480913603B1
:104BC000877F05C0883F31F4809136038F7E8093C4
:104BD000360313C08D3F21F4809133038E7F0BC0C9
:104BE0008E3F21F4809133038D7F05C08F3F29F4E0
:104BF000809133038B7F809333038091370381113E
:104C00000EC08091380381110AC08091390381114F
:104C100006C080913A03811102C0109234030895B6
:104C200085E393E00E948A150E94FA239093310352
:104C30008093300308951F93CF93DF9380913003C7
:104C4000909131030E940624AC0190913403992382
:104C500021F02091150130E006C0209132038AE056
:104C6000289F900111244217530708F477C08091C0
:104C70003703C0913803D091390310913A03811161
:104C800007C0C11167C0D11165C0111163C066C0F2
:104C90009F3F19F09F5F90933403181624F40E94ED
:104CA000A124809337038091370387FF05C00E94BA
:104CB000A1248195809337031C1624F40E94A1241B
:104CC000809338038091380387FF05C00E94A12498
:104CD000819580933803309137033323C1F02091BD
:104CE00038032223A1F045EB3403C0011124892F9E
:104CF000911101C081E08093370335EB2303C0019C
:104D00001124892F911101C081E0809338031D1671
:104D100024F40E94EA24809339038091390387FFA9
:104D200005C00E94EA24819580933903111624F46A
:104D30000E94EA2480933A0380913A0387FF05C0DA
:104D40000E94EA24819580933A03DF91CF911F91CD
:104D50000C9410269F3F09F09DCFAECFDF91CF91ED
:104D60001F910895E5E3F3E086E0DF011D928A9547
:104D7000E9F710923403109233030895833081F1E0
:104D800028F4813059F08230D1F00895853009F44B
:104D900049C0B8F1863009F456C0089580913203B5
:104DA000262F30E0280F311D2F3F310524F4680FE6
:104DB0006093320308958FEF8093320308958091BA
:104DC0001501262F30E0280F311D2F3F310524F427
:104DD000680F6093150108958FEF80931501089572
:104DE00080911401262F30E0280F311D2F3F31050F
:104DF00024F4680F6093140108958FEF80931401D9
:104E0000089580911301262F30E0280F311D2F3F88
:104E1000310524F4680F6093130108958FEF809398
:104E20001301089580911201262F30E0280F311DC3
:104E30002F3F310524F4680F6093120108958FEF1E
:104E400080931201089580911101262F30E0280FE0
:104E5000311D2F3F310524F4680F6093110108952F
:104E60008FEF809311010895833011F128F4813080
:104E700049F0823091F00895853081F120F186303B
:104E8000C1F1089580913203681720F4861B809346
:104E90003203089510923203089580911501681726
:104EA00020F4861B80931501089510921501089532
:104EB00080911401681720F4861B809314010895D3
:104EC00010921401089580911301681720F4861B35
:104ED0008093130108951092130108958091120197
:104EE000681720F4861B8093120108951092120116
:104EF000089580911101681720F4861B8093110199
:104F000008951092110108950F931F9341E050E00E
:104F100060E070E08A019B0104C0000F111F221F96
:104F2000331F8A95D2F7C901B8010E94BE1F1F9195
:104F30000F910C94B41B873208F04DC08E3108F0ED
:104F40008FC0803109F479C008F5873009F467C053
:104F500068F4863009F08BC080912E03817F8E7FAC
:104F600080932E0381E080933C0308958B3009F4F5
:104F70007AC08E3009F07BC080912E0382FB2227FD
:104F800020F991E0922790FB82F960C0863109F404
:104F90006AC088F4813109F06AC00E94B41B809114
:104FA000AB0387FB222720F991E0922790FB87F93A
:104FB0008093AB0358C0893109F455C08B3109F097
:104FC00056C080912E0381FB222720F991E0922781
:104FD00090FB81F93BC0883309F445C048F489321D
:104FE00009F443C0853309F440C08732F1F13FC072
:104FF0008334D9F120F48A33D0F1895332C0883414
:10500000B1F50E94B41B2FEF83ED90E32150804057
:105010009040E1F700C000000E94562424C0809117
:105020002E03982F9095917090FB80F980932E031A
:10503000911119C0897F877F10C080912E0383FB57
:10504000222720F991E0922790FB83F980932E0389
:10505000992349F080912E03816080932E0303C031
:105060008D510E94842781E0089580E0FACF80E08E
:10507000089580E008950C9439288E518A3030F4D8
:10508000E82FF0E0E753FE4F8081089580E0089517
:10509000CF93C82F80913C03813079F018F0823093
:1050A000E9F185C0E0910F01F0911001808181311B
:1050B00069F0823209F07DC009C0E0910F01F091E2
:1050C00010018081813111F0823261F48C2F0E94B5
:1050D0003B28811104C08C2F0E949B271DC081E0BA
:1050E00090E01AC08C2F0E943928811114C0C4315D
:1050F00079F048F4CB3079F0C03109F05EC082E03D
:1051000080933C0308C0C93219F0C83321F055C060
:1051100010923C0352C081E0817051C0C93279F1D4
:1051200008F5C43161F1A0F4C73009F044C0109211
:10513000320384E180931501C09314018CE38093C2
:10514000130188E08093120188E28093110133C03B
:1051500082EE8C0F863078F58C2F0E943D2880934C
:105160003B0329C0CE34E9F020F4CB3421F56AE0CA
:1051700013C0C13579F0C235F1F461E00DC0809102
:105180003B03882319F010923B0315C081E0809304
:105190003C0315C061E006C080913B030E94BE261F
:1051A0000AC06AE080913B030E94342704C0109239
:1051B0003C0380E004C081E002C080E0ADCFCF912D
:1051C000089580915D0308950F931F93CF93DF930C
:1051D00000D01F92CDB7DEB78C010E94452B8230E4
:1051E00011F0843021F584E089831B830A8382E0F7
:1051F0008093E9008FEF9091E800815095FD06C003
:1052000095ED9A95F1F700008111F5CF8091E800B6
:1052100085FF0DC040E050E063E070E0CE010196F4
:105220000E94622B8091E8008E778093E8000F90B7
:105230000F900F90DF91CF911F910F910895CF9311
:10524000DF9300D01F92CDB7DEB72091B103243099
:1052500031F523E02983805891099B838A8382E07A
:105260008093E9008FEF9091E800815095FD06C092
:1052700095ED9A95F1F700008111F5CF8091E80046
:1052800085FF0DC040E050E063E070E0CE01019684
:105290000E94622B8091E8008E778093E8000F9047
:1052A0000F900F90DF91CF910895CF93DF93EC0192
:1052B0000E94452B823011F08430F9F482E0809313
:1052C000E9008FEF9091E800815095FD06C095EDC3
:1052D0009A95F1F700008111F5CF8091E80085FFE4
:1052E0000CC040E050E066E070E0CE010E94622B0E
:1052F0008091E8008E778093E800DF91CF91089548
:10530000CF93DF93EC010E94452B823011F0843063
:10531000D9F580912001882339F08091AB0387FF74
:1053200003C060E282E002C068E081E08093E900AF
:105330008FEF9091E800815095FD06C095ED9A950C
:10534000F1F700008111F5CF8091E80085FF1CC0C6
:1053500080912001811105C040E050E068E070E0DC
:1053600003C070E040E050E0CE010E94622B8091CB
:10537000E8008E778093E80080E2FE01ADE3B3E0C1
:1053800001900D928A95E1F7DF91CF910895809178
:10539000B003811109C00E94F32C0E94502D80910E
:1053A000E20084608093E20008951092B0030895B3
:1053B000089508950C94C02342E061EC81E00E94BE
:1053C0006C2C42E261EC82E00C946C2C8091B30373
:1053D000833009F453C030F4813071F0823009F425
:1053E0008CC008958A3009F478C08B3009F45EC00F
:1053F000893009F09AC020C08091B203813A09F047
:1054000094C08091E800877F8093E8008091B60384
:105410009091B703892B21F460E28DE393E003C000
:1054200060E080E090E070E00E94AD2B8091E800A9
:105430008B778093E80008958091B203813209F060
:1054400074C08091B6039091B703029708F06DC0C5
:105450008091E800877F8093E8008091E80082FDDA
:1054600005C08091B1038111F8CF5FC08091F10038
:1054700080935D038091E8008B7753C08091B203E5
:10548000813A09F052C08091B6039091B703892BFD
:1054900009F04BC08091E800877F8093E8008091FD
:1054A000E80080FFFCCF8091200136C08091B203DC
:1054B0008132D9F58091B6039091B703892BA9F574
:1054C0008091E800877F8093E8000E94A12C809162
:1054D000B403809320010C94B41B8091B2038132F9
:1054E00021F58091E800877F8093E8000E94A12C3D
:1054F0008091B50380935E0308958091B203813A51
:10550000A1F48091E800877F8093E8008091E80013
:1055100080FFFCCF80915E038093F1008091E800D2
:105520008E778093E8000C94A12C089584B7877F30
:1055300084BF0FB6F894A89580916000886180932D
:105540006000109260000FBE80E8809361001092AE
:1055500061000E94CC150E94F32C0E94502D809176
:10556000E20084608093E20078940E94E52F0E941C
:10557000D21586E191E00E945F158091B1038530DC
:1055800069F40E948E238091AF038823B1F30E94B7
:105590007623882391F30E944C2BEFCF0E94DA15DB
:1055A0000E945914EACF0C94D52A292F332723308F
:1055B0003105C9F060F42130310581F02230310528
:1055C00009F04AC08BE390E020E037E049C0213287
:1055D000310511F12232310579F13EC082E190E0CE
:1055E0002BE337E03DC099278130910561F040F011
:1055F0008230910559F0039779F5E6ECF6E008C0A2
:10560000ECEFF6E005C0E4EEF6E002C0ECECF6E00C
:10561000849190E09F0124C06115710541F06130D3
:105620007105D1F489E090E02BE237E019C089E000
:1056300090E022E137E014C06115710541F061305E
:10564000710551F480EC90E02DE437E009C080E46E
:1056500090E02DE038E004C080E090E020E030E011
:10566000FA013183208308950895CF93C82F0E94B3
:10567000342BC0935F03CF9108958091B1038430A0
:1056800011F081E0089582E0089580915F03811117
:1056900002C00C943D2B089580E189BD82E189BD53
:1056A00009B400FEFDCF8091D8008F7D8093D80093
:1056B0008091E00082608093E0008091E00081FDB5
:1056C000FCCF0895CF92DF92EF92FF920F931F933A
:1056D000CF93DF93EC018B017A010E94C02C8111E2
:1056E00033C0E114F10439F0F70180819181081B86
:1056F000190BC80FD91FC12CD12C0115110519F197
:105700008091E80085FD16C08091E8008E77809337
:10571000E800E114F10449F0F70180819181C80E9D
:10572000D91ED182C08285E00FC00E94C02C882380
:1057300021F30AC089918093F10001501109FFEF14
:10574000CF1ADF0ADACF80E0DF91CF911F910F915E
:10575000FF90EF90DF90CF9008952091B8033091A3
:10576000B9032617370748F06115710539F4209100
:10577000E8002E772093E80001C0B901FC0120E089
:105780006115710579F18091B1038823F1F18530BC
:10579000F1F18091E80083FD3CC08091E80082FD3A
:1057A0002EC08091E80080FFEBCF2091F300809124
:1057B000F20090E0922B6115710551F0883091054F
:1057C00038F421912093F100615071090196F3CFD3
:1057D00021E0089709F020E08091E8008E7780931F
:1057E000E800CECF2111CFCF0AC08091B10388232A
:1057F00061F0853061F08091E80083FD0AC08091FE
:10580000E80082FFF2CF80E0089582E0089583E00F
:10581000089581E008952091B8033091B9032617C7
:10582000370748F06115710539F42091E8002E77AB
:105830002093E80001C0B901FC0120E06115710569
:1058400091F18091B103882309F440C0853009F4B7
:105850003FC08091E80083FD3DC08091E80082FD5B
:105860002FC08091E80080FFE9CF2091F300809164
:10587000F20090E0922B6115710559F08830910586
:1058800040F424912093F100319661507109019602
:10589000F2CF21E0089709F020E08091E8008E77B0
:1058A0008093E800CBCF2111CCCF0AC08091B10307
:1058B000882361F0853061F08091E80083FD0AC0A3
:1058C0008091E80082FFF2CF80E0089582E00895A1
:1058D00083E0089581E00895982F973068F59093BC
:1058E000E900981739F07091EC002091ED0050918B
:1058F000F00003C0242F762F50E021FD02C09F5FEF
:10590000ECCF3091EB003E7F3093EB003091ED0017
:105910003D7F3093ED003091EB0031603093EB0030
:105920007093EC002093ED005093F0002091EE0076
:1059300027FDE5CF80E008958F708093E90081E036
:1059400008958091B20387FF11C08091E80082FD25
:1059500005C08091B1038111F8CF11C08091E8009A
:105960008B770BC08091B103882349F08091E800C8
:1059700080FFF8CF8091E8008E778093E80008954B
:105980002091E4003091E50095E64091EC00842FF1
:10599000817040FF23C08091E80080FD1DC0809190
:1059A000B103882399F0853099F08091EB0085FD53
:1059B00011C04091E4005091E5002417350729F308
:1059C000915011F09A01E1CF84E0089582E00895AA
:1059D00083E0089581E0089580E008954091E80013
:1059E00042FFDDCF08950E94612D0E94692DE0EEF7
:1059F000F0E0808181608083E8EDF0E080818F7746
:105A0000808319BCA7EDB0E08C918E7F8C93808150
:105A10008F7E80831092B00308950F931F93CF93CE
:105A2000DF930E94612D0E94692DC8EDD0E088812E
:105A30008F77888388818068888388818F7D888339
:105A400019BC1092B1031092AD031092AF031092E3
:105A5000AE0300EE10E0F80180818B7F80838881A7
:105A60008160888342E060E080E00E946C2CE1EE7F
:105A7000F0E080818E7F8083E2EEF0E080818160C3
:105A80008083808188608083F80180818E7F80831D
:105A9000888180618883DF91CF911F910F91089554
:105AA000E8EDF0E080818F7E8083E7EDF0E080819B
:105AB0008160808384E082BF81E08093B0030C9496
:105AC0000D2DE8EDF0E080818E7F80831092E20062
:105AD00008951092DA001092E10008951F920F923B
