:100000000C94A5040C94C2040C94C2040C94C20475
:100010000C94C2040C94C2040C94C2040C94C20448
:100020000C94C2040C94C2040C94312E0C94032F33
:100030000C94A8240C94C2040C94C2040C94C20422
:100040000C94C2040C94C2040C94C2040C94C20418
:100050000C94C2040C9410250C94C2040C94C20499
:100060000C94C2040C94C2040C94C2040C94C204F8
:100070000C94C2040C94C2040C94C2040C94C204E8
:100080000C94C2040C94C2040C94C2040C94C204D8
:100090000C94C2040C94C2040C94C2040C94C204C8
:1000A0000C94C2040C94C2040C94C20418051B05E1
:1000B0001E052105240527052A05100814081C081B
:1000C00026081A081F08240822085509570962093A
:1000D00059095B095D095F096109640966096809D5
:1000E00073096A096C096E097009720975099D190D
:1000F0009D19CF19CF19061A241A831BE11B661A02
:10010000E11B091B091B7A1BE11BE11BDB1B161BF7
:10011000161B161B161B161B161B161B161B161B57
:10012000161B161B161B161B161B161B161B271B36
:10013000341B3B1B421B4C1B721C721C841C841CFA
:100140007B1C841C841C841C721C721C801C841CE0
:10015000841C801C94288A28A228EA28EE28EE28ED
:10016000EA28EE28EE28C328EE28CD28D728EE2846
:10017000EE28EE28EE28EA28EE28EE28EA28EE28D7
:10018000B028EE28EE28E728E728E728E728E72820
:10019000E728E728E728E728EC28EE28942887288E
:1001A000EE28EE28EE28EE28EE28EE28EE28EE289F
:1001B000EE28EE28EC28EE28EE28EA28EE28E5289E
:1001C000E528E528E528E528E528E528E528E528C7
:1001D000EC28702F972F8F30972F8F30E32F06301A
:1001E0008F305D306C3007634236B79BD8A71A3921
:1001F000685618AEBAAB558C1D3CB7CC5763BD6D75
:10020000EDFD753EF6177231BF000000803F05A876
:100210004CCDB2D44EB93836A9020C50B99186886B
:10022000083CA6AAAA2ABE000000803F6572676F3C
:10023000646F785F657A2F64656661756C742040C1
:1002400020302E362E3330392D31392D6766396303
:100250003562382D6469727479000000F0A13500B0
:100260002B002900E100E00000001E001400040043
:100270001D004A0029001F001A0016001B004E0036
:10028000E20020000800070006004B002C002100BF
:100290001500090019004D000100220017000A0096
:1002A000050000000100015334000000004300007D
:1002B000010002532F02000000440000010023004F
:1002C0001C000B00110000004600240018000D0067
:1002D00010005000010025000C000E0036005100F7
:1002E0002A00260012000F0037005200E00027000D
:1002F0001300330038004F0028002D002E004C0062
:10030000E500006800000100010001000100006834
:1003100000000100010001000100010001000100D6
:100320000100010001000100E300010001000100E3
:1003300001000100010001000100010001000100B5
:1003400001000100010001000100000001000100A6
:100350000100000001000000010001000100000098
:100360000100000001000100010001000100000087
:10037000210B01000100010001000100010001004A
:100380000100010001000100010001000100010065
:1003900001000100006101000100010001000100F5
:1003A00001000100010001000100E2000000010065
:1003B000010001000100E000000001000100010057
:1003C00001001C00010001000100010001001800F3
:1003D000010001000100010001000C00010001000A
:1003E00001000100010012000100010001000100F4
:1003F0000100000001000100010000000B000000EE
:1004000001000100010000000100000001000100E6
:1004100001000100010000000100010001000100D5
:1004200001000100010001000100010001000100C4
:1004300001000100010001000100010001000100B4
:1004400001000100010001000100010001000100A4
:100450000100010000000100010001000100010095
:1004600000003A00010001000100010001003B0012
:10047000010001000100010001003C0031003602D2
:100480000100010001003D003102370201000100BE
:1004900001003E0001000100010000000100005CBD
:1004A0000100000001000000010001000100000047
:1004B0000100000001003F000100010001000000F8
:1004C000010040002F0226022F0001000100410020
:1004D000300227023000010001004200010001004B
:1004E00001000100010043000100010001000100C2
:1004F000010044004500010001000100000001006E
:100500000100010003510100000001000100E08032
:10051000E280010001000100E880EB8001000100A1
:1005200001000100E980EA80E7800100010001008C
:1005300001000100010001000100010001000100B3
:1005400001000000010001000100000001000000A6
:100550000100010001000000010000000100010095
:10056000010001000100000001000100F980FB8092
:10057000FC80010001000100EE80EF80010001001D
:1005800001000100F48001000100010001000100F0
:100590000100010001000100010001000100010053
:1005A00001000100000000000000000000002A2BF4
:1005B0002800000000000000000000000000000013
:1005C0000029000000002C1E34202122243426277C
:1005D000252E362D3738271E1F202122232425269D
:1005E0003333362E37381F0405060708090A0B0C6B
:1005F0000D0E0F101112131415161718191A1B1CB3
:100600001D2F3130232D350405060708090A0B0C70
:100610000D0E0F101112131415161718191A1B1C92
:100620001D2F3130354C000000000000000000009C
:1006300000000000000000000000000000000000BA
:1006400000000000000000010101010101000101A2
:100650000101000000000000000000000000000098
:10066000010001000101010101010101010101017C
:10067000010101010101010101010101010101016A
:100680000100000001010000000000000000000067
:10069000000000000000000000000000000000005A
:1006A00000010101010000047F3F1F643214643225
:1006B00014783C1E1E140A056801F000B40078008E
:1006C0005A000000000000010101010101010101C7
:1006D00002020202020202020203030303030303F3
:1006E00003040404040404050505050506060606BE
:1006F0000607070707080808080909090A0A0A0A75
:100700000B0B0B0C0C0C0D0D0D0E0E0F0F0F101014
:100710001111111212131314141515161617171898
:100720001819191A1A1B1C1C1D1D1E1F1F20202101
:1007300022222324252526272728292A2B2B2C2D46
:100740002E2F2F30313233343536363738393A3B65
:100750003C3D3E3F4041424344464748494A4B4C5A
:100760004D4F50515253555657585A5B5C5E5F601F
:100770006263646667696A6C6D6E707173747678B3
:10078000797B7C7E8081838486888A8B8D8F919211
:100790009496989A9B9D9FA1A3A5A7A9ABADAFB135
:1007A000B3B5B7B9BBBDBFC1C4C6C8CACCCFD1D31E
:1007B000D6D8DADCDFE1E4E6E8EBEDF0F2F5F7FAC3
:1007C000FCFF0403300000001603450072006700C0
:1007D0006F0044006F007800200045005A000000C0
:1007E00016034500720067006F0044006F00780038
:1007F000200045005A0000000403090409023B00E0
:10080000020100A0FA09040000010301010009210E
:10081000110100012240000705810308000A0904B4
:100820000100010300000009211101000122C000A4
:100830000705820320000A1201100100000008EDE4
:10084000FE071301000102030105010902A1018550
:10085000020901A1000509190129051500250195C5
:1008600005750181029501750381010501093009B2
:10087000311581257F950275088106093815812576
:100880007F950175088106050C0A38021581257FC0
:10089000950175088106C0C005010980A101850385
:1008A0001601002603001A81002A830075109501A5
:1008B0008100C0050C0901A1018504160100269CD8
:1008C000021A01002A9C02751095018100C00501E1
:1008D0000906A1018505050719E029E7150025018D
:1008E000950875018102050819012905950575010D
:1008F00091029501750391010507190029EF150073
:10090000250195F075018102C005010906A10105C7
:100910000719E029E7150025019508750181029561
:1009200001750881010508190129059505750191D1
:10093000029501750391010507190029FF1500268D
:10094000FF00950675088100C00011241FBECFEF7F
:10095000DAE0DEBFCDBF11E0A0E0B1E0E2E2F9E60F
:1009600002C005900D92A43DB107D9F723E0A4ED94
:10097000B1E001C01D92AB3BB207E1F70E94592BD9
:100980000C948F340C94000080B38C7080BB81B3C6
:10099000836F81BB089584B1807F84B985B1807FE6
:1009A00085B98AB1837F8AB98BB1837F8BB93E9831
:1009B00046980895CF93E82F873080F58091000105
:1009C00090910101892B09F047C0CE2F64E670E0B9
:1009D00080E40E9448069093010180930001892BD6
:1009E000D1F464E670E082E10E949F0690930101D9
:1009F00080930001892B79F481E090E001C0880F99
:100A0000CA95EAF764E670E080950E949F0690938D
:100A1000010180930001CF910C94F40690E0FC0159
:100A20003797E730F105C0F4EA5AFF4F0C9434349D
:100A3000209A289811C0219A29980EC0229A2A98A3
:100A40000BC0239A2B9808C0529A5A9805C0539A03
:100A50005B9802C03E9A4698CF91089508950C94F1
:100A60002E050C942E05CF93DF930E94660790E02D
:100A700090930101809300010E94CB040E94C40462
:100A8000E7E3F2E0A9E2B2E085ED91E011921D9278
:100A9000EC0126E019922150E9F7069622E0E534B0
:100AA000F207A1F7DF91CF910C948E080E946607A0
:100AB00090E090930101809300010E94CB040E947A
:100AC000C404E7E3F2E0119282E0E534F807D9F7D5
:100AD0000895CF93DF93E62FF0E0E75DFD4F40816F
:100AE0004827808386E0689FF0011124EB52FE4F77
:100AF00020E030E080E061E070E050E0AAE0B22F5A
:100B00009081992319F09150908307C0EB01022E38
:100B100001C0CC0F0A94EAF78C2BEA0102C0D595EC
:100B2000C795BA95E2F7C0FDA0832F5F3F4F31967E
:100B30002630310521F7DF91CF910895CF93DF93D0
:100B4000D82F8730F0F58091000190910101892B19
:100B500009F040C064E670E080E40E94480690938B
:100B6000010180930001892B11F0C0E027C064E6E9
:100B700070E083E10E949F06909301018093000141
:100B8000892B99F764E670E081E40E94480690930F
:100B9000010180930001892B41F784E690E00E94D7
:100BA000CF0697FF05C09093010180930001DDCF30
:100BB000C82FC09510920101109200010E94F40606
:100BC0000AC08FB1CFB1C07FC695C6958370C82BC0
:100BD000C09501C0C0E06D2F8C2F0E946905ED2FDC
:100BE000F0E0E95CFD4F282F2095908192238C2323
:100BF000892BDF91CF9108950F931F93CF93DF93AC
:100C00008091000190910101892B91F08091D40194
:100C10008F5F8093D40181110BC00E94660790E022
:100C20009093010180930001892B11F40E94F80632
:100C300007E312E0C0E08C2F0E94DA04D7E0DC0F5B
:100C40008D2F0E94DA048C2F0E949E05F80181935B
:100C50008F018D2F0E949E05F80186830E94CB0490
:100C6000CF5FC73041F70E94980881E0DF91CF91B4
:100C70001F910F910895E82FF0E0E95CFD4F80810E
:100C8000089508951092B9008CE08093B8000895FB
:100C9000EF92FF920F931F93CF93DF93182FEB01E7
:100CA0001092BC0084EA8093BC000E94DA247C018C
:100CB0008091BC0087FD0EC0CF3F8FEFD807C1F3F6
:100CC0000E94DA248E199F098C179D0788F38EEFF6
:100CD0009FEF2EC08091B900887F883041F08091CD
:100CE000B900887F803119F08FEF9FEF21C01093FA
:100CF000BB0084E88093BC000E94DA248C018091C0
:100D0000BC0087FD0CC0CF3F8FEFD807C1F30E9416
:100D1000DA24801B910B8C179D0788F3D8CF809124
:100D2000B900887F883111F08034F1F680E090E0DE
:100D3000DF91CF911F910F91FF90EF9008950F9346
:100D40001F93CF93DF93EB018093BB0084E88093E4
:100D5000BC000E94DA248C018091BC0087FD0EC08B
:100D6000CF3F8FEFD807C1F30E94DA24801B910B8D
:100D70008C179D0788F38EEF9FEF0CC02091B90070
:100D8000287F81E090E0283211F480E090E0919596
:100D900081959109DF91CF911F910F9108950F9344
:100DA0001F93CF93DF93EC0184E88093BC000E94F3
:100DB000DA248C018091BC0087FD0EC0CF3F8FEFFD
:100DC000D807C1F30E94DA24801B910B8C179D0772
:100DD00088F38EEF9FEF03C08091BB0090E0DF911E
:100DE000CF911F910F91089584E98093BC000895DD
:100DF00056985E9825982D9826982E9827982F9883
:100E00008FEF90E0909389008093880090938B00FF
:100E100080938A0090938D0080938C00259A2D9A60
:100E20002FEF80E792E0215080409040E1F700C032
:100E30000000269A2E9A2FEF80E792E02150804002
:100E40009040E1F700C00000279A2F9A2FEF80E72B
:100E500092E0215080409040E1F700C000002598CA
:100E60002D982FEF80E792E0215080409040E1F7ED
:100E700000C0000026982E982FEF80E792E02150C6
:100E800080409040E1F700C0000027982F985698C6
:100E90005E9825982D9826982E9827982F98089533
:100EA00089EA8093800089E08093810024982C98BF
:100EB0003F988AB18F7C8AB96E98479A8BB18063CC
:100EC0008BB9769A0E94F8060C942F0580E290E088
:100ED00090930101809300018091450281110EC021
:100EE0000E94420681E0809345022FEF83ED90E35C
:100EF000215080409040E1F700C0000064E670E0BF
:100F000080E40E9448069093010180930001892BA0
:100F100009F04EC064E670E080E00E949F06909366
:100F2000010180930001892B09F042C064E670E062
:100F300080E00E949F069093010180930001892B1D
:100F4000B9F564E670E08FE30E949F06909301017B
:100F500080930001892B61F50E94F40664E670E03D
:100F600080E40E9448069093010180930001892B40
:100F7000F9F464E670E08CE00E949F069093010112
:100F800080930001892BA1F464E670E080E00E9468
:100F90009F069093010180930001892B49F464E638
:100FA00070E08FE30E949F069093010180930001FF
:100FB0000E94F406809100010895611108C0FC01AF
:100FC0008281882321F08CE292E00E948B0880E0ED
:100FD00090E00895813F9C4541F4FB018281882384
:100FE00029F00E94C32380E0089581E00895CF9204
:100FF000DF92EF92FF926B017C010E94F9225698DA
:101000005E9825982D9826982E9827982F9890E0EE
:1010100088309105E8F4FC01E35AFF4F0C94343416
:1010200084E00E94100E14C080E00E94100E259AE9
:101030002D9A0EC0259A2D9A269A2E9A09C0259A85
:101040002D9A04C0259A2D9A269A2E9A279A2F9A7D
:10105000C701B601FF90EF90DF90CF90089581E037
:1010600008950C94EA07CF9390E0FC01EA55FA4FFB
:10107000C491FC01EA5DF94F8491882359F081EE17
:101080000E94C0178C2F0E94C0178C2F0E94EA1854
:1010900081EE04C08C2F0E94C0178C2FCF910C942E
:1010A000EA180F931F93CF93DF93EC01062FFE01F5
:1010B0008491882359F19E012F5F3F4F813041F485
:1010C000E901F9011491812F0E94C017812F0DC0F1
:1010D000823031F4E901F90184910E94C0170AC0FD
:1010E000833031F4E901F90184910E94EA1802C0C9
:1010F0000E9433082196802F8823C9F2EFE9FFE090
:101100003197F1F700C000008150F6CFDF91CF9109
:101110001F910F91089560E00C9451080E9449239B
:10112000811102C00E94C3230E94FA0D0C94500743
:101130000C943105282F2F7041F0822F90E02A3037
:1011400010F44D9608950697089587E290E008956B
:1011500008950C94A8080C94A90808950E94601C96
:101160000E94AD082FEF84E39CE021508040904026
:10117000E1F700C000000C943625FF920F931F93F7
:10118000CF93DF938C01FC01C081D18180919002CB
:10119000811113C08281882349F0CE010E94C421AD
:1011A000F82E682FCE010E946B2104C0CE010E9450
:1011B0009721F82EBE018F2D04C0CE010E94C421BC
:1011C000BE010E94600BEC01B8010E943108882327
:1011D00009F46EC2B801CE010E94790E882309F489
:1011E00067C2CC3CFCE5DF0741F4F801828188232B
:1011F00009F45EC20E949C0F5BC2CD3C8CE5D8070F
:1012000008F01EC1C43C9CE5D90761F4F801828155
:10121000882309F44DC20E9445228272E1F40E94A3
:10122000BF1146C2C53CECE5DE0708F0C7C0C531BA
:10123000FCE5DF0798F0C23CFCE5DF0709F48CC051
:1012400008F492C0F8018281882309F431C20E9417
:101250004522827221F70E94B1112AC2C2308CE568
:10126000D80708F452C0F8018281882309F459C0D4
:101270000E944923811102C00E94C3230E945C2363
:1012800090E09093AD038093AC03FE01E350FC45E6
:10129000E231F10530F4EB59FF4F8091AC030C942F
:1012A00034348091AC03816027C0826025C08460A3
:1012B00023C0806121C080621FC080641DC080681F
:1012C0001BC08460886018C08E7F16C08D7F14C0DC
:1012D0008B7F12C08F7E10C08F7D0EC08F7B0CC0A5
:1012E0008F770AC08B7F877F07C087FB222720F973
:1012F00091E0922790FB87F98093AC038091AC0337
:101300000E9460230E94601CD3C1C1159CE5D907CF
:1013100081F0C130DC45A9F081E080934B028093DD
:101320004C02C801DF91CF911F910F91FF900C9457
:101330002F08F8018281882309F4BAC10E94AE08FF
:10134000B7C1F8018281882309F4B2C180912F03CB
:10135000816080932F03ACC1F8018281882309F456
:10136000A7C10E942312A4C1C631DC45A9F60E9480
:101370004522982FF801828120910F0130911001B0
:10138000882379F09A7A81E009F480E0809346021C
:10139000911102C069E201C065E3C9010E942B24DA
:1013A0000AC080914602811102C069E201C065E372
:1013B000C9010E9436240E9496227AC1F8018281D6
:1013C000C83CFCE5DF0731F4882309F471C10E94B1
:1013D00018116EC1C93C9CE5D907C8F4C63CECE5C0
:1013E000DE0731F4882309F463C10E94EA1060C16A
:1013F000C73CDC4530F4882309F45AC10E94C71069
:1014000057C1882309F454C10E94011151C1CA3C3B
:101410009CE5D90731F4882309F44AC10E94581188
:1014200047C1CB3CDC4530F4882309F441C10E941C
:1014300038113EC1882309F43BC10E94870F38C18F
:10144000C43DFCE5DF0791F4F8018281882309F4AB
:101450002FC10E947E0F893128F00E947E0F8232B8
:1014600008F4F9CE89E10E94C21122C1C53D8CE584
:10147000D80708F068C0F8018281C03DFCE5DF07AD
:1014800071F4882309F414C10E947E0F893028F07A
:101490000E947E0F8E3008F4DECE89E0E4CFC13D9D
:1014A0009CE5D90740F5CE3CECE5DE0771F48823D6
:1014B00009F4FEC00E947E0F823028F00E947E0F49
:1014C000853008F4C8CE82E0CECFCF3CDC4528F48E
:1014D000882309F4EDC081E0C6CF882309F4E8C071
:1014E0000E947E0F863028F00E947E0F883008F41C
:1014F000B2CE86E0B8CFC23D9CE5D90771F488230F
:1015000009F4D6C00E947E0F853128F00E947E0F1C
:10151000873108F4A0CE85E1A6CFC33DDC4570F449
:10152000882309F4C5C00E947E0F8F3028F00E94E6
:101530007E0F843108F48FCE8FE095CF882309F495
:10154000B7C088E190CFC93DFCE5DF0759F5F80148
:101550008281882361F010924C020E94DA249093D9
:101560004A028093490280E20E945A19A1C08091E8
:101570004C02882321F080E20E94611999C0809179
:10158000490290914A020E94E624883C910598F70E
:1015900080E20E94611988E20E94C01788E20E94DE
:1015A000EA1886C0CA3D8CE5D80708F060C0C73D80
:1015B0009CE5D90761F5F8018281882351F01092EA
:1015C0004B020E94DA24909348028093470282E003
:1015D000CBCF0E94452285FF05C081E080934B025E
:1015E00080934C0280914B0281110FC08091470281
:1015F000909148020E94E624883C910530F486E2EE
:101600000E94C01786E20E94EA1882E0B5CFC83D6A
:10161000ECE5DE0710F1F801828181119CCF0E9478
:10162000452281FF05C081E080934B0280934C02EC
:1016300080914C0281119FCF8091490290914A0282
:101640000E94E624883C910508F095CF87E20E942D
:10165000C01787E20E94EA188ECFC53DDC4509F02D
:101660005BCEF8018281882319F183E2FCCECD3D67
:101670008CE5D80741F4F80182818823C9F082E023
:101680000E94F82B15C0CE3D9CE5D90739F4F8012E
:101690008281882369F00E94C3230AC0CC3DDC45C7
:1016A00009F03ACEF8018281882311F080E0E8CF7A
:1016B00080E0DF91CF911F910F91FF9008950895E1
:1016C00024E5829FC0011124FC0126E0729FE00DF9
:1016D000F11D1124E60FF11DEE0FFF1FE25AFD4F21
:1016E000859194910895880F991FFC01E65AFD4F4A
:1016F000859194910895CF93DF930E94600B0E948F
:10170000440DEC018115904508F041C0C11580E4FD
:10171000D80708F02DC1C83ED10510F5C03ED1054F
:1017200008F0AEC1C83AD10578F4C53AD10508F041
:10173000A7C0C130D10509F4A3C108F454C1C43015
:10174000D10508F09DC14FC1CF3BD10508F4A3C01E
:10175000C03CD10508F447C1CE01805C9109FAC0B4
:10176000C11590E2D90758F4C11521E0D20708F05D
:1017700087C1C03FD10508F436C1D06581C1C1150C
:1017800080E3D80708F0EAC0CE019F70E3C0C1151E
:1017900095E5D90708F043C0C11524E5D20708F044
:1017A000FEC0C11582E5D80708F5C11591E5D90736
:1017B00008F0E1C0CE0174E0969587957A95E1F73F
:1017C00083709C2F937021E030E002C0220F331F02
:1017D0009A95E2F73C68382BCF70C695C69580E2A3
:1017E000C89FE0011124C22BD32B4AC19E01237054
:1017F00033278C2F86958695C115D34508F0C0C038
:10180000C1E0D0E002C0CC0FDD1F2A95E2F720E254
:10181000829FC0011124C82BD92BDC6831C1C115AE
:101820002AE5D207A0F4C11589E5D80708F0C6C09B
:10183000C11596E5D90708F4B7C0C11528E5D20748
:1018400008F4D1C0DC2FCC27C06FD06A19C1C115F4
:101850008BE5D80708F4C7C0C1159CE5D90708F483
:10186000BFC0CE0190568115904208F0BCC08D2FAC
:101870008F710E94C00DDD27D0628F71D82B00C1FF
:10188000C53AD10509F4B2C0C63AD10509F0B1C0D4
:10189000C2E8D0E4F5C0C83AD10509F4ADC0C93AF0
:1018A000D10509F4ACC0CA3AD10509F4ABC0CB3AB2
:1018B000D10509F4AAC0CC3AD10509F4A9C0CB3BA3
:1018C000D10509F4A8C0CC3BD10509F4A7C0CD3A95
:1018D000D10509F4A6C0C03BD10509F4A5C0CE3A94
:1018E000D10509F4A4C0CF3AD10509F4A3C0C13B86
:1018F000D10509F4A2C0C23BD10509F4A1C0C33B84
:10190000D10509F4A0C0C43BD10509F49FC0C53B73
:10191000D10509F49EC0C63BD10509F49DC0C73B63
:10192000D10509F49CC0C83BD10509F49BC0C93B53
:10193000D10509F49AC0CD3BD10509F499C0CE3B3D
:10194000D10509F498C0CA3BD10509F497C0C0E09D
:10195000D4E496C00E94730BEC0192C0CE0199278B
:10196000D3FF03C0EC01D86C8BC0EC01D06C88C0F5
:10197000DF70D06A85C0DC2FCC27C16FD06A80C0F1
:10198000C1E0D0E002C0CC0FDD1F2A95E2F720E2D3
:10199000829FC0011124C82BD92BDA6871C0DC2FBB
:1019A000CC27C46FD06A6CC08C2F0E94C00D8F7181
:1019B000C82FD0E0DC2FCC27D06262C08C2F8F7074
:1019C0000E94C00D94E0D695C7959A95E1F7CF7027
:1019D000D0E0DC2FCC27D06A8F70806EC82B50C02F
:1019E000DD27D0664DC0C0E0D0E04AC0C1E8D0E4F9
:1019F00047C0C3E8D0E444C0C2EED4E441C0C9EE5D
:101A0000D4E43EC0CAEED4E43BC0C5EBD4E438C055
:101A1000C6EBD4E435C0C3EBD4E432C0C4EBD4E4A9
:101A20002FC0C7EBD4E42CC0CCECD4E429C0CDEC5F
:101A3000D4E426C0C3E8D5E423C0CAE8D5E420C076
:101A4000C2E9D5E41DC0C4E9D5E41AC0C1E2D6E4B8
:101A500017C0C3E2D6E414C0C4E2D6E411C0C5E2A4
:101A6000D6E40EC0C6E2D6E40BC0C7E2D6E408C096
:101A7000CFE6D4E405C0C0E7D4E402C0CAE2D6E4AD
:101A8000CE01DF91CF9108958238910549F1B0F4EC
:101A90008133910509F459C048F48932910509F45C
:101AA0004FC08A32910509F455C0089585339105D8
:101AB00009F441C08933910599F00895833E910559
:101AC00031F138F4803E910591F0823E9105A9F004
:101AD0000895863E910501F1873E910539F10895FB
:101AE0002091AC0320FD3BC021FD39C008958091B9
:101AF000AC0380FF34C089E341C08091AC0382FF16
:101B000030C08091AC0384FD2EC083EE37C080913D
:101B1000AC0382FD26C0F5CF8091AC0383FF25C0C6
:101B20008091AC0384FD1FC087EE28C08091AC0378
:101B300083FD1BC0F5CF8091AC0385FD18C019C093
:101B40008091AC0385FD15C012C08091AC0386FD69
:101B500012C013C08091AC0386FD0FC00CC080EE94
:101B60000DC082EE0BC080E009C086EE07C089E29E
:101B700005C085E303C08AE201C081E390E00895D7
:101B80009091AC0392FF0DC0282F2871283019F4D2
:101B9000877F846006C0282F2471243011F48B7F46
:101BA000886093FF0DC0282F2871283119F4877E93
:101BB000846106C0282F2471243111F48B7E886142
:101BC00094FD877E0895CF93DF93813020E89207BC
:101BD00068F0FB012281222349F0EC010E94140EDF
:101BE000CE019F770E945C0E0E94490E81E0DF913A
:101BF000CF9108958CE090E00E94473490E0A0E0FF
:101C0000B0E08093610390936203A0936303B09369
:101C100064030895609161038CE090E00C945B3460
:101C2000809361030C940A0E0E94452280934D021A
:101C30000E94582280916103813071F048F0823017
:101C4000D9F08430F9F486EE0E94521988E118C068
:101C500082EE0E94C01716C080EE0E94C01781EE6F
:101C60000E94C01788E10E94521981EE0E94EA1872
:101C700080EE0E94EA1806C082EE0E94C01787E537
:101C80000E9452198FE39CE90197F1F700C0000010
:101C9000089580916103813021F038F0823029F07D
:101CA00007C08CE20E94521903C082EE0E94EA181B
:101CB00080914D020C9455220F931F93CF93DF9385
:101CC0008C01CCE0D0E0C8010C2E02C0969587951F
:101CD0000A94E2F78F700E949A080E945219249782
:101CE000CC3F8FEFD80779F7DF91CF911F910F91FC
:101CF00008950F931F93CF93DF93EC018B01FB01AA
:101D00008281882319F1C33EFCE5DF07C1F050F45E
:101D1000C13EECE5DE0781F0C23EFCE5DF07B1F431
:101D200081E010C0C43E8CE5D80759F0C53EECE513
:101D3000DE0761F484E006C01092610305C082E012
:101D400001C083E0809361030E940A0EB801CE01B6
:101D5000DF91CF911F910F910C94E30DEF92FF92C1
:101D60000F931F93CF93DF93E901662309F44BC0D0
:101D7000242F30E0EFEFF0E0E61BF109B901E69F18
:101D80009001E79F300DF69F300D1124232F8B011A
:101D9000031B11095CE3E52EF12CB7010E940C3402
:101DA000FB01BC01069FC001079F900D169F900D7F
:101DB0001124B7010E940C34E230F105B1F040F477
:101DC000309779F0319711F5832F242F461B21C0CE
:101DD000E430F105A1F068F03597C1F4842F861B3B
:101DE00018C0832F262F230F14C0862F830FE42FB4
:101DF00003C0E42FE61B842F432F2E2F0AC0842F0D
:101E0000462F430F06C0842F242F03C080E020E01C
:101E100040E0E42FF0E0EE53F94F4491E22FF0E080
:101E2000EE53F94F9491E82FF0E0EE53F94FE4911F
:101E300049839883EA83DF91CF911F910F91FF909F
:101E4000EF90089580916503282F26952F7330E039
:101E50002115310519F48178826005C025323105DC
:101E600024F0817888648093650330916503432F63
:101E7000441F4427441F20916603522F550F852F7E
:101E8000842B27FB992790F9893641E094077CF051
:101E900068E671E00E94203480FB37F930936503D7
:101EA00086952078822B90FB87F9809366030895AE
:101EB00088E090E00C944F34CF92DF92EF92FF9243
:101EC0006B017C010E94220FB701A60188E090E01F
:101ED000FF90EF90DF90CF900C946D34E5E6F3E047
:101EE00083E08083109266038FEF82838383148262
:101EF00060817181828193810C945C0F8091650374
:101F000080FF03C086958F73089580E008958091C7
:101F1000690390E001968430910514F083E090E02D
:101F200080936903609165037091660380916703F4
:101F3000909168030C945C0F8091690390E0019785
:101F400097FF02C080E090E08430910514F083E0B8
:101F500090E08093690360916503709166038091BE
:101F60006703909168030C945C0F8091650380FF78
:101F700006C06FE070E08AE693E00C94BD15EAE6D7
:101F8000F3E0118210821282349683E0E63AF80779
:101F9000C1F7EFCF9091650390FF0CC0EAE6F3E044
:101FA000818360834283349693E0E63AF907C1F770
:101FB0000C94B50F0895CF93DF9300D000D0CDB728
:101FC000DEB72091650320FF0AC09E012F5F3F4FBF
:101FD0000E94AE0E4B8169818A810E94CA0F0F90C8
:101FE0000F900F900F90DF91CF9108955F926F92B5
:101FF0007F928F929F92AF92BF92CF92DF92EF9299
:10200000FF920F931F93CF93DF9300D000D0CDB7F3
:10201000DEB78C01E62EF42E522E8091650380FFF0
:1020200089C0982F9E77923061F49E012F5F3F4FB9
:10203000C8010E94AE0E4B8169818A810E94CA0F3D
:1020400059C0E82FE695EF739EE39E0F9F7394307F
:1020500018F4F09068034EC09AE39E0F9F73993076
:1020600068F4881F8827881F90916603292F220F04
:10207000022F082B97FB112710F93CC087E28E0F27
:102080008F738A30B8F5F0E07997E0FD02C021E067
:1020900001C02FEFEE7FE854F94F859194916FE0E6
:1020A00070E00E940C3426034001279F900C1124FD
:1020B000580188E9A81A8EEFB80A8AE6C82E83E08C
:1020C000D82E98E6692E77247394C501B3010E9437
:1020D0000C3496014F2D6E2D0E94AE0EA80CB91C2B
:1020E00084E0C80ED11C86EAC81683E0D80669F7DA
:1020F0000E94B50F8091650300FB87F9809365030B
:10210000902F9695809166038078892B10FB87F934
:1021100080936603E0926703F0926803552051F0C4
:1021200060916503709166038091670390916803E5
:102130000E945C0F0F900F900F900F90DF91CF9146
:102140001F910F91FF90EF90DF90CF90BF90AF90D5
:102150009F908F907F906F905F900895282FE5E675
:10216000F3E03081331F3327331F40916603542F30
:10217000550F852F832B47FB992790F90C9668E61E
:1021800071E00E942034438162810C94F60F81E05B
:102190000C94AE10282F30916503331F3327331F63
:1021A00040916603542F550F852F832B47FB9927AA
:1021B00090F98C3091051CF4845A9E4F05C00C9701
:1021C00068E671E00E9420344091680360916703E3
:1021D0000C94F60F81E00C94CA10E5E6F3E0308130
:1021E000331F3327331F90916603592F550F97FBE9
:1021F000992790F9282F43816FEF852F832B0C941B
:10220000F60F81E00C94ED10E5E6F3E03081331F2A
:102210003327331F90916603592F550F97FB99274A
:1022200090F9282F438160E0852F832B0C94F60FC3
:1022300081E00C94041140916803242F30E0243F86
:10224000310514F4445F01C04FEF30916503331F33
:102250003327331F90916603592F550F97FB99270A
:1022600090F9282F60916703852F832B0C94F60F2C
:1022700081E00C941B1140916803242F30E02C3036
:10228000310514F04C5001C040E030916503331F1C
:102290003327331F90916603592F550F97FB9927CA
:1022A00090F9282F60916703852F832B0C94F60FEC
:1022B00081E00C943B1120E00C94F60FCF939091A9
:1022C000650390FF40C09178811102C0926007C001
:1022D000853210F0986403C08F73880F982B909309
:1022E0006503662351F060916503709166038091E8
:1022F0006703909168030E945C0FC09165036C2F87
:1023000066956F7370E04BE050E084E091E00E94CE
:102310003A34892B19F010926B0203C081E080934C
:102320006B02CC1FCC27CC1F90916603892F880F9E
:1023300097FB992790F940916803609167038C2B74
:10234000CF910C945B11CF910895682F9091650304
:1023500096959F7381E0890F853208F081E00C9497
:102360005E1181E00C94A511682F909165039695FC
:102370009F738FEF890F09F484E20C945E1181E062
:102380000C94B41161E00C945E11E5E6F3E08081F9
:102390008160808386958F730C94C21160E00C94E9
:1023A0005E1180916C02811135C080912F03816094
:1023B00080932F030E944923811104C00E94C323EC
:1023C0000E946E0F0E94580F60936503709366031E
:1023D00080936703909368036E7761F40E946E0F99
:1023E0000E94580F609365037093660380936703A0
:1023F000909368030E94220F81E080936B0280918A
:10240000650380FF04C086958F730E94CE1181E022
:1024100080936C020895E5E6F3E080818E7F8083EF
:1024200060817181828193810E945C0F10926B02A6
:102430002FEF80E792E0215080409040E1F700C00C
:1024400000000C94B50F8091650380FD0C940B1275
:102450000C94C511CF93E82FF0E0EC54F94FC491E0
:102460008091690290916A020E94E624EC2FF0E0CC
:102470008E179F0708F443C00E94DA2490936A02E3
:10248000809369026091680270E080E090E00E94B1
:102490000D3220E030E04FE753E40E9430312BED65
:1024A0003FE049E450E40E9436330E94A3330E9487
:1024B000AA312BE43AE34EE25FE30E94C33020EFFF
:1024C0003BEF48ED52E40E9436330E94DC31462F48
:1024D00080916503881F8827881F90916603292FA4
:1024E000220F97FB992790F960916703822B0E9436
:1024F000DB0F8091680290E0019680936802CF9193
:102500000895CF93E82FF0E0EF54F94FC4918091F4
:102510006602909167020E94E624EC2FF0E08E178D
:102520009F07E8F00E94DA24909367028093660286
:102530004091680360916703809164029091650205
:102540000E94DB0F8091640290916502019668E61B
:1025500071E00E940C349093650280936402CF91E5
:102560000895CF92DF92FF920F931F93CF93DF9343
:10257000F82EE82FE695F0E0E255F94FC4918091EE
:102580006202909163020E94E624EC2FF0E08E1725
:102590009F07B8F10E94DA2490936302809362024D
:1025A0000AE613E0C0E0D0E088E6C82EDD24D3942C
:1025B00080916002909161028C0F9D1FB6010E9474
:1025C0000C34980140916803609167030E94AE0E3D
:1025D00068960C5F1F4FC83681E0D80749F70E9404
:1025E000B50F8091600290916102F0FE05C00196E6
:1025F000BE010E940C3401C0019790936102809348
:102600006002DF91CF911F910F91FF90DF90CF90EB
:102610000895CF92DF92EF92FF920F931F93CF9383
:10262000DF9380FF02C01FEF01C011E08695E82F05
:10263000F0E0E555F94FC49180915E0290915F0200
:102640000E94E624EC2FF0E08E179F0708F45BC091
:102650000E94DA2490935F0280935E022AE6E22EC3
:1026600023E0F22EC0E0D0E0F70111821082128246
:1026700094E0C92ED12C00E080915D02800F87FD8F
:10268000815F082E000C990BC817D907E9F48091D7
:1026900068038C9DA0018D9D500D11245595479583
:1026A0005595479580916503881F8827881F9091CD
:1026B0006603592F550F97FB992790F99701609161
:1026C0006703852B0E94AE0E010FF1E0CF1AD108EF
:1026D00099F6219684E0E80EF11CCF30D10521F661
:1026E0000E94B50F80915D02113031F4811102C05A
:1026F0008EE007C0815005C090E00196BE010E94A7
:10270000203480935D02DF91CF911F910F91FF9054
:10271000EF90DF90CF9008950F931F93CF93DF93A7
:10272000E82FF0E0E855F94FC49180915B02909159
:102730005C020E94E624EC2FF0E08E179F0708F45D
:1027400056C00E94DA2490935C0280935B02CAE632
:10275000D3E0FE01118210821282349683E0E63AC1
:10276000F807C1F700E010E080915A02082E000C33
:10277000990B08171907ECF080910301082E000C43
:10278000990B80179107ACF080916503881F88270B
:10279000881F90916603592F550F97FB992790F941
:1027A0009E014091680360916703852B0E94AE0EE5
:1027B00003C0198218821A820F5F1F4F24960F30B0
:1027C000110591F60E94B50F8091020190915A0275
:1027D000980F90935A0220910301280F2093030130
:1027E000121614F49E301CF0819580930201DF9143
:1027F000CF911F910F910895EF92FF920F931F9326
:10280000CF93DF9380915802909159020E94E62461
:10281000883E9340D0F10E94DA249093590280932D
:102820005802C0915602D09157022196C170DD27FF
:10283000D0935702C09356028AE6E82E83E0F82E22
:1028400010E008E7812F8695FE01E80FF11DCF010A
:102850008170992797014091680360916703FC019B
:102860000E9FC0010F9F900D11240E94AE0E1F5F9E
:10287000F4E0EF0EF11C1F3029F7DF91CF911F918B
:102880000F91FF90EF900C94B50FDF91CF911F91B6
:102890000F91FF90EF900895CF93DF9300D000D079
:1028A000CDB7DEB780915402909155020E94E62484
:1028B000E6EAF6E02591349182179307C0F1809102
:1028C000530281110CC09E012F5F3F4F4FEF6FEFFE
:1028D00080E090E00E94AE0E8A81809353020E94B5
:1028E000DA249093550280935402809152028130F1
:1028F00051F028F0823061F4409153020AC0809177
:10290000530240E007C06091530240E080E003C002
:1029100040E080E060E00E94CA0F8091520290E0A7
:10292000019663E070E00E942034809352020F9081
:102930000F900F900F90DF91CF9108950F931F93F9
:10294000CF93DF9380915002909151020E94E62430
:10295000843F914008F448C00E94DA2490935102C9
:1029600080935002CAE6D3E000E010E020914E02CE
:1029700030914F02809165039091660307301105F5
:102980001CF4232B79F002C0232B61F4881F8827C5
:10299000881F592F550F97FB992790F99E01409159
:1029A00068030AC0881F8827881F592F550F97FB77
:1029B000992790F99E0140E060916703852B0E9462
:1029C000AE0E0F5F1F4F24960F30110579F60E944F
:1029D000B50F80914E0290914F0201968170992718
:1029E00090934F0280934E02DF91CF911F910F91F0
:1029F000089580916B028823D9F190916503892F06
:102A000086958F732EE3280F2F73243018F482508D
:102A10000C942A122AE3280F2F73233018F48650BF
:102A20000C94811227E3280F2F73263018F4895055
:102A30000C94B11221E3280F2F73263018F48F5015
:102A40000C9409132BE2280F2F73233018F48551AF
:102A50000C948C13892F8E77803311F40C94FC1313
:102A6000863411F40C944C14883411F40C949E1494
:102A70000895882319F05198599A02C0519A59988B
:102A80005098589A95E09A95F1F70000509A589806
:102A900095E09A95F1F70000882311F0519A599822
:102AA00085E08A95F1F7000008958BB18C7F8BB992
:102AB0005098589A5198599A85E08A95F1F70000F4
:102AC00008958AB18C7F8AB985E08A95F1F7000074
:102AD000519A599885E08A95F1F70000509A5898D4
:102AE00085E08A95F1F7000008955098589A85E09E
:102AF0008A95F1F700005198599A85E08A95F1F787
:102B000000000895CF93DF93D82FC8E08D2F8078F1
:102B10000E943915DD0FC150C9F780E00E943915B8
:102B200085E08A95F1F7000085E08A95F1F70000CD
:102B300080E0DF91CF9108952BB1342F309523237E
:102B40003BB1432B3FB7F894FC01680F791FE617A0
:102B5000F70789F0819198E04BB9000000C087FF2A
:102B60002BB9880F000000C000C000C02BB900C006
:102B70009A9591F7ECCF3FBF0895AF92BF92CF9255
:102B8000DF92EF92FF920F931F93CF93DF938C010D
:102B9000EB01CFB6D090BC00F8948091BC008B7F45
:102BA0008093BC000E9455150E94611584E80E9424
:102BB0008215CC0FDD1FCC0FDD1F78015801AC0E44
:102BC000BD1EEA14FB0431F0F70181917F010E94E0
:102BD0008215F7CF0E947515CFBED092BC00579AD0
:102BE00040E8BE01C801DF91CF911F910F91FF9086
:102BF000EF90DF90CF90BF90AF900C949C15909386
:102C00007202809371020895E0917102F091720254
:102C1000309721F00190F081E02D099480E0089533
:102C2000E0917102F0917202309799F020912001A9
:102C3000222359F02091AC0327FF07C0DC012C911F
:102C400011962C93119725E02C930280F381E02DAF
:102C500009940895E0917102F0917202309739F071
:102C600022E0DC012C930480F581E02D0994089585
:102C700020916F02309170022817390771F09093FC
:102C8000700280936F02E0917102F09172023097AE
:102C900021F00680F781E02D0994089520916D02BE
:102CA00030916E022817390771F090936E0280936D
:102CB0006D02E0917102F0917202309721F0008470
:102CC000F185E02D0994089585B7806885BF85B7A3
:102CD000806885BF089508950C946B160C946C164B
:102CE0000C946B160C946B160E9464160E9470165E
:102CF0000C946E1681E008950E94D1240E94330541
:102D00000E9468250E94D1110C947216BF92CF9236
:102D1000DF92EF92FF920F931F93CF93DF93CDB784
:102D2000DEB72A970FB6F894DEBF0FBECDBF0E9464
:102D3000FC050E947A16811111C08FEF89838A8366
:102D40001B820E94DA248160782F9D838C834981C5
:102D50005A816B818D810E946B1754C084E7C82E05
:102D600082E0D82E00E010E0B02E802F0E943B06BB
:102D7000E82EF60121916F01F82EF22631F40F5F53
:102D80001F4F0E30110581F7D8CF80912F0381FDA1
:102D90000E94410680E090E02F2D30E0482FB901DD
:102DA000082E02C0759567950A94E2F760FF25C06A
:102DB0008E83BF8281E090E06C0102C0CC0CDD1CF0
:102DC0004A95E2F72E2D30E02C213D21232B09F4EA
:102DD00080E088870E94DA248160782F9A8789872B
:102DE0004E815F8168858A850E946B17F801EC58D7
:102DF000FD4F80818C25808305C00196863091052A
:102E000069F6BDCF0E94FB260E94041690917302C2
:102E10008917A9F00E940416809373022A960FB6B0
:102E2000F894DEBF0FBECDBFDF91CF911F910F9100
:102E3000FF90EF90DF90CF90BF900C94AB082A9654
:102E40000FB6F894DEBF0FBECDBFDF91CF911F91BB
:102E50000F91FF90EF90DF90CF90BF900895DC012D
:102E600011962C9111978C91682F70E041E050E001
:102E700001C0440F8A95EAF712968C91129730E0C0
:102E8000882329F0809192028823E9F006C0F90195
:102E9000EE57FD4F90819423B1F086E0829FF001C0
:102EA000839FF00D1124E60FF71FEE0FFF1FEF5D5C
:102EB000FE4F808191818D939C93F901EE57FD4FD8
:102EC0008081482B06C0F901EE57FD4F4095808167
:102ED000482340830895CF93DF93CDB7DEB72B9778
:102EE0000FB6F894DEBF0FBECDBF942F4F83252FB2
:102EF000588769877A878B874A855B85452B31F0B0
:102F00002F3F31F481E09F3F19F403C081E001C0FD
:102F100080E080FD04C0CE0107960E942F17DE01DD
:102F2000119686E0FD0111928A95E9F785E0FE0190
:102F3000379601900D928A95E1F749815A816B810C
:102F40007C818D819E810E94301F2B960FB6F89454
:102F5000DEBF0FBECDBFDF91CF910895FC01808110
:102F600091810E94062292959F70963041F4809143
:102F7000920291E0892780939202909391020895A2
:102F8000CF93882309F424C1C82F8238C1F40E944A
:102F9000041681FD1DC169E380910F01909110011C
:102FA0000E942B240E9496222FEF81EE94E0215064
:102FB00080409040E1F700C0000069E319C0833809
:102FC00001F50E94041680FD03C163E580910F01A5
:102FD000909110010E942B240E9496222FEF81EEE7
:102FE00094E0215080409040E1F700C0000063E58C
:102FF00080910F01909110010E943624CF910C9482
:1030000096228438C1F40E94041682FDE1C067E470
:1030100080910F01909110010E942B240E94962212
:103020002FEF81EE94E0215080409040E1F700C006
:10303000000067E4DDCF8CEF8C0F813A68F48C2FB1
:103040000E94FF288111C4C06C2F80910F019091C4
:1030500010010E942B24D2CF80E28C0F883048F4DC
:10306000C77081E001C0880FCA95EAF70E94482224
:10307000C5CF8BE58C0F833078F4C53A29F0C63A7A
:1030800031F083E890E005C081E890E002C082E87A
:1030900090E0CF910C94381688E58C0F873108F0BA
:1030A0008FC0C83A09F445C0C93A09F445C0CA3AC4
:1030B00009F445C0CB3A09F445C0CC3A09F445C0FF
:1030C000CB3B09F445C0CC3B09F445C0CD3A09F4EB
:1030D00045C0C03B09F445C0CE3A09F445C0CF3ADB
:1030E00009F445C0C13B09F445C0C23B09F445C0E1
:1030F000C33B09F445C0C43B09F445C0C53B09F4D2
:1031000045C0C63B09F445C0C73B09F445C0C83BB0
:1031100009F445C0C93B09F445C0CD3B09F445C09D
:10312000CE3B09F445C0CA3B09F445C080E090E0BD
:1031300044C082EE90E041C089EE90E03EC08AEE4D
:1031400090E03BC085EB90E038C086EB90E035C066
:1031500083EB90E032C084EB90E02FC087EB90E0EF
:103160002CC08CEC90E029C08DEC90E026C083E868
:1031700091E023C08AE891E020C082E991E01DC07F
:1031800084E991E01AC081E292E017C083E292E004
:1031900014C084E292E011C085E292E00EC086E2A3
:1031A00092E00BC087E292E008C08FE690E005C095
:1031B00080E790E002C08AE292E0CF910C944E1634
:1031C000C03F30F08C2F0E940326CF910C94F02644
:1031D000CF910895882309F464C0823879F40E945D
:1031E000041681FF5EC069E380910F019091100188
:1031F0000E942B240E94962269E310C08338B1F408
:103200000E94041680FF4DC063E580910F019091EC
:1032100010010E942B240E94962263E580910F01E9
:10322000909110010E9436240C949622843879F4EF
:103230000E94041682FF35C067E480910F019091CF
:1032400010010E942B240E94962267E4E7CF9CEF96
:10325000980F913A10F4682FE1CF90E2980F9830D0
:1032600050F4877091E001C0990F8A95EAF7892F91
:103270000E944E22D9CF9BE5980F933020F480E036
:1032800090E00C94381698E5980F973120F480E080
:1032900090E00C944E16803F20F00E946B260C9418
:1032A000F0260895CF93C82F0E94C0178C2FCF917E
:1032B0000C94EA18882321F00E9448220C9496224C
:1032C0000895882321F00E944E220C94962208959E
:1032D0008F929F92AF92BF92DF92EF92FF920F93E5
:1032E0001F93CF93DF937C01D62FC72FFC0105815D
:1032F00002950F70128111110E9468220E943E22D5
:10330000882379F0112369F080E28D0F883048F02E
:1033100082E00E94E0220E943E2291E0D82ED9262F
:1033200001C0D12CBC2EB2948FE0B8228B2D90E03E
:10333000FC01E958FF4F0C9434348C2F807FCF7000
:10334000882311F0C295C07F112399F0CC2309F492
:10335000BCC180E28D0F883010F0D11104C08C2FD9
:103360000E94482203C08C2F0E945B220E9496225A
:10337000ACC18D2F0E94EA18CC2309F422C280E24E
:103380008D0F883010F0D11104C08C2F0E944E2276
:1033900003C08C2F0E9461220E94962212C28C2FA1
:1033A000807FCF70803211F0C295C07FDD2319F08D
:1033B000D130C9F021C0112371F0002341F0013058
:1033C00031F40E947B228C2B0E948322FAC10E943E
:1033D0007B228C2B33C1002319F0013009F4F1C199
:1033E0000E948C2211C0112321F0023008F0E9C1A3
:1033F00007C00111E6C108C0112321F0011165C108
:103400008C2F1CC1011172C18C2F1EC18C2F86956F
:103410008695837019F0813061F0D3C1112321F0BA
:103420008D2F9C2F937002C080E090E00E94381690
:10343000D5C1112321F08D2F9C2F937002C080E005
:1034400090E00E944E16CAC11123F9F0D53F51F009
:10345000D63F71F0D43FA9F48091A6039091A703C1
:1034600081600BC08091A6039091A703826005C084
:103470008091A6039091A70384609093A703809303
:10348000A6038D2F0E9403261EC0D53F51F0D63FC4
:1034900071F0D43FA9F48091A6039091A7038E7F89
:1034A0000BC08091A6039091A7038D7F05C08091EA
:1034B000A6039091A7038B7F9093A7038093A60305
:1034C0008D2F0E946B260E94F02688C18C2F83705E
:1034D00009F04CC011117EC12D2F22952695277021
:1034E000220F220F6D2F6F70862F90E0A0E0B0E0CA
:1034F0004C015D01022E04C0880C991CAA1CBB1C47
:103500000A94D2F7D4FF12C08FE090E0A0E0B0E0C0
:1035100004C0880F991FAA1FBB1F2A95D2F7BC01B0
:10352000CD01609570958095909503C060E070E046
:10353000CB01C695C695C370C23051F080F468299E
:1035400079298A299B29C13071F00E94812042C1CA
:10355000682979298A299B290E9493203BC10E94CE
:103560008120C501B4010E946F2034C1112319F0DC
:103570008C2F817001C08695882309F42BC12D2FD3
:10358000229526952770220F220F6D2F6F70862FA0
:1035900090E0A0E0B0E04C015D01022E04C0880C78
:1035A000991CAA1CBB1C0A94D2F7D4FF12C08FE04E
:1035B00090E0A0E0B0E004C0880F991FAA1FBB1FD5
:1035C0002A95D2F7BC01CD016095709580959095B4
:1035D00003C060E070E0CB01C695C695C370C230F1
:1035E00051F080F4682979298A299B29C13071F02A
:1035F0000E944621EFC0682979298A299B290E94C7
:103600005821E8C00E944621C501B4010E9434211E
:10361000E1C08D2F90E0FC01E05EF109E531F1059C
:1036200008F04FC0E957FF4F0C943434DF708C2FF3
:103630008F71112331F00E94CD208D2F0E945A19D5
:10364000C0C00E94EE208D2F0E946119BAC01123C4
:1036500039F00111B6C08C2F8F710E941321B1C0B7
:10366000023008F0AEC0F7CF112339F08C2F8F71E4
:103670000E94CD20A6C01123C9F38C2F8F710E9408
:10368000EE209FC0112329F08C2F8F710E94B8204B
:1036900098C00E94B32095C0112349F0CF718C2FA0
:1036A0000E94CD2063E08C2F0E94CB228AC081E053
:1036B0000E94E022023008F484C082E00E94E022EE
:1036C00080C0112331F0002389F28D2F0E94C01792
:1036D00078C0002391F2D93349F4FFEF27EE83E05D
:1036E000F15020408040E1F700C000008D2F0E9483
:1036F000EA1867C04C2F4F706D2FC7010E94DD077D
:103700000E94DE1F6BC0D23FB1F028F4D03F49F0D9
:10371000D13FF9F028C0D43FB9F058F0D53F71F04F
:1037200022C0112309F447C09091920281E08927B9
:1037300008C081E01827109392023DC011113BC0D0
:1037400081E08093920237C0111135C0109292022D
:1037500032C0112329F080919102882329F329C0D6
:10376000002311F328C0809191020023C1F0882327
:1037700041F09091920281E0892780939202109209
:1037800091028D2F112319F00E94C01714C00E94BE
:10379000EA1886E0F70111928A95E9F70CC08823B0
:1037A00051F0111108C09091920281E08927809315
:1037B0009202109291024C2F4F706D2FC7010E9400
:1037C0005F0BF8E0BF1631F0BF1640F086EF8B0DAF
:1037D000823020F40E9404160E94AB08DD20E1F044
:1037E0000E943A2280FD18C0F70112820E94342202
:1037F0000E94CD20C7010E94181C0E943422DF9134
:10380000CF911F910F91FF90EF90DF90BF90AF90FD
:103810009F908F900C94EE20DF91CF911F910F918C
:10382000FF90EF90DF90BF90AF909F908F900895A2
:103830000F931F93CF93DF93EC01988189812B81A4
:103840003C81232B31F08F3F31F481E09F3F19F40D
:1038500003C081E001C080E080FD13C0CE010E9462
:10386000BD08882371F0688179818A810E941122C4
:103870008C010E946A210E945B20B801CE010E9447
:103880006819DF91CF911F910F9108950E946822CE
:103890000E9478220E9496220E9492270E94F0267F
:1038A00080E090E00E94381680E090E00C944E1684
:1038B00080910F01909110010E9441240C94461CAC
:1038C0000E9458220C94581CE92FE295EF704E2F5D
:1038D00050E0FA013297EE30F105B0F4E456FF4FB4
:1038E0000C943434803F91F018F4803E68F40EC09C
:1038F000843F51F40BC0803E48F0813F29F406C05C
:1039000093FB882780F9089580E0089581E0089569
:103910000E9406220E94641C0895CF93DF9300D07A
:1039200000D01F92CDB7DEB70F900F900F900F9081
:103930000F90DF91CF910895CF93DF9300D000D007
:1039400000D0CDB7DEB726960FB6F894DEBF0FBE17
:10395000CDBFDF91CF9108951F93CF93DF93C09197
:10396000930216E080919402C81799F0D0E01C9F52
:10397000F0011D9FF00D1124EB56FD4F4081518148
:1039800062817381848195810E949C1C2196C770FD
:10399000E9CFDF91CF911F9108954091C5025091D9
:1039A000C6026091C7027091C8028091C9029091CD
:1039B000CA020C949C1CCF938091CA0282958F708E
:1039C00009F05FC08091C702882309F45AC0809132
:1039D0009302B09194027091C502A091C6024091E9
:1039E000C8025091C90291E07F3F09F090E0692F31
:1039F000C6E08B1709F445C04115510521F0AF3FD2
:103A000021F020E003C021E001C0262F90E020FD3E
:103A100035C0C89FF001C99FF00D1124EB56FD4F32
:103A200021812A132BC02081271328C02281211134
:103A300025C0238134812417350710F42150310922
:103A4000241B350B283C3105C8F42091CA022F7085
:103A500020612093CA0226E0289FF001299FF00DE3
:103A60001124E656FD4F80818F708061808385EC44
:103A700092E00E94181CCF910C94AC1C01968770A8
:103A8000B8CFCF910895AF92BF92CF92DF92EF92CD
:103A9000FF920F931F93CF93DF93CDB7DEB761975C
:103AA0000FB6F894DEBF0FBECDBF8C0185E0F801E4
:103AB000DE011D9601900D928A95E1F7D8014C9197
:103AC00011965C9111971296EC903091C50260911D
:103AD000C6028091C8029091C902009731F06F3FF1
:103AE00031F421E03F3F19F403C021E001C020E0A0
:103AF000B22FB170BB2E20FD60C1F801C380D4800D
:103B0000A090C702AA2009F4EEC02091CA02C816EC
:103B1000D90628F0D601A81BB90BCD0104C08095A9
:103B200090958C0D9D1DFF24F394883C910580F0A9
:103B3000F12C207F09F09CC07C2DD98AC88A6E2D7B
:103B400089890E948D1C85EC92E00E94181C2DC171
:103B5000822F807F09F054C0561314C0431312C043
:103B6000FE2CE1100FC02F7020612093CA020E942A
:103B7000CD1C85EC92E00E94181C8091CA02F801CD
:103B800085835CC1CD2831F05F3F31F481E04F3F48
:103B900019F403C081E001C080E080FD03C081E032
:103BA0008E2502C080E090E0F82FF170FF2E80FF9C
:103BB0001CC0809193022091940236E0821709F490
:103BC0001AC190E0389FF001399FF00D1124EB5697
:103BD000FD4F6181561306C06081461303C06281A8
:103BE000E61203C001968770E9CFFE2CEE2009F49F
:103BF00025C18091CA0281608093CA02F12C1EC146
:103C0000561309C0431307C0E11005C08091CA02D2
:103C1000F8018583A4C04D875E878D859E850E94AF
:103C2000881C882379F1EE2069F12091CA02822F45
:103C300082958F7090E0029774F08091C502909108
:103C4000C60298878F831986DB86CA862C87CE01A9
:103C500007960E94181C86E0F801A5ECB2E00190DE
:103C60000D928A95E1F70E94DB1C0E94CD1C0DC0CD
:103C7000561771F04D875E878D859E850E94881C42
:103C800081111AC0C8010E94181CFF24F394D6C0E9
:103C90004313F0CFE110EECF8091CA02F801858383
:103CA000C8010E94181C86E0E5ECF2E0DF011D92DD
:103CB0008A95E9F7FA2CC2C0EE2021F32091CA02BE
:103CC000822F82958F7090E002972CF28091C5022E
:103CD0009091C6029A8389831B82DD82CC822E83D7
:103CE000CE010196B6CFC816D90628F0F601E81B1A
:103CF000F90BCF0104C0809590958C0D9D1D883CDB
:103D0000910548F0F12C7C2DD98AC88A6E2D8989BD
:103D10000E948D1C4AC0FE2CEE2009F4B3CF56132E
:103D200033C0431331C02091CA0220FD24C0822F2A
:103D300082958F70482F50E041155105E1F0D80170
:103D400015962C9315974F30510549F08F5F982F9A
:103D50009295907F822F8F70892B15968C93C80136
:103D60000E94181C86E0F801A5ECB2E001900D92CB
:103D70008A95E1F73DC086E0F801A5ECB2E001903C
:103D80000D928A95E1F75AC04D875E878D859E8595
:103D90000E94881C81115FCF8091CA02816080934C
:103DA000CA02C8010E94181C49C0E5ECF2E086E096
:103DB000DF011D928A95E9F71BC0EE2009F462CF5E
:103DC0004D875E878D859E850E94881CF82E8823EE
:103DD00009F458CF86E0F801A5ECB2E001900D920D
:103DE0008A95E1F785EC92E00E94AE170E94DB1CF9
:103DF0000E94CD1C23C04D875E878D859E850E94C5
:103E00000622292F22952F70223028F49F7039F036
:103E1000811105C00BC0243028F49F7049F4805EE6
:103E2000883020F0C8010E94181CBF2CFB2C06C053
:103E3000D80115969C91907F91F7F8CF8F2D6196C0
:103E40000FB6F894DEBF0FBECDBFDF91CF911F91AB
:103E50000F91FF90EF90DF90CF90BF90AF900895BB
:103E60001F93CF93DF93CDB7DEB72C970FB6F8949F
:103E7000DEBF0FBECDBF4F83588769877A878B8798
:103E80009C87CE0107960E94431D8823D1F09F8115
:103E900088852A853B85232B31F08F3F31F481E0E3
:103EA0009F3F19F403C081E001C080E080FD47C05E
:103EB0004F81588569857A858B859C850E949C1CDD
:103EC0003EC086E0FE013796DE01119601900D920C
:103ED0008A95E1F7FF81E8856A857B856115710523
:103EE00031F0EF3F31F481E0FF3F19F403C081E08E
:103EF00001C080E080FD23C02091940230E0C90120
:103F00000196877099274091930250E08417950796
:103F1000F1F1F983EA837D836C8396E0929FD0016F
:103F2000939FB00D1124AB56BD4FFE013196019009
:103F30000D929A95E1F7809394020E94AC1C16E0D2
:103F40008091930290919402891771F1189FC0019A
:103F500011248B569D4F0E94431D882329F1E09127
:103F600093021E9FF0011124EB56FD4F40815181B9
:103F700062817381848195810E949C1C809193024F
:103F800090E001968770992780939302D9CF0E9481
:103F9000601C1092940210929302E5ECF2E086E02D
:103FA000DF011D928A95E9F72C960FB6F894DEBFD3
:103FB0000FBECDBFDF91CF911F910895EF92FF9279
:103FC0000F931F93CF93DF938C01892B09F46CC05F
:103FD000F12CEE24E394E8012196F80184918437D2
:103FE00040F4843008F051C0813081F0823019F102
:103FF0005BC0853709F444C0A8F19CE7980F90375F
:1040000008F052C08F770E94EA1841C00E5F1F4F20
:10401000FE01849190E2980F983050F48770FE2D45
:1040200001C0FF0F8A95EAF78F2F0E946B2214C000
:104030000E94C0172DC00E5F1F4FFE01849190E2B9
:10404000980F983060F48770FE2D01C0FF0F8A959D
:10405000EAF78F2F0E9471220E94962219C00E94B7
:10406000EA1816C00E5F1F4FFE01C491CC2381F0E9
:104070008FE99FE00197F1F700C00000C150F6CF33
:104080000E5F1F4FFE01F49003C00E94C0178E0107
:104090008F2D882309F49FCFEFE9FFE03197F1F7E7
:1040A00000C000008150F5CFDF91CF911F910F919B
:1040B000FF90EF900895089508950C945C200C945F
:1040C0005D200E945F206093060370930703809336
:1040D0000803909309030C94461C0C9461200F93E1
:1040E0001F9300910603109107032091080330915C
:1040F0000903602B712B822B932B1F910F910C9432
:1041000061200F931F9300910603109107032091E4
:1041100008033091090360237123822393231F91A5
:104120000F910C9461200F931F930091060310913F
:104130000703209108033091090360277127822724
:1041400093271F910F910C9461200C94F7070E9404
:10415000A52060930203709303038093040390935C
:1041600005030C94461C60E070E0CB010C94A72082
:104170000F931F9341E050E060E070E08A019B01E3
:1041800004C0000F111F221F331F8A95D2F7C901E7
:10419000B8011F910F910C94A7200F931F9341E03A
:1041A00050E060E070E004C0440F551F661F771FA9
:1041B0008A95D2F78091020390910303A0910403A2
:1041C000B09105038A019B01082B192B2A2B3B2B4D
:1041D000C901B8011F910F910C94A7200F931F9351
:1041E00041E050E060E070E004C0440F551F661FDE
:1041F000771F8A95D2F7409550956095709580917C
:10420000020390910303A0910403B09105038A0176
:104210009B01082319232A233B23C901B8011F91BD
:104220000F910C94A7200F931F9341E050E060E0A2
:1042300070E004C0440F551F661F771F8A95D2F7A0
:104240008091020390910303A0910403B0910503B0
:104250008A019B01082719272A273B27C901B80192
:104260001F910F910C94A7200F931F9300910203AD
:10427000109103032091040330910503602B712BEF
:10428000822B932B1F910F910C94A7200F931F93B8
:104290000091020310910303209104033091050360
:1042A00060237123822393231F910F910C94A720E5
:1042B0000F931F93009102031091030320910403B5
:1042C0003091050360277127822793271F910F9153
:1042D0000C94A7200895292F220F920F990F890F70
:1042E000E82FE695E695E695877051E001C0550FF9
:1042F0008A95EAF785E0E89FF0011124E553FD4F28
:1043000020E030E070E04081CB01022E02C09695A3
:1043100087950A94E2F78170819584278523842705
:1043200081932F5F3F4F2530310569F70895292F7D
:10433000220F920F990F890F682F669566956695E3
:10434000982F977085E0689FB001112440E050E0FD
:1043500080E0FB01E40FF51FE553FD4F208130E0C5
:10436000092E02C0369527950A94E2F7217033276B
:10437000042E01C0220F0A94EAF7822B4F5F5F4F91
:104380004530510531F70895BF92CF92DF92EF92F9
:10439000FF920F931F93CF93DF938C01C090020382
:1043A000D0900303E0900403F0900503809106038E
:1043B00090910703A0910803B0910903C82AD92A54
:1043C000EA2AFB2ACFE1D0E0D701C6010C2E04C0B7
:1043D000B695A795979587950A94D2F780FD04C066
:1043E000219790F7B12C07C0BC2EB8018C2F0E94EA
:1043F0007B0B0197A9F38B2DDF91CF911F910F912B
:10440000FF90EF90DF90CF90BF900895CF93DF9310
:10441000EC010E94C421BE010E947B0BDF91CF9171
:1044200008951F93CF93DF93EB019091900299230E
:1044300021F0CB010E94062213C0882349F0CB0152
:104440000E94C421182F682FCE010E946B2104C046
:10445000CB010E949721182FBE01812F0E947B0B58
:10446000DF91CF911F91089580910A0385958595DD
:104470008595089580910A038770089590910A03A5
:10448000977081E009F480E0089580912E030895EB
:1044900090912E03892B80932E03089580959091FF
:1044A0002E03892380932E03089580932E0308956D
:1044B00010922E03089590912D03892B80932D0344
:1044C0000895809590912D03892380932D0308955D
:1044D00010922D03089590912C03892B80932C0327
:1044E0000895809590912C03892380932C0308953F
:1044F00010922C03089580910B03089508950C9455
:104500007E220C947F2290910B03981721F08093C8
:104510000B030C948122089580910B03882329F0CA
:1045200010920B0380E00C9481220895E0910F011A
:10453000F091100180912E038083E0910F01F091A2
:104540001001908180912D03892B8083E0910F01D0
:10455000F0911001908180912C03892B80838091B0
:104560000B03882381F0E0910F01F09110019081FD
:10457000892B808380910F01909110010E94C523A7
:1045800081110E948C2280910F01909110010C9456
:1045900010160C947E2298E0899F90011124262BFE
:1045A00020930A030E94CD2080910A03859585956A
:1045B00085950C94C92210920A0380E00C94C922BC
:1045C00020910A038095822380930A03982F977085
:1045D00079F430E0482F082E000C550B24173507CE
:1045E00039F08595859585950E94EE200C94DB2207
:1045F0000895CF92DF92EF92FF926C01EE24FF2498
:10460000C114D104E104F10421F0C701B60120E195
:1046100001C020E0C72ED82EE92EFF24C114D104FA
:10462000E104F10419F0285FC701B6016B017C01B8
:1046300054E0F694E794D794C7945A95D1F7C114EF
:10464000D104E104F10419F02C5FC701B6016B013C
:104650007C0142E0F694E794D794C7944A95D1F749
:10466000C114D104E104F10419F02E5FC701B601B1
:10467000DC01CB01B695A79597958795892B8A2B59
:104680008B2B09F02F5F822FFF90EF90DF90CF9060
:10469000089580E090E00E94553421E08D3E9E4FC9
:1046A00009F020E0822F089582E090E00C944734D6
:1046B00083E090E00C94473484E090E00C9447341D
:1046C000682F84E090E00C945B34AB01BC018FE078
:1046D00090E00C946D34AB01BC0183E190E00C944C
:1046E0006D3460E070E0CB010C946B2360E070E00F
:1046F000CB010E9465230C9471236DEE7EEF80E068
:1047000090E00E94793460E082E090E00E945B34A7
:1047100060E083E090E00E945B3410920603109208
:104720000703109208031092090360E084E090E010
:104730000E945B3460E085E090E00E945B3460E0C2
:1047400086E090E00E945B346FEF87E090E00E948B
:104750005B3440E050E0BA0188E090E00E946D34A4
:1047600060E08DE090E00E945B3440E050E0BA01F0
:1047700088E190E00E946D3460E087E190E00E9463
:104780005B340C9476230C947D23FC01329680914B
:104790002001882331F08091AC0387FF02C09EE1A5
:1047A00001C096E080E0915028F021912223D9F3B6
:1047B0008F5FF9CF08959C01FC0132969FEF80E056
:1047C0004191461789F09F3F19F4411101C0982F7C
:1047D0008F5F8630A9F79F3F39F0F901E90FF11D8E
:1047E00097FDFA956283089508959C012A5F3F4FD3
:1047F000FC014281461301C0128201968217930781
:10480000B9F70895262F2695269526952E3168F41A
:10481000FC01E20FF11D677021E030E001C0220FC2
:104820006A95EAF78281282B22830895262F269500
:10483000269526952E3170F4FC01E20FF11D67706C
:1048400021E030E001C0220F6A95EAF720958281CD
:1048500028232283089520912001222329F02091EA
:10486000AC0327FD0C9402240C94DB23209120013F
:10487000222329F02091AC0327FD0C9416240C94DC
:10488000F52320912001FC013296222331F0809102
:10489000AC0387FF02C08EE101C086E0DF011D92FC
:1048A0008A95E9F7089508950C945324CF930E94B4
:1048B00056050E94FC050E945424C0E08C2F0E94E3
:1048C0003B06811104C0CF5FCE30C1F701C081E04B
:1048D000CF9108950C9453240C946A240E946C2464
:1048E0008091B203843049F11092300320E488E1D2
:1048F00090E00FB6F894A895809360000FBE2093C7
:10490000600080E00E94AB080E946C2483B7817F26
:10491000846083BF83B7816083BF7894889583B7B1
:104920008E7F83BF0FB6F894A89580916000886150
:1049300080936000109260000FBE08950C94532481
:104940000E94601C0E9404160E94AB080C949E24D6
:104950001F920F920FB60F9211248F939F93AF93D4
:10496000BF9380913003811113C08091A80390916F
:10497000A903A091AA03B091AB034196A11DB11D5B
:104980008093A8039093A903A093AA03B093AB03C9
:10499000BF91AF919F918F910F900FBE0F901F907D
:1049A000189582E084BD93E095BD9AEF97BD809302
:1049B0006E0008952FB7F8948091A8039091A903F1
:1049C000A091AA03B091AB032FBF0895CF92DF92BD
:1049D000EF92FF920F931F932FB7F8944091A80383
:1049E0005091A9036091AA037091AB032FBF6A0194
:1049F0007B01EE24FF248C0120E030E0C016D106BC
:104A0000E206F30610F4415051099A01281B390BB4
:104A1000C9011F910F91FF90EF90DF90CF90089503
:104A200078941F920F920FB60F9211248F939F9339
:104A3000AF93BF938091A8039091A903A091AA037B
:104A4000B091AB030196A11DB11D8093A803909373
:104A5000A903A093AA03B093AB03BF91AF919F9119
:104A60008F910F900FBE0F901F901895F89481E0D2
:104A70008093E00080E28093D800E9ECF0E01082BF
:104A80008FE19EE40197F1F700C000001DBA10927B
:104A900068001CBC10BE1FBA10927A0010926E0003
:104AA00010926F0010927100109272001082ECEB65
:104AB000F0E0108214B817B81AB81DB810BA1082F6
:104AC00015B818B81BB81EB811BA0C94003F089559
:104AD0000E944923811102C00E94C3230E945423D3
:104AE00080932F030E945C2390E09093AD0380930A
:104AF000AC030E945823682F70E080E090E00C9493
:104B00006D208091340380FF0BC06091140185E01B
:104B1000689FB001112475956795759567952BC0B1
:104B200081FF09C06091140185E0689FB0011124E4
:104B30007595679520C082FF07C06091140185E0DC
:104B4000689FB001112417C0909135039923D1F0CB
:104B500060911301961788F72091140185E0289F32
:104B600090011124929FA001939F500D112470E099
:104B7000CA010E9420346038710540F46115710546
:104B800019F406C065E070E0862F08958FE7089558
:104B900081E008958091340380FF08C06091120184
:104BA00070E0759567957595679521C081FF06C082
:104BB0006091120170E07595679519C082FF04C07D
:104BC0006091120170E010C090913503992399F023
:104BD000609111019617A0F780911201899FC00181
:104BE000112470E00E9420346038710540F4611592
:104BF000710519F406C061E070E0862F08958FE713
:104C0000089581E00895803F21F40E9481258195D7
:104C100004C0813F29F40E948125809339030895BF
:104C2000823F21F40E948125819504C0833F29F4AD
:104C30000E948125809338030895893F19F40E94CA
:104C4000CA2505C08A3F31F40E94CA258195809308
:104C50003A0308958B3F21F40E94CA25819504C030
:104C60008C3F29F40E94CA2580933B030895843F1A
:104C700021F480913703816017C0853F21F4809132
:104C80003703826011C0863F21F48091370384602E
:104C90000BC0873F21F480913703886005C0883FAF
:104CA00031F48091370380618093370308958D3FFD
:104CB00021F48091340381600BC08E3F21F48091F8
:104CC0003403826005C08F3F29F4809134038460EF
:104CD000809334030895803F39F48091390387FF2E
:104CE0006CC01092390369C0813F29F48091390367
:104CF0001816BCF362C090913803823F29F497FFE5
:104D00005CC01092380359C0833F19F41916CCF3D4
:104D100054C0893F41F480913A0318160CF04DC0FD
:104D200010923A034AC08A3F29F480913A0387FFE0
:104D300044C0F6CF8B3F39F480913B0387FF3DC0E1
:104D400010923B033AC08C3F29F480913B03181624
:104D5000BCF333C0843F21F4809137038E7F17C0AA
:104D6000853F21F4809137038D7F11C0863F21F468
:104D7000809137038B7F0BC0873F21F480913703ED
:104D8000877F05C0883F31F4809137038F7E809301
:104D9000370313C08D3F21F4809134038E7F0BC005
:104DA0008E3F21F4809134038D7F05C08F3F29F41D
:104DB000809134038B7F8093340380913803811179
:104DC0000EC08091390381110AC080913A0381118C
:104DD00006C080913B03811102C0109235030895F3
:104DE00086E393E00E942A160E94DA24909332030D
:104DF0008093310308951F93CF93DF938091310304
:104E0000909132030E94E624AC01909135039923DE
:104E100021F02091150130E006C0209133038AE093
:104E2000289F900111244217530708F477C08091FE
:104E30003803C0913903D0913A0310913B0381119B
:104E400007C0C11167C0D11165C0111163C066C030
:104E50009F3F19F09F5F90933503181624F40E942A
:104E60008125809338038091380387FF05C00E9415
:104E700081258195809338031C1624F40E94812596
:104E8000809339038091390387FF05C00E948125F3
:104E9000819580933903309138033323C1F02091F9
:104EA00039032223A1F045EB3403C0011124892FDB
:104EB000911101C081E08093380335EB2303C001D9
:104EC0001124892F911101C081E0809339031D16AF
:104ED00024F40E94CA2580933A0380913A0387FF05
:104EE00005C00E94CA25819580933A03111624F4C7
:104EF0000E94CA2580933B0380913B0387FF05C036
:104F00000E94CA25819580933B03DF91CF911F9129
:104F10000C94F0269F3F09F09DCFAECFDF91CF914B
:104F20001F910895E6E3F3E086E0DF011D928A9584
:104F3000E9F710923503109234030895833081F11C
:104F400028F4813059F08230D1F00895853009F489
:104F500049C0B8F1863009F456C0089580913303F2
:104F6000262F30E0280F311D2F3F310524F4680F24
:104F70006093330308958FEF8093330308958091F6
:104F80001501262F30E0280F311D2F3F310524F465
:104F9000680F6093150108958FEF809315010895B0
:104FA00080911401262F30E0280F311D2F3F31054D
:104FB00024F4680F6093140108958FEF8093140117
:104FC000089580911301262F30E0280F311D2F3FC7
:104FD000310524F4680F6093130108958FEF8093D7
:104FE0001301089580911201262F30E0280F311D02
:104FF0002F3F310524F4680F6093120108958FEF5D
:1050000080931201089580911101262F30E0280F1E
:10501000311D2F3F310524F4680F6093110108956D
:105020008FEF809311010895833011F128F48130BE
:1050300049F0823091F00895853081F120F1863079
:10504000C1F1089580913303681720F4861B809383
:105050003303089510923303089580911501681762
:1050600020F4861B80931501089510921501089570
:1050700080911401681720F4861B80931401089511
:1050800010921401089580911301681720F4861B73
:1050900080931301089510921301089580911201D5
:1050A000681720F4861B8093120108951092120154
:1050B000089580911101681720F4861B80931101D7
:1050C00008951092110108950F931F9341E050E04D
:1050D00060E070E08A019B0104C0000F111F221FD5
:1050E000331F8A95D2F7C901B8010E946D201F9124
:1050F0000F910C94601C482F50E0FA013597EF3364
:10510000F10508F06BC0E655FF4F0C9434340E9453
:10511000C32360C080912F03817F8E7F80932F03F4
:1051200081E080933D0308950E94601C2FEF83ED82
:1051300090E3215080409040E1F700C000000E94C1
:10514000362548C080912F03982F9095917090FB41
:1051500080F980932F0391113DC0897F877F10C014
:1051600080912F0381FB222720F991E0922790FB69
:1051700081F980932F03992369F180912F03816036
:1051800080932F0327C080912F0382FB222720F9D1
:1051900091E0922790FB82F9ECCF80912F0383FB63
:1051A000222720F991E0922790FB83F9E2CF0E9419
:1051B000601C8091AC0387FB222720F991E09227A5
:1051C00090FB87F98093AC0305C0895301C08D51D2
:1051D0000E94642881E0089580E0FACF80E008957D
:1051E00080E008950C94F0288E518A3030F4E82F36
:1051F000F0E0E753FE4F8081089580E00895CF935B
:10520000C82F80913D03813071F018F08230E1F1B8
:1052100084C00E944522813151F00E944522823291
:1052200009F07DC004C00E944522813149F48C2FD1
:105230000E94F228811109C08C2F0E947B2822C075
:105240000E944522823221F4F2CF81E090E01AC020
:105250008C2F0E94F028811114C0C43179F048F4D9
:10526000CB3079F0C03109F05EC082E080933D031D
:1052700008C0C93219F0C83321F055C010923D035F
:1052800052C081E0817051C0C93279F108F5C43152
:1052900061F1A0F4C73009F044C01092330384E1F7
:1052A00080931501C09314018CE38093130188E06F
:1052B0008093120188E28093110133C082EE8C0F3B
:1052C000863078F58C2F0E94F42880933C0329C007
:1052D000CE34E9F020F4CB3421F56AE013C0C135B7
:1052E00079F0C235F1F461E00DC080913C03882370
:1052F00019F010923C0315C081E080933D0315C066
:1053000061E006C080913C030E949E270AC06AE0CB
:1053100080913C030E94142804C010923D0380E059
:1053200004C081E002C080E0ADCFCF9108958091AC
:105330005E0308950F931F93CF93DF9300D01F92C6
:10534000CDB7DEB78C010E94082C823011F084307A
:1053500021F584E089831B830A8382E08093E9003E
:105360008FEF9091E800815095FD06C095ED9A95DC
:10537000F1F700008111F5CF8091E80085FF0DC0A5
:1053800040E050E063E070E0CE0101960E94252CE1
:105390008091E8008E778093E8000F900F900F9037
:1053A000DF91CF911F910F910895CF93DF9300D09C
:1053B0001F92CDB7DEB72091B203243031F523E040
:1053C0002983805891099B838A8382E08093E90036
:1053D0008FEF9091E800815095FD06C095ED9A956C
:1053E000F1F700008111F5CF8091E80085FF0DC035
:1053F00040E050E063E070E0CE0101960E94252C71
:105400008091E8008E778093E8000F900F900F90C6
:10541000DF91CF910895CF93DF93EC010E94082C88
:10542000823011F08430F9F482E08093E9008FEF4C
:105430009091E800815095FD06C095ED9A95F1F7A1
:1054400000008111F5CF8091E80085FF0CC040E09D
:1054500050E066E070E0CE010E94252C8091E800CB
:105460008E778093E800DF91CF910895CF93DF93FB
:10547000EC010E94082C823011F08430D9F5809123
:105480002001882339F08091AC0387FF03C060E2DC
:1054900082E002C068E081E08093E9008FEF9091A4
:1054A000E800815095FD06C095ED9A95F1F7000052
:1054B0008111F5CF8091E80085FF1CC0809120010B
:1054C000811105C040E050E068E070E003C070E08A
:1054D00040E050E0CE010E94252C8091E8008E77BC
:1054E0008093E80080E2FE01AEE3B3E001900D920C
:1054F0008A95E1F7DF91CF9108958091B1038111F1
:1055000009C00E94B62D0E94132E8091E200846093
:105510008093E20008951092B103089508950895CC
:105520000C94A02442E061EC81E00E942F2D42E225
:1055300061EC82E00C942F2D8091B403833009F448
:1055400060C030F4813071F0823009F499C0089560
:105550008A3009F485C08B3009F46BC0893009F0BA
:10556000A7C020C08091B303813A09F0A1C0809107
:10557000E800877F8093E8008091B7039091B8039B
:10558000892B21F460E28EE393E003C060E080E0C9
:1055900090E070E00E94702C8091E8008B778093FF
:1055A000E80008958091B303813209F081C08091B1
:1055B000B7039091B803029708F07AC08091E80091
:1055C000877F8093E8008091E80082FD05C080918C
:1055D000B2038111F8CF6CC02091F3008091F200EA
:1055E00090E0922B029729F48091F1008B7F81301B
:1055F00021F48091F10080935E038091E8008B7725
:1056000053C08091B303813A09F052C08091B7032F
:105610009091B803892B09F04BC08091E800877FF7
:105620008093E8008091E80080FFFCCF809120010A
:1056300036C08091B3038132D9F58091B703909140
:10564000B803892BA9F58091E800877F8093E80053
:105650000E94642D8091B503809320010C94601CFE
:105660008091B303813221F58091E800877F809398
:10567000E8000E94642D8091B60380935F03089533
:105680008091B303813AA1F48091E800877F8093F1
:10569000E8008091E80080FFFCCF80915F03809359
:1056A000F1008091E8008E778093E8000C94642DDF
:1056B000089584B7877F84BF0FB6F894A89580912A
:1056C0006000886180936000109260000FBE80E8E7
:1056D00080936100109261000E9474160E94B62DA2
:1056E0000E94132E8091E20084608093E2007894FF
:1056F0000E94A8300E947C1686E191E00E94FF156E
:105700008091B203853069F40E946E248091B003C9
:105710008823B1F30E945624882391F30E940F2C12
:10572000EFCF0E9486160E94F914EACF0C94982BB2
:10573000292F332723303105C9F060F4213031059A
:1057400081F02230310509F04AC08BE390E02CEF64
:1057500037E049C02132310511F12232310579F1AA
:105760003EC082E190E027E338E03DC099278130D8
:10577000910561F040F08230910559F0039779F579
:10578000E2ECF7E008C0E8EFF7E005C0E0EEF7E094
:1057900002C0E8ECF7E0849190E09F0124C061151D
:1057A000710541F061307105D1F489E090E027E2A4
:1057B00038E019C089E090E02EE038E014C06115AF
:1057C000710541F06130710551F480EC90E029E4FD
:1057D00038E009C080E490E029E039E004C080E0CE
:1057E00090E020E030E0FA013183208308950895AD
:1057F000CF93C82F0E94F72BC0936003CF910895D9
:105800008091B203843011F081E0089582E0089520
:1058100080916003811102C00C94002C089580E1F6
:1058200089BD82E189BD09B400FEFDCF8091D80019
:105830008F7D8093D8008091E00082608093E000AB
:105840008091E00081FDFCCF0895CF92DF92EF922E
:10585000FF920F931F93CF93DF93EC018B017A019B
:105860000E94832D811133C0E114F10439F0F70156
:1058700080819181081B190BC80FD91FC12CD12C15
:105880000115110519F18091E80085FD16C0809180
:10589000E8008E778093E800E114F10449F0F70105
:1058A00080819181C80ED91ED182C08285E00FC04F
:1058B0000E94832D882321F30AC089918093F100EF
:1058C00001501109FFEFCF1ADF0ADACF80E0DF9134
:1058D000CF911F910F91FF90EF90DF90CF9008959F
:1058E0002091B9033091BA032617370748F06115A4
:1058F000710539F42091E8002E772093E80001C06B
:10590000B901FC0120E06115710579F18091B203C4
:105910008823F1F18530F1F18091E80083FD3CC0EE
:105920008091E80082FD2EC08091E80080FFEBCFDF
:105930002091F3008091F20090E0922B61157105A7
:1059400051F08830910538F421912093F100615095
:1059500071090196F3CF21E0089709F020E08091CA
:10596000E8008E778093E800CECF2111CFCF0AC018
:105970008091B203882361F0853061F08091E80066
:1059800083FD0AC08091E80082FFF2CF80E0089595
:1059900082E0089583E0089581E008952091B9039D
:1059A0003091BA032617370748F06115710539F4AD
:1059B0002091E8002E772093E80001C0B901FC0196
:1059C00020E06115710591F18091B203882309F4FB
:1059D00040C0853009F43FC08091E80083FD3DC0A0
:1059E0008091E80082FD2FC08091E80080FFE9CF20
:1059F0002091F3008091F20090E0922B61157105E7
:105A000059F08830910540F424912093F1003196AB
:105A1000615071090196F2CF21E0089709F020E06A
:105A20008091E8008E778093E800CBCF2111CCCF16
:105A30000AC08091B203882361F0853061F08091C3
:105A4000E80083FD0AC08091E80082FFF2CF80E089
:105A5000089582E0089583E0089581E00895982FE5
:105A6000973068F59093E900981739F07091EC0041
:105A70002091ED005091F00003C0242F762F50E0CC
:105A800021FD02C09F5FECCF3091EB003E7F309351
:105A9000EB003091ED003D7F3093ED003091EB0055
:105AA00031603093EB007093EC002093ED00509345
:105AB000F0002091EE0027FDE5CF80E008958F7083
:105AC0008093E90081E008958091B30387FF11C0BE
:105AD0008091E80082FD05C08091B2038111F8CF6A
